{
  "_format": "hh-sol-artifact-1",
  "contractName": "DistributionLogic",
  "sourceName": "contracts/DistributionLogic.sol",
  "abi": [
    {
      "inputs": [],
      "stateMutability": "nonpayable",
      "type": "constructor"
    },
    {
      "anonymous": false,
      "inputs": [
        {
          "indexed": false,
          "internalType": "uint256",
          "name": "church",
          "type": "uint256"
        },
        {
          "indexed": false,
          "internalType": "uint256",
          "name": "donors",
          "type": "uint256"
        },
        {
          "indexed": false,
          "internalType": "uint256",
          "name": "reserve",
          "type": "uint256"
        }
      ],
      "name": "DistributionConfigUpdated",
      "type": "event"
    },
    {
      "inputs": [],
      "name": "MIN_DONATION",
      "outputs": [
        {
          "internalType": "uint256",
          "name": "",
          "type": "uint256"
        }
      ],
      "stateMutability": "view",
      "type": "function"
    },
    {
      "inputs": [],
      "name": "PRECISION",
      "outputs": [
        {
          "internalType": "uint256",
          "name": "",
          "type": "uint256"
        }
      ],
      "stateMutability": "view",
      "type": "function"
    },
    {
      "inputs": [
        {
          "internalType": "uint256",
          "name": "totalAmount",
          "type": "uint256"
        },
        {
          "internalType": "address[]",
          "name": "donors",
          "type": "address[]"
        }
      ],
      "name": "calculateDistribution",
      "outputs": [
        {
          "internalType": "address[]",
          "name": "recipients",
          "type": "address[]"
        },
        {
          "internalType": "uint256[]",
          "name": "amounts",
          "type": "uint256[]"
        }
      ],
      "stateMutability": "view",
      "type": "function"
    },
    {
      "inputs": [
        {
          "internalType": "uint256",
          "name": "amount",
          "type": "uint256"
        },
        {
          "internalType": "uint256",
          "name": "percentage",
          "type": "uint256"
        }
      ],
      "name": "calculatePercentage",
      "outputs": [
        {
          "internalType": "uint256",
          "name": "",
          "type": "uint256"
        }
      ],
      "stateMutability": "pure",
      "type": "function"
    },
    {
      "inputs": [],
      "name": "churchPercentage",
      "outputs": [
        {
          "internalType": "uint256",
          "name": "",
          "type": "uint256"
        }
      ],
      "stateMutability": "view",
      "type": "function"
    },
    {
      "inputs": [],
      "name": "donorRewardPercentage",
      "outputs": [
        {
          "internalType": "uint256",
          "name": "",
          "type": "uint256"
        }
      ],
      "stateMutability": "view",
      "type": "function"
    },
    {
      "inputs": [],
      "name": "owner",
      "outputs": [
        {
          "internalType": "address",
          "name": "",
          "type": "address"
        }
      ],
      "stateMutability": "view",
      "type": "function"
    },
    {
      "inputs": [],
      "name": "reservePercentage",
      "outputs": [
        {
          "internalType": "uint256",
          "name": "",
          "type": "uint256"
        }
      ],
      "stateMutability": "view",
      "type": "function"
    },
    {
      "inputs": [
        {
          "internalType": "uint256",
          "name": "_church",
          "type": "uint256"
        },
        {
          "internalType": "uint256",
          "name": "_donors",
          "type": "uint256"
        },
        {
          "internalType": "uint256",
          "name": "_reserve",
          "type": "uint256"
        }
      ],
      "name": "setDistributionPercentages",
      "outputs": [],
      "stateMutability": "nonpayable",
      "type": "function"
    }
  ],
  "bytecode": "0x6080604052603c600055601e600155600a60025534801561001f57600080fd5b5061003a6736bf19eb234d5a6b60c01b61009960201b60201c565b61005366a170c95234f40760c01b61009960201b60201c565b33600360006101000a81548173ffffffffffffffffffffffffffffffffffffffff021916908373ffffffffffffffffffffffffffffffffffffffff16021790555061009c565b50565b610fbb806100ab6000396000f3fe608060405234801561001057600080fd5b50600436106100935760003560e01c80639328aea5116100665780639328aea514610133578063aaf5eb6814610151578063db45810e1461016f578063f700c8291461018d578063fbe2e557146101ab57610093565b80632133e3b914610098578063353cf1fb146100c857806384ff1d3e146100e45780638da5cb5b14610115575b600080fd5b6100b260048036038101906100ad91906108d0565b6101c9565b6040516100bf919061091f565b60405180910390f35b6100e260048036038101906100dd919061093a565b610227565b005b6100fe60048036038101906100f991906109f2565b61047d565b60405161010c929190610c00565b60405180910390f35b61011d610842565b60405161012a9190610c46565b60405180910390f35b61013b610868565b604051610148919061091f565b60405180910390f35b61015961086e565b604051610166919061091f565b60405180910390f35b61017761087a565b604051610184919061091f565b60405180910390f35b610195610881565b6040516101a2919061091f565b60405180910390f35b6101b3610887565b6040516101c0919061091f565b60405180910390f35b60006101df6715426abf0d4a947c60c01b61088d565b6101f3672558dd7dccce165c60c01b61088d565b610207679a497c49e6ba3cce60c01b61088d565b606482846102159190610c90565b61021f9190610d01565b905092915050565b61023b67cb3545efd6857cf060c01b61088d565b61024f67d94627aa038d4ce660c01b61088d565b61026367d35e92fec21e6b5360c01b61088d565b6102776757913829423a86fb60c01b61088d565b600360009054906101000a900473ffffffffffffffffffffffffffffffffffffffff1673ffffffffffffffffffffffffffffffffffffffff163373ffffffffffffffffffffffffffffffffffffffff1614610307576040517f08c379a00000000000000000000000000000000000000000000000000000000081526004016102fe90610d8f565b60405180910390fd5b61031b67b8658b4335628cdb60c01b61088d565b61032f67fe126afac9a96b2360c01b61088d565b6103436739f91dc0f9e58dfe60c01b61088d565b61035767eed61bc40b33b74b60c01b61088d565b60648183856103669190610daf565b6103709190610daf565b146103b0576040517f08c379a00000000000000000000000000000000000000000000000000000000081526004016103a790610e2f565b60405180910390fd5b6103c467c650fb7efabe1afd60c01b61088d565b6103d8678caf720cb189e8dd60c01b61088d565b826000819055506103f367f92fc40a1d48856c60c01b61088d565b8160018190555061040e67c945d05e81ef35bd60c01b61088d565b806002819055506104296767a0ec7d06d8434060c01b61088d565b61043d6741ee73038c7c422460c01b61088d565b7f1d163f48d073c4134cd7aae0987c704ed03803df2a44843466bbc4357d0290bc83838360405161047093929190610e4f565b60405180910390a1505050565b60608061049366e2d16978cd3ee760c01b61088d565b6104a76745858ce2fbb8a45060c01b61088d565b6104bb675a3724161ca81d5760c01b61088d565b60006064600054876104cd9190610c90565b6104d79190610d01565b90506104ed67105b827bf1c1c5cb60c01b61088d565b6105016763c4bc7a3bcf3d9c60c01b61088d565b60006064600154886105139190610c90565b61051d9190610d01565b9050610533671dd648076a967e8860c01b61088d565b6001868690506105439190610daf565b67ffffffffffffffff81111561055c5761055b610e86565b5b60405190808252806020026020018201604052801561058a5781602001602082028036833780820191505090505b5093506105a167d635956e9e25662160c01b61088d565b6001868690506105b19190610daf565b67ffffffffffffffff8111156105ca576105c9610e86565b5b6040519080825280602002602001820160405280156105f85781602001602082028036833780820191505090505b50925061060f67d08c04c7c038274460c01b61088d565b600360009054906101000a900473ffffffffffffffffffffffffffffffffffffffff168460008151811061064657610645610eb5565b5b602002602001019073ffffffffffffffffffffffffffffffffffffffff16908173ffffffffffffffffffffffffffffffffffffffff16815250506106946778b13d34424c375360c01b61088d565b81836000815181106106a9576106a8610eb5565b5b6020026020010181815250506106c96713b7243885bfd7e360c01b61088d565b6106dd67c9f1e2197256728160c01b61088d565b600086869050826106ee9190610d01565b9050610704671d7cfdef2e693ff060c01b61088d565b610718670bfa8f456cfc15c860c01b61088d565b60005b8787905081101561080e5761073a6739753440d579de1360c01b61088d565b87878281811061074d5761074c610eb5565b5b90506020020160208101906107629190610f10565b866001836107709190610daf565b8151811061078157610780610eb5565b5b602002602001019073ffffffffffffffffffffffffffffffffffffffff16908173ffffffffffffffffffffffffffffffffffffffff16815250506107cf67068f5e2b99b2ab4060c01b61088d565b81856001836107de9190610daf565b815181106107ef576107ee610eb5565b5b602002602001018181525050808061080690610f3d565b91505061071b565b50610823670931e694378b4baf60c01b61088d565b610837676c79d349765e897960c01b61088d565b505050935093915050565b600360009054906101000a900473ffffffffffffffffffffffffffffffffffffffff1681565b60015481565b670de0b6b3a764000081565b620f424081565b60025481565b60005481565b50565b600080fd5b600080fd5b6000819050919050565b6108ad8161089a565b81146108b857600080fd5b50565b6000813590506108ca816108a4565b92915050565b600080604083850312156108e7576108e6610890565b5b60006108f5858286016108bb565b9250506020610906858286016108bb565b9150509250929050565b6109198161089a565b82525050565b60006020820190506109346000830184610910565b92915050565b60008060006060848603121561095357610952610890565b5b6000610961868287016108bb565b9350506020610972868287016108bb565b9250506040610983868287016108bb565b9150509250925092565b600080fd5b600080fd5b600080fd5b60008083601f8401126109b2576109b161098d565b5b8235905067ffffffffffffffff8111156109cf576109ce610992565b5b6020830191508360208202830111156109eb576109ea610997565b5b9250929050565b600080600060408486031215610a0b57610a0a610890565b5b6000610a19868287016108bb565b935050602084013567ffffffffffffffff811115610a3a57610a39610895565b5b610a468682870161099c565b92509250509250925092565b600081519050919050565b600082825260208201905092915050565b6000819050602082019050919050565b600073ffffffffffffffffffffffffffffffffffffffff82169050919050565b6000610aa982610a7e565b9050919050565b610ab981610a9e565b82525050565b6000610acb8383610ab0565b60208301905092915050565b6000602082019050919050565b6000610aef82610a52565b610af98185610a5d565b9350610b0483610a6e565b8060005b83811015610b35578151610b1c8882610abf565b9750610b2783610ad7565b925050600181019050610b08565b5085935050505092915050565b600081519050919050565b600082825260208201905092915050565b6000819050602082019050919050565b610b778161089a565b82525050565b6000610b898383610b6e565b60208301905092915050565b6000602082019050919050565b6000610bad82610b42565b610bb78185610b4d565b9350610bc283610b5e565b8060005b83811015610bf3578151610bda8882610b7d565b9750610be583610b95565b925050600181019050610bc6565b5085935050505092915050565b60006040820190508181036000830152610c1a8185610ae4565b90508181036020830152610c2e8184610ba2565b90509392505050565b610c4081610a9e565b82525050565b6000602082019050610c5b6000830184610c37565b92915050565b7f4e487b7100000000000000000000000000000000000000000000000000000000600052601160045260246000fd5b6000610c9b8261089a565b9150610ca68361089a565b9250828202610cb48161089a565b91508282048414831517610ccb57610cca610c61565b5b5092915050565b7f4e487b7100000000000000000000000000000000000000000000000000000000600052601260045260246000fd5b6000610d0c8261089a565b9150610d178361089a565b925082610d2757610d26610cd2565b5b828204905092915050565b600082825260208201905092915050565b7f4f6e6c79206f776e657200000000000000000000000000000000000000000000600082015250565b6000610d79600a83610d32565b9150610d8482610d43565b602082019050919050565b60006020820190508181036000830152610da881610d6c565b9050919050565b6000610dba8261089a565b9150610dc58361089a565b9250828201905080821115610ddd57610ddc610c61565b5b92915050565b7f50657263656e7461676573206d7573742073756d20746f203130300000000000600082015250565b6000610e19601b83610d32565b9150610e2482610de3565b602082019050919050565b60006020820190508181036000830152610e4881610e0c565b9050919050565b6000606082019050610e646000830186610910565b610e716020830185610910565b610e7e6040830184610910565b949350505050565b7f4e487b7100000000000000000000000000000000000000000000000000000000600052604160045260246000fd5b7f4e487b7100000000000000000000000000000000000000000000000000000000600052603260045260246000fd5b610eed81610a9e565b8114610ef857600080fd5b50565b600081359050610f0a81610ee4565b92915050565b600060208284031215610f2657610f25610890565b5b6000610f3484828501610efb565b91505092915050565b6000610f488261089a565b91507fffffffffffffffffffffffffffffffffffffffffffffffffffffffffffffffff8203610f7a57610f79610c61565b5b60018201905091905056fea26469706673582212201f4d55e726a409650b329759d20f8ebee7b2496c47f457b10d276d5718b3922564736f6c63430008130033",
  "linkReferences": {},
  "deployedLinkReferences": {}
}