{
  "_format": "hh-sol-artifact-1",
  "contractName": "MockToken",
  "sourceName": "contracts/mocks/MockAave.sol",
  "abi": [
    {
      "inputs": [
        {
          "internalType": "string",
          "name": "name",
          "type": "string"
        },
        {
          "internalType": "string",
          "name": "symbol",
          "type": "string"
        },
        {
          "internalType": "uint8",
          "name": "decimals_",
          "type": "uint8"
        }
      ],
      "stateMutability": "nonpayable",
      "type": "constructor"
    },
    {
      "anonymous": false,
      "inputs": [
        {
          "indexed": true,
          "internalType": "address",
          "name": "owner",
          "type": "address"
        },
        {
          "indexed": true,
          "internalType": "address",
          "name": "spender",
          "type": "address"
        },
        {
          "indexed": false,
          "internalType": "uint256",
          "name": "value",
          "type": "uint256"
        }
      ],
      "name": "Approval",
      "type": "event"
    },
    {
      "anonymous": false,
      "inputs": [
        {
          "indexed": true,
          "internalType": "address",
          "name": "from",
          "type": "address"
        },
        {
          "indexed": true,
          "internalType": "address",
          "name": "to",
          "type": "address"
        },
        {
          "indexed": false,
          "internalType": "uint256",
          "name": "value",
          "type": "uint256"
        }
      ],
      "name": "Transfer",
      "type": "event"
    },
    {
      "inputs": [
        {
          "internalType": "address",
          "name": "owner",
          "type": "address"
        },
        {
          "internalType": "address",
          "name": "spender",
          "type": "address"
        }
      ],
      "name": "allowance",
      "outputs": [
        {
          "internalType": "uint256",
          "name": "",
          "type": "uint256"
        }
      ],
      "stateMutability": "view",
      "type": "function"
    },
    {
      "inputs": [
        {
          "internalType": "address",
          "name": "spender",
          "type": "address"
        },
        {
          "internalType": "uint256",
          "name": "amount",
          "type": "uint256"
        }
      ],
      "name": "approve",
      "outputs": [
        {
          "internalType": "bool",
          "name": "",
          "type": "bool"
        }
      ],
      "stateMutability": "nonpayable",
      "type": "function"
    },
    {
      "inputs": [
        {
          "internalType": "address",
          "name": "account",
          "type": "address"
        }
      ],
      "name": "balanceOf",
      "outputs": [
        {
          "internalType": "uint256",
          "name": "",
          "type": "uint256"
        }
      ],
      "stateMutability": "view",
      "type": "function"
    },
    {
      "inputs": [
        {
          "internalType": "uint256",
          "name": "amount",
          "type": "uint256"
        }
      ],
      "name": "burn",
      "outputs": [],
      "stateMutability": "nonpayable",
      "type": "function"
    },
    {
      "inputs": [],
      "name": "decimals",
      "outputs": [
        {
          "internalType": "uint8",
          "name": "",
          "type": "uint8"
        }
      ],
      "stateMutability": "view",
      "type": "function"
    },
    {
      "inputs": [
        {
          "internalType": "address",
          "name": "spender",
          "type": "address"
        },
        {
          "internalType": "uint256",
          "name": "subtractedValue",
          "type": "uint256"
        }
      ],
      "name": "decreaseAllowance",
      "outputs": [
        {
          "internalType": "bool",
          "name": "",
          "type": "bool"
        }
      ],
      "stateMutability": "nonpayable",
      "type": "function"
    },
    {
      "inputs": [
        {
          "internalType": "address",
          "name": "spender",
          "type": "address"
        },
        {
          "internalType": "uint256",
          "name": "addedValue",
          "type": "uint256"
        }
      ],
      "name": "increaseAllowance",
      "outputs": [
        {
          "internalType": "bool",
          "name": "",
          "type": "bool"
        }
      ],
      "stateMutability": "nonpayable",
      "type": "function"
    },
    {
      "inputs": [
        {
          "internalType": "address",
          "name": "to",
          "type": "address"
        },
        {
          "internalType": "uint256",
          "name": "amount",
          "type": "uint256"
        }
      ],
      "name": "mint",
      "outputs": [],
      "stateMutability": "nonpayable",
      "type": "function"
    },
    {
      "inputs": [],
      "name": "name",
      "outputs": [
        {
          "internalType": "string",
          "name": "",
          "type": "string"
        }
      ],
      "stateMutability": "view",
      "type": "function"
    },
    {
      "inputs": [],
      "name": "symbol",
      "outputs": [
        {
          "internalType": "string",
          "name": "",
          "type": "string"
        }
      ],
      "stateMutability": "view",
      "type": "function"
    },
    {
      "inputs": [],
      "name": "totalSupply",
      "outputs": [
        {
          "internalType": "uint256",
          "name": "",
          "type": "uint256"
        }
      ],
      "stateMutability": "view",
      "type": "function"
    },
    {
      "inputs": [
        {
          "internalType": "address",
          "name": "to",
          "type": "address"
        },
        {
          "internalType": "uint256",
          "name": "amount",
          "type": "uint256"
        }
      ],
      "name": "transfer",
      "outputs": [
        {
          "internalType": "bool",
          "name": "",
          "type": "bool"
        }
      ],
      "stateMutability": "nonpayable",
      "type": "function"
    },
    {
      "inputs": [
        {
          "internalType": "address",
          "name": "from",
          "type": "address"
        },
        {
          "internalType": "address",
          "name": "to",
          "type": "address"
        },
        {
          "internalType": "uint256",
          "name": "amount",
          "type": "uint256"
        }
      ],
      "name": "transferFrom",
      "outputs": [
        {
          "internalType": "bool",
          "name": "",
          "type": "bool"
        }
      ],
      "stateMutability": "nonpayable",
      "type": "function"
    }
  ],
  "bytecode": "0x60806040523480156200001157600080fd5b50604051620023a5380380620023a5833981810160405281019062000037919062000471565b828281600390816200004a919062000756565b5080600490816200005c919062000756565b5050506200007b679de16431dbb99a5160c01b6200012660201b60201c565b62000097674e85fee781a0b46860c01b6200012660201b60201c565b80600560006101000a81548160ff021916908360ff160217905550620000ce670a7ff111c059390460c01b6200012660201b60201c565b620000ea6785cc78c87535c26760c01b6200012660201b60201c565b6200011d338260ff16600a620001019190620009c0565b620f424062000111919062000a11565b6200012960201b60201c565b50505062000b48565b50565b600073ffffffffffffffffffffffffffffffffffffffff168273ffffffffffffffffffffffffffffffffffffffff16036200019b576040517f08c379a0000000000000000000000000000000000000000000000000000000008152600401620001929062000abd565b60405180910390fd5b620001af600083836200029660201b60201c565b8060026000828254620001c3919062000adf565b92505081905550806000808473ffffffffffffffffffffffffffffffffffffffff1673ffffffffffffffffffffffffffffffffffffffff168152602001908152602001600020600082825401925050819055508173ffffffffffffffffffffffffffffffffffffffff16600073ffffffffffffffffffffffffffffffffffffffff167fddf252ad1be2c89b69c2b068fc378daa952ba7f163c4a11628f55a4df523b3ef8360405162000276919062000b2b565b60405180910390a362000292600083836200029b60201b60201c565b5050565b505050565b505050565b6000604051905090565b600080fd5b600080fd5b600080fd5b600080fd5b6000601f19601f8301169050919050565b7f4e487b7100000000000000000000000000000000000000000000000000000000600052604160045260246000fd5b6200030982620002be565b810181811067ffffffffffffffff821117156200032b576200032a620002cf565b5b80604052505050565b600062000340620002a0565b90506200034e8282620002fe565b919050565b600067ffffffffffffffff821115620003715762000370620002cf565b5b6200037c82620002be565b9050602081019050919050565b60005b83811015620003a95780820151818401526020810190506200038c565b60008484015250505050565b6000620003cc620003c68462000353565b62000334565b905082815260208101848484011115620003eb57620003ea620002b9565b5b620003f884828562000389565b509392505050565b600082601f830112620004185762000417620002b4565b5b81516200042a848260208601620003b5565b91505092915050565b600060ff82169050919050565b6200044b8162000433565b81146200045757600080fd5b50565b6000815190506200046b8162000440565b92915050565b6000806000606084860312156200048d576200048c620002aa565b5b600084015167ffffffffffffffff811115620004ae57620004ad620002af565b5b620004bc8682870162000400565b935050602084015167ffffffffffffffff811115620004e057620004df620002af565b5b620004ee8682870162000400565b925050604062000501868287016200045a565b9150509250925092565b600081519050919050565b7f4e487b7100000000000000000000000000000000000000000000000000000000600052602260045260246000fd5b600060028204905060018216806200055e57607f821691505b60208210810362000574576200057362000516565b5b50919050565b60008190508160005260206000209050919050565b60006020601f8301049050919050565b600082821b905092915050565b600060088302620005de7fffffffffffffffffffffffffffffffffffffffffffffffffffffffffffffffff826200059f565b620005ea86836200059f565b95508019841693508086168417925050509392505050565b6000819050919050565b6000819050919050565b600062000637620006316200062b8462000602565b6200060c565b62000602565b9050919050565b6000819050919050565b620006538362000616565b6200066b62000662826200063e565b848454620005ac565b825550505050565b600090565b6200068262000673565b6200068f81848462000648565b505050565b5b81811015620006b757620006ab60008262000678565b60018101905062000695565b5050565b601f8211156200070657620006d0816200057a565b620006db846200058f565b81016020851015620006eb578190505b62000703620006fa856200058f565b83018262000694565b50505b505050565b600082821c905092915050565b60006200072b600019846008026200070b565b1980831691505092915050565b600062000746838362000718565b9150826002028217905092915050565b62000761826200050b565b67ffffffffffffffff8111156200077d576200077c620002cf565b5b62000789825462000545565b62000796828285620006bb565b600060209050601f831160018114620007ce5760008415620007b9578287015190505b620007c5858262000738565b86555062000835565b601f198416620007de866200057a565b60005b828110156200080857848901518255600182019150602085019450602081019050620007e1565b8683101562000828578489015162000824601f89168262000718565b8355505b6001600288020188555050505b505050505050565b7f4e487b7100000000000000000000000000000000000000000000000000000000600052601160045260246000fd5b60008160011c9050919050565b6000808291508390505b6001851115620008cb57808604811115620008a357620008a26200083d565b5b6001851615620008b35780820291505b8081029050620008c3856200086c565b945062000883565b94509492505050565b600082620008e65760019050620009b9565b81620008f65760009050620009b9565b81600181146200090f57600281146200091a5762000950565b6001915050620009b9565b60ff8411156200092f576200092e6200083d565b5b8360020a9150848211156200094957620009486200083d565b5b50620009b9565b5060208310610133831016604e8410600b84101617156200098a5782820a9050838111156200098457620009836200083d565b5b620009b9565b62000999848484600162000879565b92509050818404811115620009b357620009b26200083d565b5b81810290505b9392505050565b6000620009cd8262000602565b9150620009da8362000602565b925062000a097fffffffffffffffffffffffffffffffffffffffffffffffffffffffffffffffff8484620008d4565b905092915050565b600062000a1e8262000602565b915062000a2b8362000602565b925082820262000a3b8162000602565b9150828204841483151762000a555762000a546200083d565b5b5092915050565b600082825260208201905092915050565b7f45524332303a206d696e7420746f20746865207a65726f206164647265737300600082015250565b600062000aa5601f8362000a5c565b915062000ab28262000a6d565b602082019050919050565b6000602082019050818103600083015262000ad88162000a96565b9050919050565b600062000aec8262000602565b915062000af98362000602565b925082820190508082111562000b145762000b136200083d565b5b92915050565b62000b258162000602565b82525050565b600060208201905062000b42600083018462000b1a565b92915050565b61184d8062000b586000396000f3fe608060405234801561001057600080fd5b50600436106100cf5760003560e01c806340c10f191161008c57806395d89b411161006657806395d89b4114610226578063a457c2d714610244578063a9059cbb14610274578063dd62ed3e146102a4576100cf565b806340c10f19146101be57806342966c68146101da57806370a08231146101f6576100cf565b806306fdde03146100d4578063095ea7b3146100f257806318160ddd1461012257806323b872dd14610140578063313ce56714610170578063395093511461018e575b600080fd5b6100dc6102d4565b6040516100e99190610f6d565b60405180910390f35b61010c60048036038101906101079190611028565b610366565b6040516101199190611083565b60405180910390f35b61012a610389565b60405161013791906110ad565b60405180910390f35b61015a600480360381019061015591906110c8565b610393565b6040516101679190611083565b60405180910390f35b6101786103c2565b6040516101859190611137565b60405180910390f35b6101a860048036038101906101a39190611028565b610415565b6040516101b59190611083565b60405180910390f35b6101d860048036038101906101d39190611028565b61044c565b005b6101f460048036038101906101ef9190611152565b610496565b005b610210600480360381019061020b919061117f565b6104df565b60405161021d91906110ad565b60405180910390f35b61022e610527565b60405161023b9190610f6d565b60405180910390f35b61025e60048036038101906102599190611028565b6105b9565b60405161026b9190611083565b60405180910390f35b61028e60048036038101906102899190611028565b610630565b60405161029b9190611083565b60405180910390f35b6102be60048036038101906102b991906111ac565b610653565b6040516102cb91906110ad565b60405180910390f35b6060600380546102e39061121b565b80601f016020809104026020016040519081016040528092919081815260200182805461030f9061121b565b801561035c5780601f106103315761010080835404028352916020019161035c565b820191906000526020600020905b81548152906001019060200180831161033f57829003601f168201915b5050505050905090565b6000806103716106da565b905061037e8185856106e2565b600191505092915050565b6000600254905090565b60008061039e6106da565b90506103ab8582856108ab565b6103b6858585610937565b60019150509392505050565b60006103d86742d47d462d7d06a360c01b610bad565b6103ec676c67ddb9ea7ba9d060c01b610bad565b610400672cd8373b28138a2c60c01b610bad565b600560009054906101000a900460ff16905090565b6000806104206106da565b90506104418185856104328589610653565b61043c919061127b565b6106e2565b600191505092915050565b610460674dc6a91d812387e760c01b610bad565b610474673fba8556ab0e9bc760c01b610bad565b61048867027a8e97ed59850760c01b610bad565b6104928282610bb0565b5050565b6104aa676f013564e780a65b60c01b610bad565b6104be67479e20bd338df24660c01b610bad565b6104d2677012d8533606e6c960c01b610bad565b6104dc3382610d06565b50565b60008060008373ffffffffffffffffffffffffffffffffffffffff1673ffffffffffffffffffffffffffffffffffffffff168152602001908152602001600020549050919050565b6060600480546105369061121b565b80601f01602080910402602001604051908101604052809291908181526020018280546105629061121b565b80156105af5780601f10610584576101008083540402835291602001916105af565b820191906000526020600020905b81548152906001019060200180831161059257829003601f168201915b5050505050905090565b6000806105c46106da565b905060006105d28286610653565b905083811015610617576040517f08c379a000000000000000000000000000000000000000000000000000000000815260040161060e90611321565b60405180910390fd5b61062482868684036106e2565b60019250505092915050565b60008061063b6106da565b9050610648818585610937565b600191505092915050565b6000600160008473ffffffffffffffffffffffffffffffffffffffff1673ffffffffffffffffffffffffffffffffffffffff16815260200190815260200160002060008373ffffffffffffffffffffffffffffffffffffffff1673ffffffffffffffffffffffffffffffffffffffff16815260200190815260200160002054905092915050565b600033905090565b600073ffffffffffffffffffffffffffffffffffffffff168373ffffffffffffffffffffffffffffffffffffffff1603610751576040517f08c379a0000000000000000000000000000000000000000000000000000000008152600401610748906113b3565b60405180910390fd5b600073ffffffffffffffffffffffffffffffffffffffff168273ffffffffffffffffffffffffffffffffffffffff16036107c0576040517f08c379a00000000000000000000000000000000000000000000000000000000081526004016107b790611445565b60405180910390fd5b80600160008573ffffffffffffffffffffffffffffffffffffffff1673ffffffffffffffffffffffffffffffffffffffff16815260200190815260200160002060008473ffffffffffffffffffffffffffffffffffffffff1673ffffffffffffffffffffffffffffffffffffffff168152602001908152602001600020819055508173ffffffffffffffffffffffffffffffffffffffff168373ffffffffffffffffffffffffffffffffffffffff167f8c5be1e5ebec7d5bd14f71427d1e84f3dd0314c0f7b2291e5b200ac8c7c3b9258360405161089e91906110ad565b60405180910390a3505050565b60006108b78484610653565b90507fffffffffffffffffffffffffffffffffffffffffffffffffffffffffffffffff81146109315781811015610923576040517f08c379a000000000000000000000000000000000000000000000000000000000815260040161091a906114b1565b60405180910390fd5b61093084848484036106e2565b5b50505050565b600073ffffffffffffffffffffffffffffffffffffffff168373ffffffffffffffffffffffffffffffffffffffff16036109a6576040517f08c379a000000000000000000000000000000000000000000000000000000000815260040161099d90611543565b60405180910390fd5b600073ffffffffffffffffffffffffffffffffffffffff168273ffffffffffffffffffffffffffffffffffffffff1603610a15576040517f08c379a0000000000000000000000000000000000000000000000000000000008152600401610a0c906115d5565b60405180910390fd5b610a20838383610ed3565b60008060008573ffffffffffffffffffffffffffffffffffffffff1673ffffffffffffffffffffffffffffffffffffffff16815260200190815260200160002054905081811015610aa6576040517f08c379a0000000000000000000000000000000000000000000000000000000008152600401610a9d90611667565b60405180910390fd5b8181036000808673ffffffffffffffffffffffffffffffffffffffff1673ffffffffffffffffffffffffffffffffffffffff16815260200190815260200160002081905550816000808573ffffffffffffffffffffffffffffffffffffffff1673ffffffffffffffffffffffffffffffffffffffff168152602001908152602001600020600082825401925050819055508273ffffffffffffffffffffffffffffffffffffffff168473ffffffffffffffffffffffffffffffffffffffff167fddf252ad1be2c89b69c2b068fc378daa952ba7f163c4a11628f55a4df523b3ef84604051610b9491906110ad565b60405180910390a3610ba7848484610ed8565b50505050565b50565b600073ffffffffffffffffffffffffffffffffffffffff168273ffffffffffffffffffffffffffffffffffffffff1603610c1f576040517f08c379a0000000000000000000000000000000000000000000000000000000008152600401610c16906116d3565b60405180910390fd5b610c2b60008383610ed3565b8060026000828254610c3d919061127b565b92505081905550806000808473ffffffffffffffffffffffffffffffffffffffff1673ffffffffffffffffffffffffffffffffffffffff168152602001908152602001600020600082825401925050819055508173ffffffffffffffffffffffffffffffffffffffff16600073ffffffffffffffffffffffffffffffffffffffff167fddf252ad1be2c89b69c2b068fc378daa952ba7f163c4a11628f55a4df523b3ef83604051610cee91906110ad565b60405180910390a3610d0260008383610ed8565b5050565b600073ffffffffffffffffffffffffffffffffffffffff168273ffffffffffffffffffffffffffffffffffffffff1603610d75576040517f08c379a0000000000000000000000000000000000000000000000000000000008152600401610d6c90611765565b60405180910390fd5b610d8182600083610ed3565b60008060008473ffffffffffffffffffffffffffffffffffffffff1673ffffffffffffffffffffffffffffffffffffffff16815260200190815260200160002054905081811015610e07576040517f08c379a0000000000000000000000000000000000000000000000000000000008152600401610dfe906117f7565b60405180910390fd5b8181036000808573ffffffffffffffffffffffffffffffffffffffff1673ffffffffffffffffffffffffffffffffffffffff1681526020019081526020016000208190555081600260008282540392505081905550600073ffffffffffffffffffffffffffffffffffffffff168373ffffffffffffffffffffffffffffffffffffffff167fddf252ad1be2c89b69c2b068fc378daa952ba7f163c4a11628f55a4df523b3ef84604051610eba91906110ad565b60405180910390a3610ece83600084610ed8565b505050565b505050565b505050565b600081519050919050565b600082825260208201905092915050565b60005b83811015610f17578082015181840152602081019050610efc565b60008484015250505050565b6000601f19601f8301169050919050565b6000610f3f82610edd565b610f498185610ee8565b9350610f59818560208601610ef9565b610f6281610f23565b840191505092915050565b60006020820190508181036000830152610f878184610f34565b905092915050565b600080fd5b600073ffffffffffffffffffffffffffffffffffffffff82169050919050565b6000610fbf82610f94565b9050919050565b610fcf81610fb4565b8114610fda57600080fd5b50565b600081359050610fec81610fc6565b92915050565b6000819050919050565b61100581610ff2565b811461101057600080fd5b50565b60008135905061102281610ffc565b92915050565b6000806040838503121561103f5761103e610f8f565b5b600061104d85828601610fdd565b925050602061105e85828601611013565b9150509250929050565b60008115159050919050565b61107d81611068565b82525050565b60006020820190506110986000830184611074565b92915050565b6110a781610ff2565b82525050565b60006020820190506110c2600083018461109e565b92915050565b6000806000606084860312156110e1576110e0610f8f565b5b60006110ef86828701610fdd565b935050602061110086828701610fdd565b925050604061111186828701611013565b9150509250925092565b600060ff82169050919050565b6111318161111b565b82525050565b600060208201905061114c6000830184611128565b92915050565b60006020828403121561116857611167610f8f565b5b600061117684828501611013565b91505092915050565b60006020828403121561119557611194610f8f565b5b60006111a384828501610fdd565b91505092915050565b600080604083850312156111c3576111c2610f8f565b5b60006111d185828601610fdd565b92505060206111e285828601610fdd565b9150509250929050565b7f4e487b7100000000000000000000000000000000000000000000000000000000600052602260045260246000fd5b6000600282049050600182168061123357607f821691505b602082108103611246576112456111ec565b5b50919050565b7f4e487b7100000000000000000000000000000000000000000000000000000000600052601160045260246000fd5b600061128682610ff2565b915061129183610ff2565b92508282019050808211156112a9576112a861124c565b5b92915050565b7f45524332303a2064656372656173656420616c6c6f77616e63652062656c6f7760008201527f207a65726f000000000000000000000000000000000000000000000000000000602082015250565b600061130b602583610ee8565b9150611316826112af565b604082019050919050565b6000602082019050818103600083015261133a816112fe565b9050919050565b7f45524332303a20617070726f76652066726f6d20746865207a65726f2061646460008201527f7265737300000000000000000000000000000000000000000000000000000000602082015250565b600061139d602483610ee8565b91506113a882611341565b604082019050919050565b600060208201905081810360008301526113cc81611390565b9050919050565b7f45524332303a20617070726f766520746f20746865207a65726f20616464726560008201527f7373000000000000000000000000000000000000000000000000000000000000602082015250565b600061142f602283610ee8565b915061143a826113d3565b604082019050919050565b6000602082019050818103600083015261145e81611422565b9050919050565b7f45524332303a20696e73756666696369656e7420616c6c6f77616e6365000000600082015250565b600061149b601d83610ee8565b91506114a682611465565b602082019050919050565b600060208201905081810360008301526114ca8161148e565b9050919050565b7f45524332303a207472616e736665722066726f6d20746865207a65726f20616460008201527f6472657373000000000000000000000000000000000000000000000000000000602082015250565b600061152d602583610ee8565b9150611538826114d1565b604082019050919050565b6000602082019050818103600083015261155c81611520565b9050919050565b7f45524332303a207472616e7366657220746f20746865207a65726f206164647260008201527f6573730000000000000000000000000000000000000000000000000000000000602082015250565b60006115bf602383610ee8565b91506115ca82611563565b604082019050919050565b600060208201905081810360008301526115ee816115b2565b9050919050565b7f45524332303a207472616e7366657220616d6f756e742065786365656473206260008201527f616c616e63650000000000000000000000000000000000000000000000000000602082015250565b6000611651602683610ee8565b915061165c826115f5565b604082019050919050565b6000602082019050818103600083015261168081611644565b9050919050565b7f45524332303a206d696e7420746f20746865207a65726f206164647265737300600082015250565b60006116bd601f83610ee8565b91506116c882611687565b602082019050919050565b600060208201905081810360008301526116ec816116b0565b9050919050565b7f45524332303a206275726e2066726f6d20746865207a65726f2061646472657360008201527f7300000000000000000000000000000000000000000000000000000000000000602082015250565b600061174f602183610ee8565b915061175a826116f3565b604082019050919050565b6000602082019050818103600083015261177e81611742565b9050919050565b7f45524332303a206275726e20616d6f756e7420657863656564732062616c616e60008201527f6365000000000000000000000000000000000000000000000000000000000000602082015250565b60006117e1602283610ee8565b91506117ec82611785565b604082019050919050565b60006020820190508181036000830152611810816117d4565b905091905056fea2646970667358221220373a7c50c47efb609443cead4f0d8361e297157b9e71047b17b8408a5e42297164736f6c63430008130033",
  "linkReferences": {},
  "deployedLinkReferences": {}
}