{"contracts/Chiesa.sol":{"Chiesa":{"abi":[{"inputs":[{"internalType":"address","name":"_usdc","type":"address"},{"internalType":"address","name":"_aavePool","type":"address"},{"internalType":"address","name":"_gnosisSafe","type":"address"},{"internalType":"address","name":"_distributionLogic","type":"address"}],"stateMutability":"nonpayable","type":"constructor"},{"anonymous":false,"inputs":[{"indexed":true,"internalType":"address","name":"donor","type":"address"},{"indexed":false,"internalType":"uint256","name":"amount","type":"uint256"},{"indexed":false,"internalType":"uint256","name":"timestamp","type":"uint256"}],"name":"DonationReceived","type":"event"},{"anonymous":false,"inputs":[{"indexed":true,"internalType":"address","name":"previousOwner","type":"address"},{"indexed":true,"internalType":"address","name":"newOwner","type":"address"}],"name":"OwnershipTransferred","type":"event"},{"anonymous":false,"inputs":[{"indexed":false,"internalType":"address","name":"account","type":"address"}],"name":"Paused","type":"event"},{"anonymous":false,"inputs":[{"indexed":false,"internalType":"address","name":"account","type":"address"}],"name":"Unpaused","type":"event"},{"anonymous":false,"inputs":[{"indexed":true,"internalType":"address","name":"recipient","type":"address"},{"indexed":false,"internalType":"uint256","name":"amount","type":"uint256"},{"indexed":false,"internalType":"uint256","name":"timestamp","type":"uint256"}],"name":"WithdrawalExecuted","type":"event"},{"anonymous":false,"inputs":[{"indexed":false,"internalType":"uint256","name":"amount","type":"uint256"},{"indexed":true,"internalType":"address","name":"recipient","type":"address"},{"indexed":false,"internalType":"uint256","name":"timestamp","type":"uint256"}],"name":"YieldDistributed","type":"event"},{"inputs":[],"name":"aavePool","outputs":[{"internalType":"contract IAave","name":"","type":"address"}],"stateMutability":"view","type":"function"},{"inputs":[{"internalType":"uint256","name":"amount","type":"uint256"}],"name":"depositToAave","outputs":[],"stateMutability":"nonpayable","type":"function"},{"inputs":[],"name":"distributeYield","outputs":[],"stateMutability":"nonpayable","type":"function"},{"inputs":[],"name":"distributionLogic","outputs":[{"internalType":"contract DistributionLogic","name":"","type":"address"}],"stateMutability":"view","type":"function"},{"inputs":[{"internalType":"uint256","name":"amount","type":"uint256"}],"name":"donate","outputs":[],"stateMutability":"nonpayable","type":"function"},{"inputs":[{"internalType":"address","name":"","type":"address"}],"name":"donationsByUser","outputs":[{"internalType":"uint256","name":"","type":"uint256"}],"stateMutability":"view","type":"function"},{"inputs":[{"internalType":"uint256","name":"","type":"uint256"}],"name":"donors","outputs":[{"internalType":"address","name":"","type":"address"}],"stateMutability":"view","type":"function"},{"inputs":[],"name":"getDonorCount","outputs":[{"internalType":"uint256","name":"","type":"uint256"}],"stateMutability":"view","type":"function"},{"inputs":[],"name":"getDonors","outputs":[{"internalType":"address[]","name":"","type":"address[]"}],"stateMutability":"view","type":"function"},{"inputs":[{"internalType":"address","name":"user","type":"address"}],"name":"getUserDonation","outputs":[{"internalType":"uint256","name":"","type":"uint256"}],"stateMutability":"view","type":"function"},{"inputs":[],"name":"gnosisSafe","outputs":[{"internalType":"contract IGnosisSafe","name":"","type":"address"}],"stateMutability":"view","type":"function"},{"inputs":[{"internalType":"address","name":"","type":"address"}],"name":"lastDonationTime","outputs":[{"internalType":"uint256","name":"","type":"uint256"}],"stateMutability":"view","type":"function"},{"inputs":[],"name":"owner","outputs":[{"internalType":"address","name":"","type":"address"}],"stateMutability":"view","type":"function"},{"inputs":[],"name":"pause","outputs":[],"stateMutability":"nonpayable","type":"function"},{"inputs":[],"name":"paused","outputs":[{"internalType":"bool","name":"","type":"bool"}],"stateMutability":"view","type":"function"},{"inputs":[],"name":"renounceOwnership","outputs":[],"stateMutability":"nonpayable","type":"function"},{"inputs":[],"name":"totalDonations","outputs":[{"internalType":"uint256","name":"","type":"uint256"}],"stateMutability":"view","type":"function"},{"inputs":[],"name":"totalYieldGenerated","outputs":[{"internalType":"uint256","name":"","type":"uint256"}],"stateMutability":"view","type":"function"},{"inputs":[{"internalType":"address","name":"newOwner","type":"address"}],"name":"transferOwnership","outputs":[],"stateMutability":"nonpayable","type":"function"},{"inputs":[],"name":"unpause","outputs":[],"stateMutability":"nonpayable","type":"function"},{"inputs":[],"name":"usdc","outputs":[{"internalType":"contract IERC20","name":"","type":"address"}],"stateMutability":"view","type":"function"},{"inputs":[{"internalType":"uint256","name":"amount","type":"uint256"}],"name":"withdrawYield","outputs":[],"stateMutability":"nonpayable","type":"function"},{"inputs":[],"name":"yieldDistributedToChurch","outputs":[{"internalType":"uint256","name":"","type":"uint256"}],"stateMutability":"view","type":"function"}],"evm":{"bytecode":{"linkReferences":{},"object":"60806040523480156200001157600080fd5b506040516200341a3803806200341a8339818101604052810190620000379190620006d4565b620000576200004b6200059b60201b60201c565b620005a360201b60201c565b600180819055506000600260006101000a81548160ff02191690831515021790555062000095671f421dcd6535b33260c01b6200066760201b60201c565b620000b167cc6f18362f60844660c01b6200066760201b60201c565b620000cd67d913684c740a8bd560c01b6200066760201b60201c565b620000e96741be1b3880d5afc460c01b6200066760201b60201c565b600073ffffffffffffffffffffffffffffffffffffffff168473ffffffffffffffffffffffffffffffffffffffff16036200015b576040517f08c379a00000000000000000000000000000000000000000000000000000000081526004016200015290620007a7565b60405180910390fd5b62000177673ade25123dad2c4760c01b6200066760201b60201c565b62000193672f11ba3177733d3360c01b6200066760201b60201c565b620001af679035e4413db97b0f60c01b6200066760201b60201c565b620001cb67cd526145ae2b1c9460c01b6200066760201b60201c565b600073ffffffffffffffffffffffffffffffffffffffff168373ffffffffffffffffffffffffffffffffffffffff16036200023d576040517f08c379a0000000000000000000000000000000000000000000000000000000008152600401620002349062000819565b60405180910390fd5b62000259674f71ddee6beb177560c01b6200066760201b60201c565b620002756721f5049a2fcc78d760c01b6200066760201b60201c565b6200029167140b8d64321dba9560c01b6200066760201b60201c565b620002ad67f418bebeefe1a08d60c01b6200066760201b60201c565b600073ffffffffffffffffffffffffffffffffffffffff168273ffffffffffffffffffffffffffffffffffffffff16036200031f576040517f08c379a000000000000000000000000000000000000000000000000000000000815260040162000316906200088b565b60405180910390fd5b6200033b678017a36e2017849160c01b6200066760201b60201c565b6200035767863df66cf507626b60c01b6200066760201b60201c565b6200037367db088293ecbe22d760c01b6200066760201b60201c565b6200038f6773079df3eb7d3abc60c01b6200066760201b60201c565b600073ffffffffffffffffffffffffffffffffffffffff168173ffffffffffffffffffffffffffffffffffffffff160362000401576040517f08c379a0000000000000000000000000000000000000000000000000000000008152600401620003f89062000923565b60405180910390fd5b6200041d6727a5d72ee10f112160c01b6200066760201b60201c565b62000439671aadd0660fa9019160c01b6200066760201b60201c565b83600260016101000a81548173ffffffffffffffffffffffffffffffffffffffff021916908373ffffffffffffffffffffffffffffffffffffffff160217905550620004966774b02f8006c5d29e60c01b6200066760201b60201c565b82600360006101000a81548173ffffffffffffffffffffffffffffffffffffffff021916908373ffffffffffffffffffffffffffffffffffffffff160217905550620004f367a08de84ace111b4b60c01b6200066760201b60201c565b81600460006101000a81548173ffffffffffffffffffffffffffffffffffffffff021916908373ffffffffffffffffffffffffffffffffffffffff1602179055506200055067e28cda5e195b14c060c01b6200066760201b60201c565b80600560006101000a81548173ffffffffffffffffffffffffffffffffffffffff021916908373ffffffffffffffffffffffffffffffffffffffff1602179055505050505062000945565b600033905090565b60008060009054906101000a900473ffffffffffffffffffffffffffffffffffffffff169050816000806101000a81548173ffffffffffffffffffffffffffffffffffffffff021916908373ffffffffffffffffffffffffffffffffffffffff1602179055508173ffffffffffffffffffffffffffffffffffffffff168173ffffffffffffffffffffffffffffffffffffffff167f8be0079c531659141344cd1fd0a4f28419497f9722a3daafe3b4186f6b6457e060405160405180910390a35050565b50565b600080fd5b600073ffffffffffffffffffffffffffffffffffffffff82169050919050565b60006200069c826200066f565b9050919050565b620006ae816200068f565b8114620006ba57600080fd5b50565b600081519050620006ce81620006a3565b92915050565b60008060008060808587031215620006f157620006f06200066a565b5b60006200070187828801620006bd565b94505060206200071487828801620006bd565b93505060406200072787828801620006bd565b92505060606200073a87828801620006bd565b91505092959194509250565b600082825260208201905092915050565b7f496e76616c696420555344432061646472657373000000000000000000000000600082015250565b60006200078f60148362000746565b91506200079c8262000757565b602082019050919050565b60006020820190508181036000830152620007c28162000780565b9050919050565b7f496e76616c6964204161766520706f6f6c206164647265737300000000000000600082015250565b60006200080160198362000746565b91506200080e82620007c9565b602082019050919050565b600060208201905081810360008301526200083481620007f2565b9050919050565b7f496e76616c696420476e6f736973205361666520616464726573730000000000600082015250565b600062000873601b8362000746565b915062000880826200083b565b602082019050919050565b60006020820190508181036000830152620008a68162000864565b9050919050565b7f496e76616c696420646973747269627574696f6e206c6f67696320616464726560008201527f7373000000000000000000000000000000000000000000000000000000000000602082015250565b60006200090b60228362000746565b91506200091882620008ad565b604082019050919050565b600060208201905081810360008301526200093e81620008fc565b9050919050565b612ac580620009556000396000f3fe608060405234801561001057600080fd5b506004361061014c5760003560e01c80638a570a12116100c3578063ab31978f1161007c578063ab31978f14610333578063ba5f19fd1461034f578063bbeaeadd1461036d578063de2ed8931461039d578063f14faf6f146103bb578063f2fde38b146103d75761014c565b80638a570a12146102935780638c8250561461029d5780638da5cb5b146102bb57806396f300d4146102d9578063a03e4bc3146102f7578063a84173ae146103155761014c565b80634abfa163116101155780634abfa163146101f75780635c975abb1461022757806368fd2d801461024557806369bc2f1e14610261578063715018a61461027f5780638456cb59146102895761014c565b80628d14b61461015157806305a50ce3146101815780631faaa3151461019f5780633e413bee146101cf5780633f4ba83a146101ed575b600080fd5b61016b60048036038101906101669190611c70565b6103f3565b6040516101789190611cb6565b60405180910390f35b61018961040b565b6040516101969190611d30565b60405180910390f35b6101b960048036038101906101b49190611c70565b610431565b6040516101c69190611cb6565b60405180910390f35b6101d76104b6565b6040516101e49190611d6c565b60405180910390f35b6101f56104dc565b005b610211600480360381019061020c9190611db3565b610552565b60405161021e9190611def565b60405180910390f35b61022f610591565b60405161023c9190611e25565b60405180910390f35b61025f600480360381019061025a9190611db3565b6105a8565b005b6102696108e9565b6040516102769190611cb6565b60405180910390f35b610287610932565b005b610291610946565b005b61029b6109bc565b005b6102a5610f09565b6040516102b29190611cb6565b60405180910390f35b6102c3610f0f565b6040516102d09190611def565b60405180910390f35b6102e1610f38565b6040516102ee9190611efe565b60405180910390f35b6102ff611002565b60405161030c9190611f41565b60405180910390f35b61031d611028565b60405161032a9190611f7d565b60405180910390f35b61034d60048036038101906103489190611db3565b61104e565b005b610357611311565b6040516103649190611cb6565b60405180910390f35b61038760048036038101906103829190611c70565b611317565b6040516103949190611cb6565b60405180910390f35b6103a561132f565b6040516103b29190611cb6565b60405180910390f35b6103d560048036038101906103d09190611db3565b611335565b005b6103f160048036038101906103ec9190611c70565b61187d565b005b600a6020528060005260406000206000915090505481565b600560009054906101000a900473ffffffffffffffffffffffffffffffffffffffff1681565b600061044767af227d94ef5be1de60c01b611900565b61045b67a778b4ad754da24c60c01b611900565b61046f67578c16d0a5f6667b60c01b611900565b600960008373ffffffffffffffffffffffffffffffffffffffff1673ffffffffffffffffffffffffffffffffffffffff168152602001908152602001600020549050919050565b600260019054906101000a900473ffffffffffffffffffffffffffffffffffffffff1681565b6104f0672d7735016b8f5cbc60c01b611900565b6104f8611903565b61050c67b2a85901e4e524df60c01b611900565b61052067d04b9fb5b4aeea9960c01b611900565b610534676e31399c36e70db460c01b611900565b61054867f63835465e4c6ef660c01b611900565b610550611981565b565b600b818154811061056257600080fd5b906000526020600020016000915054906101000a900473ffffffffffffffffffffffffffffffffffffffff1681565b6000600260009054906101000a900460ff16905090565b6105bc674d52a8e7f84b30d260c01b611900565b6105c4611903565b6105d8672767281f0461290c60c01b611900565b6105ec6714b98a3c496f0b8660c01b611900565b6105f46119e4565b6106086747ce958724f615a760c01b611900565b61061c678efb3b80d1cbafc560c01b611900565b610630677bd03e05d5b3841160c01b611900565b61064467c7817c227c962bed60c01b611900565b61065867c3ba979761f50d2f60c01b611900565b6000811161069b576040517f08c379a000000000000000000000000000000000000000000000000000000000815260040161069290611ff5565b60405180910390fd5b6106af6743bde94db544ff9160c01b611900565b6106c3671cc0569d0aab3d2960c01b611900565b6106d767c23727d2c63c5e8660c01b611900565b6106eb672763e5ff77e0384f60c01b611900565b600260019054906101000a900473ffffffffffffffffffffffffffffffffffffffff1673ffffffffffffffffffffffffffffffffffffffff1663095ea7b3600360009054906101000a900473ffffffffffffffffffffffffffffffffffffffff16836040518363ffffffff1660e01b815260040161076a929190612015565b6020604051808303816000875af1158015610789573d6000803e3d6000fd5b505050506040513d601f19601f820116820180604052508101906107ad919061206a565b6107ec576040517f08c379a00000000000000000000000000000000000000000000000000000000081526004016107e3906120e3565b60405180910390fd5b61080067daad74a78799406860c01b611900565b610814678c508c063d33cf5160c01b611900565b61082867d6f133e3f68faf5460c01b611900565b600360009054906101000a900473ffffffffffffffffffffffffffffffffffffffff1673ffffffffffffffffffffffffffffffffffffffff1663e8eda9df600260019054906101000a900473ffffffffffffffffffffffffffffffffffffffff16833060006040518563ffffffff1660e01b81526004016108ac949392919061214c565b600060405180830381600087803b1580156108c657600080fd5b505af11580156108da573d6000803e3d6000fd5b505050506108e6611a33565b50565b60006108ff67758a3ab9a8154d3160c01b611900565b61091367a715c35dd37539fe60c01b611900565b61092767e310597f910122eb60c01b611900565b600b80549050905090565b61093a611903565b6109446000611a3c565b565b61095a67f331df42a043292b60c01b611900565b610962611903565b6109766772e160d4e8ed72e560c01b611900565b61098a674f52152a9e96b4f860c01b611900565b61099e67583372628cfc410b60c01b611900565b6109b26737fe324078283c6060c01b611900565b6109ba611b00565b565b6109d0678cb308efde4ce0ab60c01b611900565b6109d8611903565b6109ec679b5b04323184766860c01b611900565b610a0067d242b0481ac64b7060c01b611900565b610a086119e4565b610a1c67f93278d19a062a1b60c01b611900565b610a306702881089109f5c7060c01b611900565b610a446739b5fb5e18b1386960c01b611900565b610a5867427f2c8a67f036fd60c01b611900565b6000600260019054906101000a900473ffffffffffffffffffffffffffffffffffffffff1673ffffffffffffffffffffffffffffffffffffffff166370a08231306040518263ffffffff1660e01b8152600401610ab59190611def565b602060405180830381865afa158015610ad2573d6000803e3d6000fd5b505050506040513d601f19601f82011682018060405250810190610af691906121a6565b9050610b0c67593963d16a2bae2860c01b611900565b610b20670a838c525f92245260c01b611900565b610b3467ae83357370940fcc60c01b611900565b60008111610b77576040517f08c379a0000000000000000000000000000000000000000000000000000000008152600401610b6e9061221f565b60405180910390fd5b610b8b6762e1766d9eff827160c01b611900565b610b9f675ad58494afb1835660c01b611900565b610bb367fbc2ac93d37f075560c01b611900565b600080600560009054906101000a900473ffffffffffffffffffffffffffffffffffffffff1673ffffffffffffffffffffffffffffffffffffffff166384ff1d3e84600b6040518363ffffffff1660e01b8152600401610c1492919061232b565b600060405180830381865afa158015610c31573d6000803e3d6000fd5b505050506040513d6000823e3d601f19601f82011682018060405250810190610c5a919061258c565b91509150610c7267af374b4a8e7ce1c360c01b611900565b610c86679102b0889ca5b4b460c01b611900565b60005b8251811015610efb57610ca6677f5cb86117d0126560c01b611900565b610cba67cf3bf3875d5dd37160c01b611900565b610cce67714fd2a28aa0e47760c01b611900565b600260019054906101000a900473ffffffffffffffffffffffffffffffffffffffff1673ffffffffffffffffffffffffffffffffffffffff1663a9059cbb848381518110610d1f57610d1e612604565b5b6020026020010151848481518110610d3a57610d39612604565b5b60200260200101516040518363ffffffff1660e01b8152600401610d5f929190612015565b6020604051808303816000875af1158015610d7e573d6000803e3d6000fd5b505050506040513d601f19601f82011682018060405250810190610da2919061206a565b610de1576040517f08c379a0000000000000000000000000000000000000000000000000000000008152600401610dd89061267f565b60405180910390fd5b610df567f82901ecb6321ff860c01b611900565b610e0967b7586151089c806b60c01b611900565b818181518110610e1c57610e1b612604565b5b602002602001015160086000828254610e3591906126ce565b92505081905550610e5067cd70611973631b5f60c01b611900565b610e64676b41bb28cc5184fd60c01b611900565b828181518110610e7757610e76612604565b5b602002602001015173ffffffffffffffffffffffffffffffffffffffff167f4c44bdc7c4678ac452a89c8b93511eb6592ff47a3660c4d6bb1847e957308acf838381518110610ec957610ec8612604565b5b602002602001015142604051610ee0929190612702565b60405180910390a28080610ef39061272b565b915050610c89565b50505050610f07611a33565b565b60075481565b60008060009054906101000a900473ffffffffffffffffffffffffffffffffffffffff16905090565b6060610f4e67a92da3c11a73d69060c01b611900565b610f626735af4bb85169df8c60c01b611900565b610f7667f3f0c0885fa1f94f60c01b611900565b600b805480602002602001604051908101604052809291908181526020018280548015610ff857602002820191906000526020600020905b8160009054906101000a900473ffffffffffffffffffffffffffffffffffffffff1673ffffffffffffffffffffffffffffffffffffffff1681526020019060010190808311610fae575b5050505050905090565b600360009054906101000a900473ffffffffffffffffffffffffffffffffffffffff1681565b600460009054906101000a900473ffffffffffffffffffffffffffffffffffffffff1681565b61106267986738d3c76d05c260c01b611900565b61106a611903565b61107e673ba056778ef606d960c01b611900565b61109267d5b107106617c57060c01b611900565b61109a6119e4565b6110ae67cbf76476fc78b6ed60c01b611900565b6110c2679955fad00bbc41a160c01b611900565b6110d667a3e30406df1eb2a860c01b611900565b6110ea6789b18a1b1ccd43c260c01b611900565b6110fe67f32e960047dae78f60c01b611900565b60008111611141576040517f08c379a000000000000000000000000000000000000000000000000000000000815260040161113890611ff5565b60405180910390fd5b61115567abd43af76e9289c860c01b611900565b6111696780c7c17b257bc18160c01b611900565b61117d673d71d89d81bb76fa60c01b611900565b6000600360009054906101000a900473ffffffffffffffffffffffffffffffffffffffff1673ffffffffffffffffffffffffffffffffffffffff166369328dec600260019054906101000a900473ffffffffffffffffffffffffffffffffffffffff1684306040518463ffffffff1660e01b815260040161120093929190612773565b6020604051808303816000875af115801561121f573d6000803e3d6000fd5b505050506040513d601f19601f8201168201806040525081019061124391906121a6565b905061125967310ed4b19ebb6ef460c01b611900565b61126d67eb940dec854bf1d960c01b611900565b611281675e6dfe70f5c8b06a60c01b611900565b600081116112c4576040517f08c379a00000000000000000000000000000000000000000000000000000000081526004016112bb906127f6565b60405180910390fd5b6112d86749b2b4b1e08d11fc60c01b611900565b6112ec67344fa4ec7521ab5260c01b611900565b80600760008282546112fe91906126ce565b925050819055505061130e611a33565b50565b60085481565b60096020528060005260406000206000915090505481565b60065481565b611349679a6d290a942f4b9460c01b611900565b6113516119e4565b61136567b49dc1862227a67460c01b611900565b61137967d4663567bce24fbb60c01b611900565b611381611b63565b6113956737e797a9213e14d660c01b611900565b6113a967be23a836189774b560c01b611900565b6113bd675cc9693aea2df00160c01b611900565b6113d1672bfc369a7366f98e60c01b611900565b6113e567a7e971aca6ac7fe160c01b611900565b60008111611428576040517f08c379a000000000000000000000000000000000000000000000000000000000815260040161141f90611ff5565b60405180910390fd5b61143c67293f0ec3ff0dcfee60c01b611900565b61145067251063d0ff51f0d060c01b611900565b6114646701c49159740db06d60c01b611900565b611478676d0fd02e47cf2eae60c01b611900565b600260019054906101000a900473ffffffffffffffffffffffffffffffffffffffff1673ffffffffffffffffffffffffffffffffffffffff166323b872dd3330846040518463ffffffff1660e01b81526004016114d793929190612816565b6020604051808303816000875af11580156114f6573d6000803e3d6000fd5b505050506040513d601f19601f8201168201806040525081019061151a919061206a565b611559576040517f08c379a00000000000000000000000000000000000000000000000000000000081526004016115509061267f565b60405180910390fd5b61156d67414dac292e95a83360c01b611900565b61158167f6a4f28893c88ee760c01b611900565b61159567c5b6cad594a2521960c01b611900565b600c60003373ffffffffffffffffffffffffffffffffffffffff1673ffffffffffffffffffffffffffffffffffffffff16815260200190815260200160002060009054906101000a900460ff166116f6576115fa67da553f9b8013b0d460c01b611900565b61160e67a03637f7545f378a60c01b611900565b6001600c60003373ffffffffffffffffffffffffffffffffffffffff1673ffffffffffffffffffffffffffffffffffffffff16815260200190815260200160002060006101000a81548160ff02191690831515021790555061167a6719fa2095da6e55e360c01b611900565b61168e6787ceff20697b903960c01b611900565b600b339080600181540180825580915050600190039060005260206000200160009091909190916101000a81548173ffffffffffffffffffffffffffffffffffffffff021916908373ffffffffffffffffffffffffffffffffffffffff16021790555061170b565b61170a677cba8226dd57562c60c01b611900565b5b61171f6749407d6527314c8c60c01b611900565b80600960003373ffffffffffffffffffffffffffffffffffffffff1673ffffffffffffffffffffffffffffffffffffffff168152602001908152602001600020600082825461176e91906126ce565b92505081905550611789677d0f33072fb4abd560c01b611900565b42600a60003373ffffffffffffffffffffffffffffffffffffffff1673ffffffffffffffffffffffffffffffffffffffff168152602001908152602001600020819055506117e16743de3c4de08635aa60c01b611900565b80600660008282546117f391906126ce565b9250508190555061180e67ead0c4d05389469060c01b611900565b61182267a71e5ab73715ce4360c01b611900565b3373ffffffffffffffffffffffffffffffffffffffff167f4b0304ab2f313234b1cea012339c8f8c3bf2c8bb357d81a579cfdb35d2e3d030824260405161186a929190612702565b60405180910390a261187a611a33565b50565b611885611903565b600073ffffffffffffffffffffffffffffffffffffffff168173ffffffffffffffffffffffffffffffffffffffff16036118f4576040517f08c379a00000000000000000000000000000000000000000000000000000000081526004016118eb906128bf565b60405180910390fd5b6118fd81611a3c565b50565b50565b61190b611bad565b73ffffffffffffffffffffffffffffffffffffffff16611929610f0f565b73ffffffffffffffffffffffffffffffffffffffff161461197f576040517f08c379a00000000000000000000000000000000000000000000000000000000081526004016119769061292b565b60405180910390fd5b565b611989611bb5565b6000600260006101000a81548160ff0219169083151502179055507f5db9ee0a495bf2e6ff9c91a7834c1ba4fdd244a5e8aa4e537bd38aeae4b073aa6119cd611bad565b6040516119da9190611def565b60405180910390a1565b600260015403611a29576040517f08c379a0000000000000000000000000000000000000000000000000000000008152600401611a2090612997565b60405180910390fd5b6002600181905550565b60018081905550565b60008060009054906101000a900473ffffffffffffffffffffffffffffffffffffffff169050816000806101000a81548173ffffffffffffffffffffffffffffffffffffffff021916908373ffffffffffffffffffffffffffffffffffffffff1602179055508173ffffffffffffffffffffffffffffffffffffffff168173ffffffffffffffffffffffffffffffffffffffff167f8be0079c531659141344cd1fd0a4f28419497f9722a3daafe3b4186f6b6457e060405160405180910390a35050565b611b08611b63565b6001600260006101000a81548160ff0219169083151502179055507f62e78cea01bee320cd4e420270b5ea74000d11b0c9f74754ebdbfc544b05a258611b4c611bad565b604051611b599190611def565b60405180910390a1565b611b6b610591565b15611bab576040517f08c379a0000000000000000000000000000000000000000000000000000000008152600401611ba290612a03565b60405180910390fd5b565b600033905090565b611bbd610591565b611bfc576040517f08c379a0000000000000000000000000000000000000000000000000000000008152600401611bf390612a6f565b60405180910390fd5b565b6000604051905090565b600080fd5b600080fd5b600073ffffffffffffffffffffffffffffffffffffffff82169050919050565b6000611c3d82611c12565b9050919050565b611c4d81611c32565b8114611c5857600080fd5b50565b600081359050611c6a81611c44565b92915050565b600060208284031215611c8657611c85611c08565b5b6000611c9484828501611c5b565b91505092915050565b6000819050919050565b611cb081611c9d565b82525050565b6000602082019050611ccb6000830184611ca7565b92915050565b6000819050919050565b6000611cf6611cf1611cec84611c12565b611cd1565b611c12565b9050919050565b6000611d0882611cdb565b9050919050565b6000611d1a82611cfd565b9050919050565b611d2a81611d0f565b82525050565b6000602082019050611d456000830184611d21565b92915050565b6000611d5682611cfd565b9050919050565b611d6681611d4b565b82525050565b6000602082019050611d816000830184611d5d565b92915050565b611d9081611c9d565b8114611d9b57600080fd5b50565b600081359050611dad81611d87565b92915050565b600060208284031215611dc957611dc8611c08565b5b6000611dd784828501611d9e565b91505092915050565b611de981611c32565b82525050565b6000602082019050611e046000830184611de0565b92915050565b60008115159050919050565b611e1f81611e0a565b82525050565b6000602082019050611e3a6000830184611e16565b92915050565b600081519050919050565b600082825260208201905092915050565b6000819050602082019050919050565b611e7581611c32565b82525050565b6000611e878383611e6c565b60208301905092915050565b6000602082019050919050565b6000611eab82611e40565b611eb58185611e4b565b9350611ec083611e5c565b8060005b83811015611ef1578151611ed88882611e7b565b9750611ee383611e93565b925050600181019050611ec4565b5085935050505092915050565b60006020820190508181036000830152611f188184611ea0565b905092915050565b6000611f2b82611cfd565b9050919050565b611f3b81611f20565b82525050565b6000602082019050611f566000830184611f32565b92915050565b6000611f6782611cfd565b9050919050565b611f7781611f5c565b82525050565b6000602082019050611f926000830184611f6e565b92915050565b600082825260208201905092915050565b7f416d6f756e74206d7573742062652067726561746572207468616e2030000000600082015250565b6000611fdf601d83611f98565b9150611fea82611fa9565b602082019050919050565b6000602082019050818103600083015261200e81611fd2565b9050919050565b600060408201905061202a6000830185611de0565b6120376020830184611ca7565b9392505050565b61204781611e0a565b811461205257600080fd5b50565b6000815190506120648161203e565b92915050565b6000602082840312156120805761207f611c08565b5b600061208e84828501612055565b91505092915050565b7f417070726f76616c206661696c65640000000000000000000000000000000000600082015250565b60006120cd600f83611f98565b91506120d882612097565b602082019050919050565b600060208201905081810360008301526120fc816120c0565b9050919050565b6000819050919050565b600061ffff82169050919050565b600061213661213161212c84612103565b611cd1565b61210d565b9050919050565b6121468161211b565b82525050565b60006080820190506121616000830187611de0565b61216e6020830186611ca7565b61217b6040830185611de0565b612188606083018461213d565b95945050505050565b6000815190506121a081611d87565b92915050565b6000602082840312156121bc576121bb611c08565b5b60006121ca84828501612191565b91505092915050565b7f4e6f2062616c616e636520746f20646973747269627574650000000000000000600082015250565b6000612209601883611f98565b9150612214826121d3565b602082019050919050565b60006020820190508181036000830152612238816121fc565b9050919050565b600081549050919050565b60008190508160005260206000209050919050565b60008160001c9050919050565b600073ffffffffffffffffffffffffffffffffffffffff82169050919050565b600061229f61229a8361225f565b61226c565b9050919050565b60006122b2825461228c565b9050919050565b6000600182019050919050565b60006122d18261223f565b6122db8185611e4b565b93506122e68361224a565b8060005b8381101561231e576122fb826122a6565b6123058882611e7b565b9750612310836122b9565b9250506001810190506122ea565b5085935050505092915050565b60006040820190506123406000830185611ca7565b818103602083015261235281846122c6565b90509392505050565b600080fd5b6000601f19601f8301169050919050565b7f4e487b7100000000000000000000000000000000000000000000000000000000600052604160045260246000fd5b6123a982612360565b810181811067ffffffffffffffff821117156123c8576123c7612371565b5b80604052505050565b60006123db611bfe565b90506123e782826123a0565b919050565b600067ffffffffffffffff82111561240757612406612371565b5b602082029050602081019050919050565b600080fd5b60008151905061242c81611c44565b92915050565b6000612445612440846123ec565b6123d1565b9050808382526020820190506020840283018581111561246857612467612418565b5b835b81811015612491578061247d888261241d565b84526020840193505060208101905061246a565b5050509392505050565b600082601f8301126124b0576124af61235b565b5b81516124c0848260208601612432565b91505092915050565b600067ffffffffffffffff8211156124e4576124e3612371565b5b602082029050602081019050919050565b6000612508612503846124c9565b6123d1565b9050808382526020820190506020840283018581111561252b5761252a612418565b5b835b8181101561255457806125408882612191565b84526020840193505060208101905061252d565b5050509392505050565b600082601f8301126125735761257261235b565b5b81516125838482602086016124f5565b91505092915050565b600080604083850312156125a3576125a2611c08565b5b600083015167ffffffffffffffff8111156125c1576125c0611c0d565b5b6125cd8582860161249b565b925050602083015167ffffffffffffffff8111156125ee576125ed611c0d565b5b6125fa8582860161255e565b9150509250929050565b7f4e487b7100000000000000000000000000000000000000000000000000000000600052603260045260246000fd5b7f5472616e73666572206661696c65640000000000000000000000000000000000600082015250565b6000612669600f83611f98565b915061267482612633565b602082019050919050565b600060208201905081810360008301526126988161265c565b9050919050565b7f4e487b7100000000000000000000000000000000000000000000000000000000600052601160045260246000fd5b60006126d982611c9d565b91506126e483611c9d565b92508282019050808211156126fc576126fb61269f565b5b92915050565b60006040820190506127176000830185611ca7565b6127246020830184611ca7565b9392505050565b600061273682611c9d565b91507fffffffffffffffffffffffffffffffffffffffffffffffffffffffffffffffff82036127685761276761269f565b5b600182019050919050565b60006060820190506127886000830186611de0565b6127956020830185611ca7565b6127a26040830184611de0565b949350505050565b7f5769746864726177616c206661696c6564000000000000000000000000000000600082015250565b60006127e0601183611f98565b91506127eb826127aa565b602082019050919050565b6000602082019050818103600083015261280f816127d3565b9050919050565b600060608201905061282b6000830186611de0565b6128386020830185611de0565b6128456040830184611ca7565b949350505050565b7f4f776e61626c653a206e6577206f776e657220697320746865207a65726f206160008201527f6464726573730000000000000000000000000000000000000000000000000000602082015250565b60006128a9602683611f98565b91506128b48261284d565b604082019050919050565b600060208201905081810360008301526128d88161289c565b9050919050565b7f4f776e61626c653a2063616c6c6572206973206e6f7420746865206f776e6572600082015250565b6000612915602083611f98565b9150612920826128df565b602082019050919050565b6000602082019050818103600083015261294481612908565b9050919050565b7f5265656e7472616e637947756172643a207265656e7472616e742063616c6c00600082015250565b6000612981601f83611f98565b915061298c8261294b565b602082019050919050565b600060208201905081810360008301526129b081612974565b9050919050565b7f5061757361626c653a2070617573656400000000000000000000000000000000600082015250565b60006129ed601083611f98565b91506129f8826129b7565b602082019050919050565b60006020820190508181036000830152612a1c816129e0565b9050919050565b7f5061757361626c653a206e6f7420706175736564000000000000000000000000600082015250565b6000612a59601483611f98565b9150612a6482612a23565b602082019050919050565b60006020820190508181036000830152612a8881612a4c565b905091905056fea2646970667358221220c05fac88c5383a566172a763ad8c12007f5431fd279b47a89bb4f5f0aa1fca9664736f6c63430008130033","opcodes":"PUSH1 0x80 PUSH1 0x40 MSTORE CALLVALUE DUP1 ISZERO PUSH3 0x11 JUMPI PUSH1 0x0 DUP1 REVERT JUMPDEST POP PUSH1 0x40 MLOAD PUSH3 0x341A CODESIZE SUB DUP1 PUSH3 0x341A DUP4 CODECOPY DUP2 DUP2 ADD PUSH1 0x40 MSTORE DUP2 ADD SWAP1 PUSH3 0x37 SWAP2 SWAP1 PUSH3 0x6D4 JUMP JUMPDEST PUSH3 0x57 PUSH3 0x4B PUSH3 0x59B PUSH1 0x20 SHL PUSH1 0x20 SHR JUMP JUMPDEST PUSH3 0x5A3 PUSH1 0x20 SHL PUSH1 0x20 SHR JUMP JUMPDEST PUSH1 0x1 DUP1 DUP2 SWAP1 SSTORE POP PUSH1 0x0 PUSH1 0x2 PUSH1 0x0 PUSH2 0x100 EXP DUP2 SLOAD DUP2 PUSH1 0xFF MUL NOT AND SWAP1 DUP4 ISZERO ISZERO MUL OR SWAP1 SSTORE POP PUSH3 0x95 PUSH8 0x1F421DCD6535B332 PUSH1 0xC0 SHL PUSH3 0x667 PUSH1 0x20 SHL PUSH1 0x20 SHR JUMP JUMPDEST PUSH3 0xB1 PUSH8 0xCC6F18362F608446 PUSH1 0xC0 SHL PUSH3 0x667 PUSH1 0x20 SHL PUSH1 0x20 SHR JUMP JUMPDEST PUSH3 0xCD PUSH8 0xD913684C740A8BD5 PUSH1 0xC0 SHL PUSH3 0x667 PUSH1 0x20 SHL PUSH1 0x20 SHR JUMP JUMPDEST PUSH3 0xE9 PUSH8 0x41BE1B3880D5AFC4 PUSH1 0xC0 SHL PUSH3 0x667 PUSH1 0x20 SHL PUSH1 0x20 SHR JUMP JUMPDEST PUSH1 0x0 PUSH20 0xFFFFFFFFFFFFFFFFFFFFFFFFFFFFFFFFFFFFFFFF AND DUP5 PUSH20 0xFFFFFFFFFFFFFFFFFFFFFFFFFFFFFFFFFFFFFFFF AND SUB PUSH3 0x15B JUMPI PUSH1 0x40 MLOAD PUSH32 0x8C379A000000000000000000000000000000000000000000000000000000000 DUP2 MSTORE PUSH1 0x4 ADD PUSH3 0x152 SWAP1 PUSH3 0x7A7 JUMP JUMPDEST PUSH1 0x40 MLOAD DUP1 SWAP2 SUB SWAP1 REVERT JUMPDEST PUSH3 0x177 PUSH8 0x3ADE25123DAD2C47 PUSH1 0xC0 SHL PUSH3 0x667 PUSH1 0x20 SHL PUSH1 0x20 SHR JUMP JUMPDEST PUSH3 0x193 PUSH8 0x2F11BA3177733D33 PUSH1 0xC0 SHL PUSH3 0x667 PUSH1 0x20 SHL PUSH1 0x20 SHR JUMP JUMPDEST PUSH3 0x1AF PUSH8 0x9035E4413DB97B0F PUSH1 0xC0 SHL PUSH3 0x667 PUSH1 0x20 SHL PUSH1 0x20 SHR JUMP JUMPDEST PUSH3 0x1CB PUSH8 0xCD526145AE2B1C94 PUSH1 0xC0 SHL PUSH3 0x667 PUSH1 0x20 SHL PUSH1 0x20 SHR JUMP JUMPDEST PUSH1 0x0 PUSH20 0xFFFFFFFFFFFFFFFFFFFFFFFFFFFFFFFFFFFFFFFF AND DUP4 PUSH20 0xFFFFFFFFFFFFFFFFFFFFFFFFFFFFFFFFFFFFFFFF AND SUB PUSH3 0x23D JUMPI PUSH1 0x40 MLOAD PUSH32 0x8C379A000000000000000000000000000000000000000000000000000000000 DUP2 MSTORE PUSH1 0x4 ADD PUSH3 0x234 SWAP1 PUSH3 0x819 JUMP JUMPDEST PUSH1 0x40 MLOAD DUP1 SWAP2 SUB SWAP1 REVERT JUMPDEST PUSH3 0x259 PUSH8 0x4F71DDEE6BEB1775 PUSH1 0xC0 SHL PUSH3 0x667 PUSH1 0x20 SHL PUSH1 0x20 SHR JUMP JUMPDEST PUSH3 0x275 PUSH8 0x21F5049A2FCC78D7 PUSH1 0xC0 SHL PUSH3 0x667 PUSH1 0x20 SHL PUSH1 0x20 SHR JUMP JUMPDEST PUSH3 0x291 PUSH8 0x140B8D64321DBA95 PUSH1 0xC0 SHL PUSH3 0x667 PUSH1 0x20 SHL PUSH1 0x20 SHR JUMP JUMPDEST PUSH3 0x2AD PUSH8 0xF418BEBEEFE1A08D PUSH1 0xC0 SHL PUSH3 0x667 PUSH1 0x20 SHL PUSH1 0x20 SHR JUMP JUMPDEST PUSH1 0x0 PUSH20 0xFFFFFFFFFFFFFFFFFFFFFFFFFFFFFFFFFFFFFFFF AND DUP3 PUSH20 0xFFFFFFFFFFFFFFFFFFFFFFFFFFFFFFFFFFFFFFFF AND SUB PUSH3 0x31F JUMPI PUSH1 0x40 MLOAD PUSH32 0x8C379A000000000000000000000000000000000000000000000000000000000 DUP2 MSTORE PUSH1 0x4 ADD PUSH3 0x316 SWAP1 PUSH3 0x88B JUMP JUMPDEST PUSH1 0x40 MLOAD DUP1 SWAP2 SUB SWAP1 REVERT JUMPDEST PUSH3 0x33B PUSH8 0x8017A36E20178491 PUSH1 0xC0 SHL PUSH3 0x667 PUSH1 0x20 SHL PUSH1 0x20 SHR JUMP JUMPDEST PUSH3 0x357 PUSH8 0x863DF66CF507626B PUSH1 0xC0 SHL PUSH3 0x667 PUSH1 0x20 SHL PUSH1 0x20 SHR JUMP JUMPDEST PUSH3 0x373 PUSH8 0xDB088293ECBE22D7 PUSH1 0xC0 SHL PUSH3 0x667 PUSH1 0x20 SHL PUSH1 0x20 SHR JUMP JUMPDEST PUSH3 0x38F PUSH8 0x73079DF3EB7D3ABC PUSH1 0xC0 SHL PUSH3 0x667 PUSH1 0x20 SHL PUSH1 0x20 SHR JUMP JUMPDEST PUSH1 0x0 PUSH20 0xFFFFFFFFFFFFFFFFFFFFFFFFFFFFFFFFFFFFFFFF AND DUP2 PUSH20 0xFFFFFFFFFFFFFFFFFFFFFFFFFFFFFFFFFFFFFFFF AND SUB PUSH3 0x401 JUMPI PUSH1 0x40 MLOAD PUSH32 0x8C379A000000000000000000000000000000000000000000000000000000000 DUP2 MSTORE PUSH1 0x4 ADD PUSH3 0x3F8 SWAP1 PUSH3 0x923 JUMP JUMPDEST PUSH1 0x40 MLOAD DUP1 SWAP2 SUB SWAP1 REVERT JUMPDEST PUSH3 0x41D PUSH8 0x27A5D72EE10F1121 PUSH1 0xC0 SHL PUSH3 0x667 PUSH1 0x20 SHL PUSH1 0x20 SHR JUMP JUMPDEST PUSH3 0x439 PUSH8 0x1AADD0660FA90191 PUSH1 0xC0 SHL PUSH3 0x667 PUSH1 0x20 SHL PUSH1 0x20 SHR JUMP JUMPDEST DUP4 PUSH1 0x2 PUSH1 0x1 PUSH2 0x100 EXP DUP2 SLOAD DUP2 PUSH20 0xFFFFFFFFFFFFFFFFFFFFFFFFFFFFFFFFFFFFFFFF MUL NOT AND SWAP1 DUP4 PUSH20 0xFFFFFFFFFFFFFFFFFFFFFFFFFFFFFFFFFFFFFFFF AND MUL OR SWAP1 SSTORE POP PUSH3 0x496 PUSH8 0x74B02F8006C5D29E PUSH1 0xC0 SHL PUSH3 0x667 PUSH1 0x20 SHL PUSH1 0x20 SHR JUMP JUMPDEST DUP3 PUSH1 0x3 PUSH1 0x0 PUSH2 0x100 EXP DUP2 SLOAD DUP2 PUSH20 0xFFFFFFFFFFFFFFFFFFFFFFFFFFFFFFFFFFFFFFFF MUL NOT AND SWAP1 DUP4 PUSH20 0xFFFFFFFFFFFFFFFFFFFFFFFFFFFFFFFFFFFFFFFF AND MUL OR SWAP1 SSTORE POP PUSH3 0x4F3 PUSH8 0xA08DE84ACE111B4B PUSH1 0xC0 SHL PUSH3 0x667 PUSH1 0x20 SHL PUSH1 0x20 SHR JUMP JUMPDEST DUP2 PUSH1 0x4 PUSH1 0x0 PUSH2 0x100 EXP DUP2 SLOAD DUP2 PUSH20 0xFFFFFFFFFFFFFFFFFFFFFFFFFFFFFFFFFFFFFFFF MUL NOT AND SWAP1 DUP4 PUSH20 0xFFFFFFFFFFFFFFFFFFFFFFFFFFFFFFFFFFFFFFFF AND MUL OR SWAP1 SSTORE POP PUSH3 0x550 PUSH8 0xE28CDA5E195B14C0 PUSH1 0xC0 SHL PUSH3 0x667 PUSH1 0x20 SHL PUSH1 0x20 SHR JUMP JUMPDEST DUP1 PUSH1 0x5 PUSH1 0x0 PUSH2 0x100 EXP DUP2 SLOAD DUP2 PUSH20 0xFFFFFFFFFFFFFFFFFFFFFFFFFFFFFFFFFFFFFFFF MUL NOT AND SWAP1 DUP4 PUSH20 0xFFFFFFFFFFFFFFFFFFFFFFFFFFFFFFFFFFFFFFFF AND MUL OR SWAP1 SSTORE POP POP POP POP POP PUSH3 0x945 JUMP JUMPDEST PUSH1 0x0 CALLER SWAP1 POP SWAP1 JUMP JUMPDEST PUSH1 0x0 DUP1 PUSH1 0x0 SWAP1 SLOAD SWAP1 PUSH2 0x100 EXP SWAP1 DIV PUSH20 0xFFFFFFFFFFFFFFFFFFFFFFFFFFFFFFFFFFFFFFFF AND SWAP1 POP DUP2 PUSH1 0x0 DUP1 PUSH2 0x100 EXP DUP2 SLOAD DUP2 PUSH20 0xFFFFFFFFFFFFFFFFFFFFFFFFFFFFFFFFFFFFFFFF MUL NOT AND SWAP1 DUP4 PUSH20 0xFFFFFFFFFFFFFFFFFFFFFFFFFFFFFFFFFFFFFFFF AND MUL OR SWAP1 SSTORE POP DUP2 PUSH20 0xFFFFFFFFFFFFFFFFFFFFFFFFFFFFFFFFFFFFFFFF AND DUP2 PUSH20 0xFFFFFFFFFFFFFFFFFFFFFFFFFFFFFFFFFFFFFFFF AND PUSH32 0x8BE0079C531659141344CD1FD0A4F28419497F9722A3DAAFE3B4186F6B6457E0 PUSH1 0x40 MLOAD PUSH1 0x40 MLOAD DUP1 SWAP2 SUB SWAP1 LOG3 POP POP JUMP JUMPDEST POP JUMP JUMPDEST PUSH1 0x0 DUP1 REVERT JUMPDEST PUSH1 0x0 PUSH20 0xFFFFFFFFFFFFFFFFFFFFFFFFFFFFFFFFFFFFFFFF DUP3 AND SWAP1 POP SWAP2 SWAP1 POP JUMP JUMPDEST PUSH1 0x0 PUSH3 0x69C DUP3 PUSH3 0x66F JUMP JUMPDEST SWAP1 POP SWAP2 SWAP1 POP JUMP JUMPDEST PUSH3 0x6AE DUP2 PUSH3 0x68F JUMP JUMPDEST DUP2 EQ PUSH3 0x6BA JUMPI PUSH1 0x0 DUP1 REVERT JUMPDEST POP JUMP JUMPDEST PUSH1 0x0 DUP2 MLOAD SWAP1 POP PUSH3 0x6CE DUP2 PUSH3 0x6A3 JUMP JUMPDEST SWAP3 SWAP2 POP POP JUMP JUMPDEST PUSH1 0x0 DUP1 PUSH1 0x0 DUP1 PUSH1 0x80 DUP6 DUP8 SUB SLT ISZERO PUSH3 0x6F1 JUMPI PUSH3 0x6F0 PUSH3 0x66A JUMP JUMPDEST JUMPDEST PUSH1 0x0 PUSH3 0x701 DUP8 DUP3 DUP9 ADD PUSH3 0x6BD JUMP JUMPDEST SWAP5 POP POP PUSH1 0x20 PUSH3 0x714 DUP8 DUP3 DUP9 ADD PUSH3 0x6BD JUMP JUMPDEST SWAP4 POP POP PUSH1 0x40 PUSH3 0x727 DUP8 DUP3 DUP9 ADD PUSH3 0x6BD JUMP JUMPDEST SWAP3 POP POP PUSH1 0x60 PUSH3 0x73A DUP8 DUP3 DUP9 ADD PUSH3 0x6BD JUMP JUMPDEST SWAP2 POP POP SWAP3 SWAP6 SWAP2 SWAP5 POP SWAP3 POP JUMP JUMPDEST PUSH1 0x0 DUP3 DUP3 MSTORE PUSH1 0x20 DUP3 ADD SWAP1 POP SWAP3 SWAP2 POP POP JUMP JUMPDEST PUSH32 0x496E76616C696420555344432061646472657373000000000000000000000000 PUSH1 0x0 DUP3 ADD MSTORE POP JUMP JUMPDEST PUSH1 0x0 PUSH3 0x78F PUSH1 0x14 DUP4 PUSH3 0x746 JUMP JUMPDEST SWAP2 POP PUSH3 0x79C DUP3 PUSH3 0x757 JUMP JUMPDEST PUSH1 0x20 DUP3 ADD SWAP1 POP SWAP2 SWAP1 POP JUMP JUMPDEST PUSH1 0x0 PUSH1 0x20 DUP3 ADD SWAP1 POP DUP2 DUP2 SUB PUSH1 0x0 DUP4 ADD MSTORE PUSH3 0x7C2 DUP2 PUSH3 0x780 JUMP JUMPDEST SWAP1 POP SWAP2 SWAP1 POP JUMP JUMPDEST PUSH32 0x496E76616C6964204161766520706F6F6C206164647265737300000000000000 PUSH1 0x0 DUP3 ADD MSTORE POP JUMP JUMPDEST PUSH1 0x0 PUSH3 0x801 PUSH1 0x19 DUP4 PUSH3 0x746 JUMP JUMPDEST SWAP2 POP PUSH3 0x80E DUP3 PUSH3 0x7C9 JUMP JUMPDEST PUSH1 0x20 DUP3 ADD SWAP1 POP SWAP2 SWAP1 POP JUMP JUMPDEST PUSH1 0x0 PUSH1 0x20 DUP3 ADD SWAP1 POP DUP2 DUP2 SUB PUSH1 0x0 DUP4 ADD MSTORE PUSH3 0x834 DUP2 PUSH3 0x7F2 JUMP JUMPDEST SWAP1 POP SWAP2 SWAP1 POP JUMP JUMPDEST PUSH32 0x496E76616C696420476E6F736973205361666520616464726573730000000000 PUSH1 0x0 DUP3 ADD MSTORE POP JUMP JUMPDEST PUSH1 0x0 PUSH3 0x873 PUSH1 0x1B DUP4 PUSH3 0x746 JUMP JUMPDEST SWAP2 POP PUSH3 0x880 DUP3 PUSH3 0x83B JUMP JUMPDEST PUSH1 0x20 DUP3 ADD SWAP1 POP SWAP2 SWAP1 POP JUMP JUMPDEST PUSH1 0x0 PUSH1 0x20 DUP3 ADD SWAP1 POP DUP2 DUP2 SUB PUSH1 0x0 DUP4 ADD MSTORE PUSH3 0x8A6 DUP2 PUSH3 0x864 JUMP JUMPDEST SWAP1 POP SWAP2 SWAP1 POP JUMP JUMPDEST PUSH32 0x496E76616C696420646973747269627574696F6E206C6F676963206164647265 PUSH1 0x0 DUP3 ADD MSTORE PUSH32 0x7373000000000000000000000000000000000000000000000000000000000000 PUSH1 0x20 DUP3 ADD MSTORE POP JUMP JUMPDEST PUSH1 0x0 PUSH3 0x90B PUSH1 0x22 DUP4 PUSH3 0x746 JUMP JUMPDEST SWAP2 POP PUSH3 0x918 DUP3 PUSH3 0x8AD JUMP JUMPDEST PUSH1 0x40 DUP3 ADD SWAP1 POP SWAP2 SWAP1 POP JUMP JUMPDEST PUSH1 0x0 PUSH1 0x20 DUP3 ADD SWAP1 POP DUP2 DUP2 SUB PUSH1 0x0 DUP4 ADD MSTORE PUSH3 0x93E DUP2 PUSH3 0x8FC JUMP JUMPDEST SWAP1 POP SWAP2 SWAP1 POP JUMP JUMPDEST PUSH2 0x2AC5 DUP1 PUSH3 0x955 PUSH1 0x0 CODECOPY PUSH1 0x0 RETURN INVALID PUSH1 0x80 PUSH1 0x40 MSTORE CALLVALUE DUP1 ISZERO PUSH2 0x10 JUMPI PUSH1 0x0 DUP1 REVERT JUMPDEST POP PUSH1 0x4 CALLDATASIZE LT PUSH2 0x14C JUMPI PUSH1 0x0 CALLDATALOAD PUSH1 0xE0 SHR DUP1 PUSH4 0x8A570A12 GT PUSH2 0xC3 JUMPI DUP1 PUSH4 0xAB31978F GT PUSH2 0x7C JUMPI DUP1 PUSH4 0xAB31978F EQ PUSH2 0x333 JUMPI DUP1 PUSH4 0xBA5F19FD EQ PUSH2 0x34F JUMPI DUP1 PUSH4 0xBBEAEADD EQ PUSH2 0x36D JUMPI DUP1 PUSH4 0xDE2ED893 EQ PUSH2 0x39D JUMPI DUP1 PUSH4 0xF14FAF6F EQ PUSH2 0x3BB JUMPI DUP1 PUSH4 0xF2FDE38B EQ PUSH2 0x3D7 JUMPI PUSH2 0x14C JUMP JUMPDEST DUP1 PUSH4 0x8A570A12 EQ PUSH2 0x293 JUMPI DUP1 PUSH4 0x8C825056 EQ PUSH2 0x29D JUMPI DUP1 PUSH4 0x8DA5CB5B EQ PUSH2 0x2BB JUMPI DUP1 PUSH4 0x96F300D4 EQ PUSH2 0x2D9 JUMPI DUP1 PUSH4 0xA03E4BC3 EQ PUSH2 0x2F7 JUMPI DUP1 PUSH4 0xA84173AE EQ PUSH2 0x315 JUMPI PUSH2 0x14C JUMP JUMPDEST DUP1 PUSH4 0x4ABFA163 GT PUSH2 0x115 JUMPI DUP1 PUSH4 0x4ABFA163 EQ PUSH2 0x1F7 JUMPI DUP1 PUSH4 0x5C975ABB EQ PUSH2 0x227 JUMPI DUP1 PUSH4 0x68FD2D80 EQ PUSH2 0x245 JUMPI DUP1 PUSH4 0x69BC2F1E EQ PUSH2 0x261 JUMPI DUP1 PUSH4 0x715018A6 EQ PUSH2 0x27F JUMPI DUP1 PUSH4 0x8456CB59 EQ PUSH2 0x289 JUMPI PUSH2 0x14C JUMP JUMPDEST DUP1 PUSH3 0x8D14B6 EQ PUSH2 0x151 JUMPI DUP1 PUSH4 0x5A50CE3 EQ PUSH2 0x181 JUMPI DUP1 PUSH4 0x1FAAA315 EQ PUSH2 0x19F JUMPI DUP1 PUSH4 0x3E413BEE EQ PUSH2 0x1CF JUMPI DUP1 PUSH4 0x3F4BA83A EQ PUSH2 0x1ED JUMPI JUMPDEST PUSH1 0x0 DUP1 REVERT JUMPDEST PUSH2 0x16B PUSH1 0x4 DUP1 CALLDATASIZE SUB DUP2 ADD SWAP1 PUSH2 0x166 SWAP2 SWAP1 PUSH2 0x1C70 JUMP JUMPDEST PUSH2 0x3F3 JUMP JUMPDEST PUSH1 0x40 MLOAD PUSH2 0x178 SWAP2 SWAP1 PUSH2 0x1CB6 JUMP JUMPDEST PUSH1 0x40 MLOAD DUP1 SWAP2 SUB SWAP1 RETURN JUMPDEST PUSH2 0x189 PUSH2 0x40B JUMP JUMPDEST PUSH1 0x40 MLOAD PUSH2 0x196 SWAP2 SWAP1 PUSH2 0x1D30 JUMP JUMPDEST PUSH1 0x40 MLOAD DUP1 SWAP2 SUB SWAP1 RETURN JUMPDEST PUSH2 0x1B9 PUSH1 0x4 DUP1 CALLDATASIZE SUB DUP2 ADD SWAP1 PUSH2 0x1B4 SWAP2 SWAP1 PUSH2 0x1C70 JUMP JUMPDEST PUSH2 0x431 JUMP JUMPDEST PUSH1 0x40 MLOAD PUSH2 0x1C6 SWAP2 SWAP1 PUSH2 0x1CB6 JUMP JUMPDEST PUSH1 0x40 MLOAD DUP1 SWAP2 SUB SWAP1 RETURN JUMPDEST PUSH2 0x1D7 PUSH2 0x4B6 JUMP JUMPDEST PUSH1 0x40 MLOAD PUSH2 0x1E4 SWAP2 SWAP1 PUSH2 0x1D6C JUMP JUMPDEST PUSH1 0x40 MLOAD DUP1 SWAP2 SUB SWAP1 RETURN JUMPDEST PUSH2 0x1F5 PUSH2 0x4DC JUMP JUMPDEST STOP JUMPDEST PUSH2 0x211 PUSH1 0x4 DUP1 CALLDATASIZE SUB DUP2 ADD SWAP1 PUSH2 0x20C SWAP2 SWAP1 PUSH2 0x1DB3 JUMP JUMPDEST PUSH2 0x552 JUMP JUMPDEST PUSH1 0x40 MLOAD PUSH2 0x21E SWAP2 SWAP1 PUSH2 0x1DEF JUMP JUMPDEST PUSH1 0x40 MLOAD DUP1 SWAP2 SUB SWAP1 RETURN JUMPDEST PUSH2 0x22F PUSH2 0x591 JUMP JUMPDEST PUSH1 0x40 MLOAD PUSH2 0x23C SWAP2 SWAP1 PUSH2 0x1E25 JUMP JUMPDEST PUSH1 0x40 MLOAD DUP1 SWAP2 SUB SWAP1 RETURN JUMPDEST PUSH2 0x25F PUSH1 0x4 DUP1 CALLDATASIZE SUB DUP2 ADD SWAP1 PUSH2 0x25A SWAP2 SWAP1 PUSH2 0x1DB3 JUMP JUMPDEST PUSH2 0x5A8 JUMP JUMPDEST STOP JUMPDEST PUSH2 0x269 PUSH2 0x8E9 JUMP JUMPDEST PUSH1 0x40 MLOAD PUSH2 0x276 SWAP2 SWAP1 PUSH2 0x1CB6 JUMP JUMPDEST PUSH1 0x40 MLOAD DUP1 SWAP2 SUB SWAP1 RETURN JUMPDEST PUSH2 0x287 PUSH2 0x932 JUMP JUMPDEST STOP JUMPDEST PUSH2 0x291 PUSH2 0x946 JUMP JUMPDEST STOP JUMPDEST PUSH2 0x29B PUSH2 0x9BC JUMP JUMPDEST STOP JUMPDEST PUSH2 0x2A5 PUSH2 0xF09 JUMP JUMPDEST PUSH1 0x40 MLOAD PUSH2 0x2B2 SWAP2 SWAP1 PUSH2 0x1CB6 JUMP JUMPDEST PUSH1 0x40 MLOAD DUP1 SWAP2 SUB SWAP1 RETURN JUMPDEST PUSH2 0x2C3 PUSH2 0xF0F JUMP JUMPDEST PUSH1 0x40 MLOAD PUSH2 0x2D0 SWAP2 SWAP1 PUSH2 0x1DEF JUMP JUMPDEST PUSH1 0x40 MLOAD DUP1 SWAP2 SUB SWAP1 RETURN JUMPDEST PUSH2 0x2E1 PUSH2 0xF38 JUMP JUMPDEST PUSH1 0x40 MLOAD PUSH2 0x2EE SWAP2 SWAP1 PUSH2 0x1EFE JUMP JUMPDEST PUSH1 0x40 MLOAD DUP1 SWAP2 SUB SWAP1 RETURN JUMPDEST PUSH2 0x2FF PUSH2 0x1002 JUMP JUMPDEST PUSH1 0x40 MLOAD PUSH2 0x30C SWAP2 SWAP1 PUSH2 0x1F41 JUMP JUMPDEST PUSH1 0x40 MLOAD DUP1 SWAP2 SUB SWAP1 RETURN JUMPDEST PUSH2 0x31D PUSH2 0x1028 JUMP JUMPDEST PUSH1 0x40 MLOAD PUSH2 0x32A SWAP2 SWAP1 PUSH2 0x1F7D JUMP JUMPDEST PUSH1 0x40 MLOAD DUP1 SWAP2 SUB SWAP1 RETURN JUMPDEST PUSH2 0x34D PUSH1 0x4 DUP1 CALLDATASIZE SUB DUP2 ADD SWAP1 PUSH2 0x348 SWAP2 SWAP1 PUSH2 0x1DB3 JUMP JUMPDEST PUSH2 0x104E JUMP JUMPDEST STOP JUMPDEST PUSH2 0x357 PUSH2 0x1311 JUMP JUMPDEST PUSH1 0x40 MLOAD PUSH2 0x364 SWAP2 SWAP1 PUSH2 0x1CB6 JUMP JUMPDEST PUSH1 0x40 MLOAD DUP1 SWAP2 SUB SWAP1 RETURN JUMPDEST PUSH2 0x387 PUSH1 0x4 DUP1 CALLDATASIZE SUB DUP2 ADD SWAP1 PUSH2 0x382 SWAP2 SWAP1 PUSH2 0x1C70 JUMP JUMPDEST PUSH2 0x1317 JUMP JUMPDEST PUSH1 0x40 MLOAD PUSH2 0x394 SWAP2 SWAP1 PUSH2 0x1CB6 JUMP JUMPDEST PUSH1 0x40 MLOAD DUP1 SWAP2 SUB SWAP1 RETURN JUMPDEST PUSH2 0x3A5 PUSH2 0x132F JUMP JUMPDEST PUSH1 0x40 MLOAD PUSH2 0x3B2 SWAP2 SWAP1 PUSH2 0x1CB6 JUMP JUMPDEST PUSH1 0x40 MLOAD DUP1 SWAP2 SUB SWAP1 RETURN JUMPDEST PUSH2 0x3D5 PUSH1 0x4 DUP1 CALLDATASIZE SUB DUP2 ADD SWAP1 PUSH2 0x3D0 SWAP2 SWAP1 PUSH2 0x1DB3 JUMP JUMPDEST PUSH2 0x1335 JUMP JUMPDEST STOP JUMPDEST PUSH2 0x3F1 PUSH1 0x4 DUP1 CALLDATASIZE SUB DUP2 ADD SWAP1 PUSH2 0x3EC SWAP2 SWAP1 PUSH2 0x1C70 JUMP JUMPDEST PUSH2 0x187D JUMP JUMPDEST STOP JUMPDEST PUSH1 0xA PUSH1 0x20 MSTORE DUP1 PUSH1 0x0 MSTORE PUSH1 0x40 PUSH1 0x0 KECCAK256 PUSH1 0x0 SWAP2 POP SWAP1 POP SLOAD DUP2 JUMP JUMPDEST PUSH1 0x5 PUSH1 0x0 SWAP1 SLOAD SWAP1 PUSH2 0x100 EXP SWAP1 DIV PUSH20 0xFFFFFFFFFFFFFFFFFFFFFFFFFFFFFFFFFFFFFFFF AND DUP2 JUMP JUMPDEST PUSH1 0x0 PUSH2 0x447 PUSH8 0xAF227D94EF5BE1DE PUSH1 0xC0 SHL PUSH2 0x1900 JUMP JUMPDEST PUSH2 0x45B PUSH8 0xA778B4AD754DA24C PUSH1 0xC0 SHL PUSH2 0x1900 JUMP JUMPDEST PUSH2 0x46F PUSH8 0x578C16D0A5F6667B PUSH1 0xC0 SHL PUSH2 0x1900 JUMP JUMPDEST PUSH1 0x9 PUSH1 0x0 DUP4 PUSH20 0xFFFFFFFFFFFFFFFFFFFFFFFFFFFFFFFFFFFFFFFF AND PUSH20 0xFFFFFFFFFFFFFFFFFFFFFFFFFFFFFFFFFFFFFFFF AND DUP2 MSTORE PUSH1 0x20 ADD SWAP1 DUP2 MSTORE PUSH1 0x20 ADD PUSH1 0x0 KECCAK256 SLOAD SWAP1 POP SWAP2 SWAP1 POP JUMP JUMPDEST PUSH1 0x2 PUSH1 0x1 SWAP1 SLOAD SWAP1 PUSH2 0x100 EXP SWAP1 DIV PUSH20 0xFFFFFFFFFFFFFFFFFFFFFFFFFFFFFFFFFFFFFFFF AND DUP2 JUMP JUMPDEST PUSH2 0x4F0 PUSH8 0x2D7735016B8F5CBC PUSH1 0xC0 SHL PUSH2 0x1900 JUMP JUMPDEST PUSH2 0x4F8 PUSH2 0x1903 JUMP JUMPDEST PUSH2 0x50C PUSH8 0xB2A85901E4E524DF PUSH1 0xC0 SHL PUSH2 0x1900 JUMP JUMPDEST PUSH2 0x520 PUSH8 0xD04B9FB5B4AEEA99 PUSH1 0xC0 SHL PUSH2 0x1900 JUMP JUMPDEST PUSH2 0x534 PUSH8 0x6E31399C36E70DB4 PUSH1 0xC0 SHL PUSH2 0x1900 JUMP JUMPDEST PUSH2 0x548 PUSH8 0xF63835465E4C6EF6 PUSH1 0xC0 SHL PUSH2 0x1900 JUMP JUMPDEST PUSH2 0x550 PUSH2 0x1981 JUMP JUMPDEST JUMP JUMPDEST PUSH1 0xB DUP2 DUP2 SLOAD DUP2 LT PUSH2 0x562 JUMPI PUSH1 0x0 DUP1 REVERT JUMPDEST SWAP1 PUSH1 0x0 MSTORE PUSH1 0x20 PUSH1 0x0 KECCAK256 ADD PUSH1 0x0 SWAP2 POP SLOAD SWAP1 PUSH2 0x100 EXP SWAP1 DIV PUSH20 0xFFFFFFFFFFFFFFFFFFFFFFFFFFFFFFFFFFFFFFFF AND DUP2 JUMP JUMPDEST PUSH1 0x0 PUSH1 0x2 PUSH1 0x0 SWAP1 SLOAD SWAP1 PUSH2 0x100 EXP SWAP1 DIV PUSH1 0xFF AND SWAP1 POP SWAP1 JUMP JUMPDEST PUSH2 0x5BC PUSH8 0x4D52A8E7F84B30D2 PUSH1 0xC0 SHL PUSH2 0x1900 JUMP JUMPDEST PUSH2 0x5C4 PUSH2 0x1903 JUMP JUMPDEST PUSH2 0x5D8 PUSH8 0x2767281F0461290C PUSH1 0xC0 SHL PUSH2 0x1900 JUMP JUMPDEST PUSH2 0x5EC PUSH8 0x14B98A3C496F0B86 PUSH1 0xC0 SHL PUSH2 0x1900 JUMP JUMPDEST PUSH2 0x5F4 PUSH2 0x19E4 JUMP JUMPDEST PUSH2 0x608 PUSH8 0x47CE958724F615A7 PUSH1 0xC0 SHL PUSH2 0x1900 JUMP JUMPDEST PUSH2 0x61C PUSH8 0x8EFB3B80D1CBAFC5 PUSH1 0xC0 SHL PUSH2 0x1900 JUMP JUMPDEST PUSH2 0x630 PUSH8 0x7BD03E05D5B38411 PUSH1 0xC0 SHL PUSH2 0x1900 JUMP JUMPDEST PUSH2 0x644 PUSH8 0xC7817C227C962BED PUSH1 0xC0 SHL PUSH2 0x1900 JUMP JUMPDEST PUSH2 0x658 PUSH8 0xC3BA979761F50D2F PUSH1 0xC0 SHL PUSH2 0x1900 JUMP JUMPDEST PUSH1 0x0 DUP2 GT PUSH2 0x69B JUMPI PUSH1 0x40 MLOAD PUSH32 0x8C379A000000000000000000000000000000000000000000000000000000000 DUP2 MSTORE PUSH1 0x4 ADD PUSH2 0x692 SWAP1 PUSH2 0x1FF5 JUMP JUMPDEST PUSH1 0x40 MLOAD DUP1 SWAP2 SUB SWAP1 REVERT JUMPDEST PUSH2 0x6AF PUSH8 0x43BDE94DB544FF91 PUSH1 0xC0 SHL PUSH2 0x1900 JUMP JUMPDEST PUSH2 0x6C3 PUSH8 0x1CC0569D0AAB3D29 PUSH1 0xC0 SHL PUSH2 0x1900 JUMP JUMPDEST PUSH2 0x6D7 PUSH8 0xC23727D2C63C5E86 PUSH1 0xC0 SHL PUSH2 0x1900 JUMP JUMPDEST PUSH2 0x6EB PUSH8 0x2763E5FF77E0384F PUSH1 0xC0 SHL PUSH2 0x1900 JUMP JUMPDEST PUSH1 0x2 PUSH1 0x1 SWAP1 SLOAD SWAP1 PUSH2 0x100 EXP SWAP1 DIV PUSH20 0xFFFFFFFFFFFFFFFFFFFFFFFFFFFFFFFFFFFFFFFF AND PUSH20 0xFFFFFFFFFFFFFFFFFFFFFFFFFFFFFFFFFFFFFFFF AND PUSH4 0x95EA7B3 PUSH1 0x3 PUSH1 0x0 SWAP1 SLOAD SWAP1 PUSH2 0x100 EXP SWAP1 DIV PUSH20 0xFFFFFFFFFFFFFFFFFFFFFFFFFFFFFFFFFFFFFFFF AND DUP4 PUSH1 0x40 MLOAD DUP4 PUSH4 0xFFFFFFFF AND PUSH1 0xE0 SHL DUP2 MSTORE PUSH1 0x4 ADD PUSH2 0x76A SWAP3 SWAP2 SWAP1 PUSH2 0x2015 JUMP JUMPDEST PUSH1 0x20 PUSH1 0x40 MLOAD DUP1 DUP4 SUB DUP2 PUSH1 0x0 DUP8 GAS CALL ISZERO DUP1 ISZERO PUSH2 0x789 JUMPI RETURNDATASIZE PUSH1 0x0 DUP1 RETURNDATACOPY RETURNDATASIZE PUSH1 0x0 REVERT JUMPDEST POP POP POP POP PUSH1 0x40 MLOAD RETURNDATASIZE PUSH1 0x1F NOT PUSH1 0x1F DUP3 ADD AND DUP3 ADD DUP1 PUSH1 0x40 MSTORE POP DUP2 ADD SWAP1 PUSH2 0x7AD SWAP2 SWAP1 PUSH2 0x206A JUMP JUMPDEST PUSH2 0x7EC JUMPI PUSH1 0x40 MLOAD PUSH32 0x8C379A000000000000000000000000000000000000000000000000000000000 DUP2 MSTORE PUSH1 0x4 ADD PUSH2 0x7E3 SWAP1 PUSH2 0x20E3 JUMP JUMPDEST PUSH1 0x40 MLOAD DUP1 SWAP2 SUB SWAP1 REVERT JUMPDEST PUSH2 0x800 PUSH8 0xDAAD74A787994068 PUSH1 0xC0 SHL PUSH2 0x1900 JUMP JUMPDEST PUSH2 0x814 PUSH8 0x8C508C063D33CF51 PUSH1 0xC0 SHL PUSH2 0x1900 JUMP JUMPDEST PUSH2 0x828 PUSH8 0xD6F133E3F68FAF54 PUSH1 0xC0 SHL PUSH2 0x1900 JUMP JUMPDEST PUSH1 0x3 PUSH1 0x0 SWAP1 SLOAD SWAP1 PUSH2 0x100 EXP SWAP1 DIV PUSH20 0xFFFFFFFFFFFFFFFFFFFFFFFFFFFFFFFFFFFFFFFF AND PUSH20 0xFFFFFFFFFFFFFFFFFFFFFFFFFFFFFFFFFFFFFFFF AND PUSH4 0xE8EDA9DF PUSH1 0x2 PUSH1 0x1 SWAP1 SLOAD SWAP1 PUSH2 0x100 EXP SWAP1 DIV PUSH20 0xFFFFFFFFFFFFFFFFFFFFFFFFFFFFFFFFFFFFFFFF AND DUP4 ADDRESS PUSH1 0x0 PUSH1 0x40 MLOAD DUP6 PUSH4 0xFFFFFFFF AND PUSH1 0xE0 SHL DUP2 MSTORE PUSH1 0x4 ADD PUSH2 0x8AC SWAP5 SWAP4 SWAP3 SWAP2 SWAP1 PUSH2 0x214C JUMP JUMPDEST PUSH1 0x0 PUSH1 0x40 MLOAD DUP1 DUP4 SUB DUP2 PUSH1 0x0 DUP8 DUP1 EXTCODESIZE ISZERO DUP1 ISZERO PUSH2 0x8C6 JUMPI PUSH1 0x0 DUP1 REVERT JUMPDEST POP GAS CALL ISZERO DUP1 ISZERO PUSH2 0x8DA JUMPI RETURNDATASIZE PUSH1 0x0 DUP1 RETURNDATACOPY RETURNDATASIZE PUSH1 0x0 REVERT JUMPDEST POP POP POP POP PUSH2 0x8E6 PUSH2 0x1A33 JUMP JUMPDEST POP JUMP JUMPDEST PUSH1 0x0 PUSH2 0x8FF PUSH8 0x758A3AB9A8154D31 PUSH1 0xC0 SHL PUSH2 0x1900 JUMP JUMPDEST PUSH2 0x913 PUSH8 0xA715C35DD37539FE PUSH1 0xC0 SHL PUSH2 0x1900 JUMP JUMPDEST PUSH2 0x927 PUSH8 0xE310597F910122EB PUSH1 0xC0 SHL PUSH2 0x1900 JUMP JUMPDEST PUSH1 0xB DUP1 SLOAD SWAP1 POP SWAP1 POP SWAP1 JUMP JUMPDEST PUSH2 0x93A PUSH2 0x1903 JUMP JUMPDEST PUSH2 0x944 PUSH1 0x0 PUSH2 0x1A3C JUMP JUMPDEST JUMP JUMPDEST PUSH2 0x95A PUSH8 0xF331DF42A043292B PUSH1 0xC0 SHL PUSH2 0x1900 JUMP JUMPDEST PUSH2 0x962 PUSH2 0x1903 JUMP JUMPDEST PUSH2 0x976 PUSH8 0x72E160D4E8ED72E5 PUSH1 0xC0 SHL PUSH2 0x1900 JUMP JUMPDEST PUSH2 0x98A PUSH8 0x4F52152A9E96B4F8 PUSH1 0xC0 SHL PUSH2 0x1900 JUMP JUMPDEST PUSH2 0x99E PUSH8 0x583372628CFC410B PUSH1 0xC0 SHL PUSH2 0x1900 JUMP JUMPDEST PUSH2 0x9B2 PUSH8 0x37FE324078283C60 PUSH1 0xC0 SHL PUSH2 0x1900 JUMP JUMPDEST PUSH2 0x9BA PUSH2 0x1B00 JUMP JUMPDEST JUMP JUMPDEST PUSH2 0x9D0 PUSH8 0x8CB308EFDE4CE0AB PUSH1 0xC0 SHL PUSH2 0x1900 JUMP JUMPDEST PUSH2 0x9D8 PUSH2 0x1903 JUMP JUMPDEST PUSH2 0x9EC PUSH8 0x9B5B043231847668 PUSH1 0xC0 SHL PUSH2 0x1900 JUMP JUMPDEST PUSH2 0xA00 PUSH8 0xD242B0481AC64B70 PUSH1 0xC0 SHL PUSH2 0x1900 JUMP JUMPDEST PUSH2 0xA08 PUSH2 0x19E4 JUMP JUMPDEST PUSH2 0xA1C PUSH8 0xF93278D19A062A1B PUSH1 0xC0 SHL PUSH2 0x1900 JUMP JUMPDEST PUSH2 0xA30 PUSH8 0x2881089109F5C70 PUSH1 0xC0 SHL PUSH2 0x1900 JUMP JUMPDEST PUSH2 0xA44 PUSH8 0x39B5FB5E18B13869 PUSH1 0xC0 SHL PUSH2 0x1900 JUMP JUMPDEST PUSH2 0xA58 PUSH8 0x427F2C8A67F036FD PUSH1 0xC0 SHL PUSH2 0x1900 JUMP JUMPDEST PUSH1 0x0 PUSH1 0x2 PUSH1 0x1 SWAP1 SLOAD SWAP1 PUSH2 0x100 EXP SWAP1 DIV PUSH20 0xFFFFFFFFFFFFFFFFFFFFFFFFFFFFFFFFFFFFFFFF AND PUSH20 0xFFFFFFFFFFFFFFFFFFFFFFFFFFFFFFFFFFFFFFFF AND PUSH4 0x70A08231 ADDRESS PUSH1 0x40 MLOAD DUP3 PUSH4 0xFFFFFFFF AND PUSH1 0xE0 SHL DUP2 MSTORE PUSH1 0x4 ADD PUSH2 0xAB5 SWAP2 SWAP1 PUSH2 0x1DEF JUMP JUMPDEST PUSH1 0x20 PUSH1 0x40 MLOAD DUP1 DUP4 SUB DUP2 DUP7 GAS STATICCALL ISZERO DUP1 ISZERO PUSH2 0xAD2 JUMPI RETURNDATASIZE PUSH1 0x0 DUP1 RETURNDATACOPY RETURNDATASIZE PUSH1 0x0 REVERT JUMPDEST POP POP POP POP PUSH1 0x40 MLOAD RETURNDATASIZE PUSH1 0x1F NOT PUSH1 0x1F DUP3 ADD AND DUP3 ADD DUP1 PUSH1 0x40 MSTORE POP DUP2 ADD SWAP1 PUSH2 0xAF6 SWAP2 SWAP1 PUSH2 0x21A6 JUMP JUMPDEST SWAP1 POP PUSH2 0xB0C PUSH8 0x593963D16A2BAE28 PUSH1 0xC0 SHL PUSH2 0x1900 JUMP JUMPDEST PUSH2 0xB20 PUSH8 0xA838C525F922452 PUSH1 0xC0 SHL PUSH2 0x1900 JUMP JUMPDEST PUSH2 0xB34 PUSH8 0xAE83357370940FCC PUSH1 0xC0 SHL PUSH2 0x1900 JUMP JUMPDEST PUSH1 0x0 DUP2 GT PUSH2 0xB77 JUMPI PUSH1 0x40 MLOAD PUSH32 0x8C379A000000000000000000000000000000000000000000000000000000000 DUP2 MSTORE PUSH1 0x4 ADD PUSH2 0xB6E SWAP1 PUSH2 0x221F JUMP JUMPDEST PUSH1 0x40 MLOAD DUP1 SWAP2 SUB SWAP1 REVERT JUMPDEST PUSH2 0xB8B PUSH8 0x62E1766D9EFF8271 PUSH1 0xC0 SHL PUSH2 0x1900 JUMP JUMPDEST PUSH2 0xB9F PUSH8 0x5AD58494AFB18356 PUSH1 0xC0 SHL PUSH2 0x1900 JUMP JUMPDEST PUSH2 0xBB3 PUSH8 0xFBC2AC93D37F0755 PUSH1 0xC0 SHL PUSH2 0x1900 JUMP JUMPDEST PUSH1 0x0 DUP1 PUSH1 0x5 PUSH1 0x0 SWAP1 SLOAD SWAP1 PUSH2 0x100 EXP SWAP1 DIV PUSH20 0xFFFFFFFFFFFFFFFFFFFFFFFFFFFFFFFFFFFFFFFF AND PUSH20 0xFFFFFFFFFFFFFFFFFFFFFFFFFFFFFFFFFFFFFFFF AND PUSH4 0x84FF1D3E DUP5 PUSH1 0xB PUSH1 0x40 MLOAD DUP4 PUSH4 0xFFFFFFFF AND PUSH1 0xE0 SHL DUP2 MSTORE PUSH1 0x4 ADD PUSH2 0xC14 SWAP3 SWAP2 SWAP1 PUSH2 0x232B JUMP JUMPDEST PUSH1 0x0 PUSH1 0x40 MLOAD DUP1 DUP4 SUB DUP2 DUP7 GAS STATICCALL ISZERO DUP1 ISZERO PUSH2 0xC31 JUMPI RETURNDATASIZE PUSH1 0x0 DUP1 RETURNDATACOPY RETURNDATASIZE PUSH1 0x0 REVERT JUMPDEST POP POP POP POP PUSH1 0x40 MLOAD RETURNDATASIZE PUSH1 0x0 DUP3 RETURNDATACOPY RETURNDATASIZE PUSH1 0x1F NOT PUSH1 0x1F DUP3 ADD AND DUP3 ADD DUP1 PUSH1 0x40 MSTORE POP DUP2 ADD SWAP1 PUSH2 0xC5A SWAP2 SWAP1 PUSH2 0x258C JUMP JUMPDEST SWAP2 POP SWAP2 POP PUSH2 0xC72 PUSH8 0xAF374B4A8E7CE1C3 PUSH1 0xC0 SHL PUSH2 0x1900 JUMP JUMPDEST PUSH2 0xC86 PUSH8 0x9102B0889CA5B4B4 PUSH1 0xC0 SHL PUSH2 0x1900 JUMP JUMPDEST PUSH1 0x0 JUMPDEST DUP3 MLOAD DUP2 LT ISZERO PUSH2 0xEFB JUMPI PUSH2 0xCA6 PUSH8 0x7F5CB86117D01265 PUSH1 0xC0 SHL PUSH2 0x1900 JUMP JUMPDEST PUSH2 0xCBA PUSH8 0xCF3BF3875D5DD371 PUSH1 0xC0 SHL PUSH2 0x1900 JUMP JUMPDEST PUSH2 0xCCE PUSH8 0x714FD2A28AA0E477 PUSH1 0xC0 SHL PUSH2 0x1900 JUMP JUMPDEST PUSH1 0x2 PUSH1 0x1 SWAP1 SLOAD SWAP1 PUSH2 0x100 EXP SWAP1 DIV PUSH20 0xFFFFFFFFFFFFFFFFFFFFFFFFFFFFFFFFFFFFFFFF AND PUSH20 0xFFFFFFFFFFFFFFFFFFFFFFFFFFFFFFFFFFFFFFFF AND PUSH4 0xA9059CBB DUP5 DUP4 DUP2 MLOAD DUP2 LT PUSH2 0xD1F JUMPI PUSH2 0xD1E PUSH2 0x2604 JUMP JUMPDEST JUMPDEST PUSH1 0x20 MUL PUSH1 0x20 ADD ADD MLOAD DUP5 DUP5 DUP2 MLOAD DUP2 LT PUSH2 0xD3A JUMPI PUSH2 0xD39 PUSH2 0x2604 JUMP JUMPDEST JUMPDEST PUSH1 0x20 MUL PUSH1 0x20 ADD ADD MLOAD PUSH1 0x40 MLOAD DUP4 PUSH4 0xFFFFFFFF AND PUSH1 0xE0 SHL DUP2 MSTORE PUSH1 0x4 ADD PUSH2 0xD5F SWAP3 SWAP2 SWAP1 PUSH2 0x2015 JUMP JUMPDEST PUSH1 0x20 PUSH1 0x40 MLOAD DUP1 DUP4 SUB DUP2 PUSH1 0x0 DUP8 GAS CALL ISZERO DUP1 ISZERO PUSH2 0xD7E JUMPI RETURNDATASIZE PUSH1 0x0 DUP1 RETURNDATACOPY RETURNDATASIZE PUSH1 0x0 REVERT JUMPDEST POP POP POP POP PUSH1 0x40 MLOAD RETURNDATASIZE PUSH1 0x1F NOT PUSH1 0x1F DUP3 ADD AND DUP3 ADD DUP1 PUSH1 0x40 MSTORE POP DUP2 ADD SWAP1 PUSH2 0xDA2 SWAP2 SWAP1 PUSH2 0x206A JUMP JUMPDEST PUSH2 0xDE1 JUMPI PUSH1 0x40 MLOAD PUSH32 0x8C379A000000000000000000000000000000000000000000000000000000000 DUP2 MSTORE PUSH1 0x4 ADD PUSH2 0xDD8 SWAP1 PUSH2 0x267F JUMP JUMPDEST PUSH1 0x40 MLOAD DUP1 SWAP2 SUB SWAP1 REVERT JUMPDEST PUSH2 0xDF5 PUSH8 0xF82901ECB6321FF8 PUSH1 0xC0 SHL PUSH2 0x1900 JUMP JUMPDEST PUSH2 0xE09 PUSH8 0xB7586151089C806B PUSH1 0xC0 SHL PUSH2 0x1900 JUMP JUMPDEST DUP2 DUP2 DUP2 MLOAD DUP2 LT PUSH2 0xE1C JUMPI PUSH2 0xE1B PUSH2 0x2604 JUMP JUMPDEST JUMPDEST PUSH1 0x20 MUL PUSH1 0x20 ADD ADD MLOAD PUSH1 0x8 PUSH1 0x0 DUP3 DUP3 SLOAD PUSH2 0xE35 SWAP2 SWAP1 PUSH2 0x26CE JUMP JUMPDEST SWAP3 POP POP DUP2 SWAP1 SSTORE POP PUSH2 0xE50 PUSH8 0xCD70611973631B5F PUSH1 0xC0 SHL PUSH2 0x1900 JUMP JUMPDEST PUSH2 0xE64 PUSH8 0x6B41BB28CC5184FD PUSH1 0xC0 SHL PUSH2 0x1900 JUMP JUMPDEST DUP3 DUP2 DUP2 MLOAD DUP2 LT PUSH2 0xE77 JUMPI PUSH2 0xE76 PUSH2 0x2604 JUMP JUMPDEST JUMPDEST PUSH1 0x20 MUL PUSH1 0x20 ADD ADD MLOAD PUSH20 0xFFFFFFFFFFFFFFFFFFFFFFFFFFFFFFFFFFFFFFFF AND PUSH32 0x4C44BDC7C4678AC452A89C8B93511EB6592FF47A3660C4D6BB1847E957308ACF DUP4 DUP4 DUP2 MLOAD DUP2 LT PUSH2 0xEC9 JUMPI PUSH2 0xEC8 PUSH2 0x2604 JUMP JUMPDEST JUMPDEST PUSH1 0x20 MUL PUSH1 0x20 ADD ADD MLOAD TIMESTAMP PUSH1 0x40 MLOAD PUSH2 0xEE0 SWAP3 SWAP2 SWAP1 PUSH2 0x2702 JUMP JUMPDEST PUSH1 0x40 MLOAD DUP1 SWAP2 SUB SWAP1 LOG2 DUP1 DUP1 PUSH2 0xEF3 SWAP1 PUSH2 0x272B JUMP JUMPDEST SWAP2 POP POP PUSH2 0xC89 JUMP JUMPDEST POP POP POP POP PUSH2 0xF07 PUSH2 0x1A33 JUMP JUMPDEST JUMP JUMPDEST PUSH1 0x7 SLOAD DUP2 JUMP JUMPDEST PUSH1 0x0 DUP1 PUSH1 0x0 SWAP1 SLOAD SWAP1 PUSH2 0x100 EXP SWAP1 DIV PUSH20 0xFFFFFFFFFFFFFFFFFFFFFFFFFFFFFFFFFFFFFFFF AND SWAP1 POP SWAP1 JUMP JUMPDEST PUSH1 0x60 PUSH2 0xF4E PUSH8 0xA92DA3C11A73D690 PUSH1 0xC0 SHL PUSH2 0x1900 JUMP JUMPDEST PUSH2 0xF62 PUSH8 0x35AF4BB85169DF8C PUSH1 0xC0 SHL PUSH2 0x1900 JUMP JUMPDEST PUSH2 0xF76 PUSH8 0xF3F0C0885FA1F94F PUSH1 0xC0 SHL PUSH2 0x1900 JUMP JUMPDEST PUSH1 0xB DUP1 SLOAD DUP1 PUSH1 0x20 MUL PUSH1 0x20 ADD PUSH1 0x40 MLOAD SWAP1 DUP2 ADD PUSH1 0x40 MSTORE DUP1 SWAP3 SWAP2 SWAP1 DUP2 DUP2 MSTORE PUSH1 0x20 ADD DUP3 DUP1 SLOAD DUP1 ISZERO PUSH2 0xFF8 JUMPI PUSH1 0x20 MUL DUP3 ADD SWAP2 SWAP1 PUSH1 0x0 MSTORE PUSH1 0x20 PUSH1 0x0 KECCAK256 SWAP1 JUMPDEST DUP2 PUSH1 0x0 SWAP1 SLOAD SWAP1 PUSH2 0x100 EXP SWAP1 DIV PUSH20 0xFFFFFFFFFFFFFFFFFFFFFFFFFFFFFFFFFFFFFFFF AND PUSH20 0xFFFFFFFFFFFFFFFFFFFFFFFFFFFFFFFFFFFFFFFF AND DUP2 MSTORE PUSH1 0x20 ADD SWAP1 PUSH1 0x1 ADD SWAP1 DUP1 DUP4 GT PUSH2 0xFAE JUMPI JUMPDEST POP POP POP POP POP SWAP1 POP SWAP1 JUMP JUMPDEST PUSH1 0x3 PUSH1 0x0 SWAP1 SLOAD SWAP1 PUSH2 0x100 EXP SWAP1 DIV PUSH20 0xFFFFFFFFFFFFFFFFFFFFFFFFFFFFFFFFFFFFFFFF AND DUP2 JUMP JUMPDEST PUSH1 0x4 PUSH1 0x0 SWAP1 SLOAD SWAP1 PUSH2 0x100 EXP SWAP1 DIV PUSH20 0xFFFFFFFFFFFFFFFFFFFFFFFFFFFFFFFFFFFFFFFF AND DUP2 JUMP JUMPDEST PUSH2 0x1062 PUSH8 0x986738D3C76D05C2 PUSH1 0xC0 SHL PUSH2 0x1900 JUMP JUMPDEST PUSH2 0x106A PUSH2 0x1903 JUMP JUMPDEST PUSH2 0x107E PUSH8 0x3BA056778EF606D9 PUSH1 0xC0 SHL PUSH2 0x1900 JUMP JUMPDEST PUSH2 0x1092 PUSH8 0xD5B107106617C570 PUSH1 0xC0 SHL PUSH2 0x1900 JUMP JUMPDEST PUSH2 0x109A PUSH2 0x19E4 JUMP JUMPDEST PUSH2 0x10AE PUSH8 0xCBF76476FC78B6ED PUSH1 0xC0 SHL PUSH2 0x1900 JUMP JUMPDEST PUSH2 0x10C2 PUSH8 0x9955FAD00BBC41A1 PUSH1 0xC0 SHL PUSH2 0x1900 JUMP JUMPDEST PUSH2 0x10D6 PUSH8 0xA3E30406DF1EB2A8 PUSH1 0xC0 SHL PUSH2 0x1900 JUMP JUMPDEST PUSH2 0x10EA PUSH8 0x89B18A1B1CCD43C2 PUSH1 0xC0 SHL PUSH2 0x1900 JUMP JUMPDEST PUSH2 0x10FE PUSH8 0xF32E960047DAE78F PUSH1 0xC0 SHL PUSH2 0x1900 JUMP JUMPDEST PUSH1 0x0 DUP2 GT PUSH2 0x1141 JUMPI PUSH1 0x40 MLOAD PUSH32 0x8C379A000000000000000000000000000000000000000000000000000000000 DUP2 MSTORE PUSH1 0x4 ADD PUSH2 0x1138 SWAP1 PUSH2 0x1FF5 JUMP JUMPDEST PUSH1 0x40 MLOAD DUP1 SWAP2 SUB SWAP1 REVERT JUMPDEST PUSH2 0x1155 PUSH8 0xABD43AF76E9289C8 PUSH1 0xC0 SHL PUSH2 0x1900 JUMP JUMPDEST PUSH2 0x1169 PUSH8 0x80C7C17B257BC181 PUSH1 0xC0 SHL PUSH2 0x1900 JUMP JUMPDEST PUSH2 0x117D PUSH8 0x3D71D89D81BB76FA PUSH1 0xC0 SHL PUSH2 0x1900 JUMP JUMPDEST PUSH1 0x0 PUSH1 0x3 PUSH1 0x0 SWAP1 SLOAD SWAP1 PUSH2 0x100 EXP SWAP1 DIV PUSH20 0xFFFFFFFFFFFFFFFFFFFFFFFFFFFFFFFFFFFFFFFF AND PUSH20 0xFFFFFFFFFFFFFFFFFFFFFFFFFFFFFFFFFFFFFFFF AND PUSH4 0x69328DEC PUSH1 0x2 PUSH1 0x1 SWAP1 SLOAD SWAP1 PUSH2 0x100 EXP SWAP1 DIV PUSH20 0xFFFFFFFFFFFFFFFFFFFFFFFFFFFFFFFFFFFFFFFF AND DUP5 ADDRESS PUSH1 0x40 MLOAD DUP5 PUSH4 0xFFFFFFFF AND PUSH1 0xE0 SHL DUP2 MSTORE PUSH1 0x4 ADD PUSH2 0x1200 SWAP4 SWAP3 SWAP2 SWAP1 PUSH2 0x2773 JUMP JUMPDEST PUSH1 0x20 PUSH1 0x40 MLOAD DUP1 DUP4 SUB DUP2 PUSH1 0x0 DUP8 GAS CALL ISZERO DUP1 ISZERO PUSH2 0x121F JUMPI RETURNDATASIZE PUSH1 0x0 DUP1 RETURNDATACOPY RETURNDATASIZE PUSH1 0x0 REVERT JUMPDEST POP POP POP POP PUSH1 0x40 MLOAD RETURNDATASIZE PUSH1 0x1F NOT PUSH1 0x1F DUP3 ADD AND DUP3 ADD DUP1 PUSH1 0x40 MSTORE POP DUP2 ADD SWAP1 PUSH2 0x1243 SWAP2 SWAP1 PUSH2 0x21A6 JUMP JUMPDEST SWAP1 POP PUSH2 0x1259 PUSH8 0x310ED4B19EBB6EF4 PUSH1 0xC0 SHL PUSH2 0x1900 JUMP JUMPDEST PUSH2 0x126D PUSH8 0xEB940DEC854BF1D9 PUSH1 0xC0 SHL PUSH2 0x1900 JUMP JUMPDEST PUSH2 0x1281 PUSH8 0x5E6DFE70F5C8B06A PUSH1 0xC0 SHL PUSH2 0x1900 JUMP JUMPDEST PUSH1 0x0 DUP2 GT PUSH2 0x12C4 JUMPI PUSH1 0x40 MLOAD PUSH32 0x8C379A000000000000000000000000000000000000000000000000000000000 DUP2 MSTORE PUSH1 0x4 ADD PUSH2 0x12BB SWAP1 PUSH2 0x27F6 JUMP JUMPDEST PUSH1 0x40 MLOAD DUP1 SWAP2 SUB SWAP1 REVERT JUMPDEST PUSH2 0x12D8 PUSH8 0x49B2B4B1E08D11FC PUSH1 0xC0 SHL PUSH2 0x1900 JUMP JUMPDEST PUSH2 0x12EC PUSH8 0x344FA4EC7521AB52 PUSH1 0xC0 SHL PUSH2 0x1900 JUMP JUMPDEST DUP1 PUSH1 0x7 PUSH1 0x0 DUP3 DUP3 SLOAD PUSH2 0x12FE SWAP2 SWAP1 PUSH2 0x26CE JUMP JUMPDEST SWAP3 POP POP DUP2 SWAP1 SSTORE POP POP PUSH2 0x130E PUSH2 0x1A33 JUMP JUMPDEST POP JUMP JUMPDEST PUSH1 0x8 SLOAD DUP2 JUMP JUMPDEST PUSH1 0x9 PUSH1 0x20 MSTORE DUP1 PUSH1 0x0 MSTORE PUSH1 0x40 PUSH1 0x0 KECCAK256 PUSH1 0x0 SWAP2 POP SWAP1 POP SLOAD DUP2 JUMP JUMPDEST PUSH1 0x6 SLOAD DUP2 JUMP JUMPDEST PUSH2 0x1349 PUSH8 0x9A6D290A942F4B94 PUSH1 0xC0 SHL PUSH2 0x1900 JUMP JUMPDEST PUSH2 0x1351 PUSH2 0x19E4 JUMP JUMPDEST PUSH2 0x1365 PUSH8 0xB49DC1862227A674 PUSH1 0xC0 SHL PUSH2 0x1900 JUMP JUMPDEST PUSH2 0x1379 PUSH8 0xD4663567BCE24FBB PUSH1 0xC0 SHL PUSH2 0x1900 JUMP JUMPDEST PUSH2 0x1381 PUSH2 0x1B63 JUMP JUMPDEST PUSH2 0x1395 PUSH8 0x37E797A9213E14D6 PUSH1 0xC0 SHL PUSH2 0x1900 JUMP JUMPDEST PUSH2 0x13A9 PUSH8 0xBE23A836189774B5 PUSH1 0xC0 SHL PUSH2 0x1900 JUMP JUMPDEST PUSH2 0x13BD PUSH8 0x5CC9693AEA2DF001 PUSH1 0xC0 SHL PUSH2 0x1900 JUMP JUMPDEST PUSH2 0x13D1 PUSH8 0x2BFC369A7366F98E PUSH1 0xC0 SHL PUSH2 0x1900 JUMP JUMPDEST PUSH2 0x13E5 PUSH8 0xA7E971ACA6AC7FE1 PUSH1 0xC0 SHL PUSH2 0x1900 JUMP JUMPDEST PUSH1 0x0 DUP2 GT PUSH2 0x1428 JUMPI PUSH1 0x40 MLOAD PUSH32 0x8C379A000000000000000000000000000000000000000000000000000000000 DUP2 MSTORE PUSH1 0x4 ADD PUSH2 0x141F SWAP1 PUSH2 0x1FF5 JUMP JUMPDEST PUSH1 0x40 MLOAD DUP1 SWAP2 SUB SWAP1 REVERT JUMPDEST PUSH2 0x143C PUSH8 0x293F0EC3FF0DCFEE PUSH1 0xC0 SHL PUSH2 0x1900 JUMP JUMPDEST PUSH2 0x1450 PUSH8 0x251063D0FF51F0D0 PUSH1 0xC0 SHL PUSH2 0x1900 JUMP JUMPDEST PUSH2 0x1464 PUSH8 0x1C49159740DB06D PUSH1 0xC0 SHL PUSH2 0x1900 JUMP JUMPDEST PUSH2 0x1478 PUSH8 0x6D0FD02E47CF2EAE PUSH1 0xC0 SHL PUSH2 0x1900 JUMP JUMPDEST PUSH1 0x2 PUSH1 0x1 SWAP1 SLOAD SWAP1 PUSH2 0x100 EXP SWAP1 DIV PUSH20 0xFFFFFFFFFFFFFFFFFFFFFFFFFFFFFFFFFFFFFFFF AND PUSH20 0xFFFFFFFFFFFFFFFFFFFFFFFFFFFFFFFFFFFFFFFF AND PUSH4 0x23B872DD CALLER ADDRESS DUP5 PUSH1 0x40 MLOAD DUP5 PUSH4 0xFFFFFFFF AND PUSH1 0xE0 SHL DUP2 MSTORE PUSH1 0x4 ADD PUSH2 0x14D7 SWAP4 SWAP3 SWAP2 SWAP1 PUSH2 0x2816 JUMP JUMPDEST PUSH1 0x20 PUSH1 0x40 MLOAD DUP1 DUP4 SUB DUP2 PUSH1 0x0 DUP8 GAS CALL ISZERO DUP1 ISZERO PUSH2 0x14F6 JUMPI RETURNDATASIZE PUSH1 0x0 DUP1 RETURNDATACOPY RETURNDATASIZE PUSH1 0x0 REVERT JUMPDEST POP POP POP POP PUSH1 0x40 MLOAD RETURNDATASIZE PUSH1 0x1F NOT PUSH1 0x1F DUP3 ADD AND DUP3 ADD DUP1 PUSH1 0x40 MSTORE POP DUP2 ADD SWAP1 PUSH2 0x151A SWAP2 SWAP1 PUSH2 0x206A JUMP JUMPDEST PUSH2 0x1559 JUMPI PUSH1 0x40 MLOAD PUSH32 0x8C379A000000000000000000000000000000000000000000000000000000000 DUP2 MSTORE PUSH1 0x4 ADD PUSH2 0x1550 SWAP1 PUSH2 0x267F JUMP JUMPDEST PUSH1 0x40 MLOAD DUP1 SWAP2 SUB SWAP1 REVERT JUMPDEST PUSH2 0x156D PUSH8 0x414DAC292E95A833 PUSH1 0xC0 SHL PUSH2 0x1900 JUMP JUMPDEST PUSH2 0x1581 PUSH8 0xF6A4F28893C88EE7 PUSH1 0xC0 SHL PUSH2 0x1900 JUMP JUMPDEST PUSH2 0x1595 PUSH8 0xC5B6CAD594A25219 PUSH1 0xC0 SHL PUSH2 0x1900 JUMP JUMPDEST PUSH1 0xC PUSH1 0x0 CALLER PUSH20 0xFFFFFFFFFFFFFFFFFFFFFFFFFFFFFFFFFFFFFFFF AND PUSH20 0xFFFFFFFFFFFFFFFFFFFFFFFFFFFFFFFFFFFFFFFF AND DUP2 MSTORE PUSH1 0x20 ADD SWAP1 DUP2 MSTORE PUSH1 0x20 ADD PUSH1 0x0 KECCAK256 PUSH1 0x0 SWAP1 SLOAD SWAP1 PUSH2 0x100 EXP SWAP1 DIV PUSH1 0xFF AND PUSH2 0x16F6 JUMPI PUSH2 0x15FA PUSH8 0xDA553F9B8013B0D4 PUSH1 0xC0 SHL PUSH2 0x1900 JUMP JUMPDEST PUSH2 0x160E PUSH8 0xA03637F7545F378A PUSH1 0xC0 SHL PUSH2 0x1900 JUMP JUMPDEST PUSH1 0x1 PUSH1 0xC PUSH1 0x0 CALLER PUSH20 0xFFFFFFFFFFFFFFFFFFFFFFFFFFFFFFFFFFFFFFFF AND PUSH20 0xFFFFFFFFFFFFFFFFFFFFFFFFFFFFFFFFFFFFFFFF AND DUP2 MSTORE PUSH1 0x20 ADD SWAP1 DUP2 MSTORE PUSH1 0x20 ADD PUSH1 0x0 KECCAK256 PUSH1 0x0 PUSH2 0x100 EXP DUP2 SLOAD DUP2 PUSH1 0xFF MUL NOT AND SWAP1 DUP4 ISZERO ISZERO MUL OR SWAP1 SSTORE POP PUSH2 0x167A PUSH8 0x19FA2095DA6E55E3 PUSH1 0xC0 SHL PUSH2 0x1900 JUMP JUMPDEST PUSH2 0x168E PUSH8 0x87CEFF20697B9039 PUSH1 0xC0 SHL PUSH2 0x1900 JUMP JUMPDEST PUSH1 0xB CALLER SWAP1 DUP1 PUSH1 0x1 DUP2 SLOAD ADD DUP1 DUP3 SSTORE DUP1 SWAP2 POP POP PUSH1 0x1 SWAP1 SUB SWAP1 PUSH1 0x0 MSTORE PUSH1 0x20 PUSH1 0x0 KECCAK256 ADD PUSH1 0x0 SWAP1 SWAP2 SWAP1 SWAP2 SWAP1 SWAP2 PUSH2 0x100 EXP DUP2 SLOAD DUP2 PUSH20 0xFFFFFFFFFFFFFFFFFFFFFFFFFFFFFFFFFFFFFFFF MUL NOT AND SWAP1 DUP4 PUSH20 0xFFFFFFFFFFFFFFFFFFFFFFFFFFFFFFFFFFFFFFFF AND MUL OR SWAP1 SSTORE POP PUSH2 0x170B JUMP JUMPDEST PUSH2 0x170A PUSH8 0x7CBA8226DD57562C PUSH1 0xC0 SHL PUSH2 0x1900 JUMP JUMPDEST JUMPDEST PUSH2 0x171F PUSH8 0x49407D6527314C8C PUSH1 0xC0 SHL PUSH2 0x1900 JUMP JUMPDEST DUP1 PUSH1 0x9 PUSH1 0x0 CALLER PUSH20 0xFFFFFFFFFFFFFFFFFFFFFFFFFFFFFFFFFFFFFFFF AND PUSH20 0xFFFFFFFFFFFFFFFFFFFFFFFFFFFFFFFFFFFFFFFF AND DUP2 MSTORE PUSH1 0x20 ADD SWAP1 DUP2 MSTORE PUSH1 0x20 ADD PUSH1 0x0 KECCAK256 PUSH1 0x0 DUP3 DUP3 SLOAD PUSH2 0x176E SWAP2 SWAP1 PUSH2 0x26CE JUMP JUMPDEST SWAP3 POP POP DUP2 SWAP1 SSTORE POP PUSH2 0x1789 PUSH8 0x7D0F33072FB4ABD5 PUSH1 0xC0 SHL PUSH2 0x1900 JUMP JUMPDEST TIMESTAMP PUSH1 0xA PUSH1 0x0 CALLER PUSH20 0xFFFFFFFFFFFFFFFFFFFFFFFFFFFFFFFFFFFFFFFF AND PUSH20 0xFFFFFFFFFFFFFFFFFFFFFFFFFFFFFFFFFFFFFFFF AND DUP2 MSTORE PUSH1 0x20 ADD SWAP1 DUP2 MSTORE PUSH1 0x20 ADD PUSH1 0x0 KECCAK256 DUP2 SWAP1 SSTORE POP PUSH2 0x17E1 PUSH8 0x43DE3C4DE08635AA PUSH1 0xC0 SHL PUSH2 0x1900 JUMP JUMPDEST DUP1 PUSH1 0x6 PUSH1 0x0 DUP3 DUP3 SLOAD PUSH2 0x17F3 SWAP2 SWAP1 PUSH2 0x26CE JUMP JUMPDEST SWAP3 POP POP DUP2 SWAP1 SSTORE POP PUSH2 0x180E PUSH8 0xEAD0C4D053894690 PUSH1 0xC0 SHL PUSH2 0x1900 JUMP JUMPDEST PUSH2 0x1822 PUSH8 0xA71E5AB73715CE43 PUSH1 0xC0 SHL PUSH2 0x1900 JUMP JUMPDEST CALLER PUSH20 0xFFFFFFFFFFFFFFFFFFFFFFFFFFFFFFFFFFFFFFFF AND PUSH32 0x4B0304AB2F313234B1CEA012339C8F8C3BF2C8BB357D81A579CFDB35D2E3D030 DUP3 TIMESTAMP PUSH1 0x40 MLOAD PUSH2 0x186A SWAP3 SWAP2 SWAP1 PUSH2 0x2702 JUMP JUMPDEST PUSH1 0x40 MLOAD DUP1 SWAP2 SUB SWAP1 LOG2 PUSH2 0x187A PUSH2 0x1A33 JUMP JUMPDEST POP JUMP JUMPDEST PUSH2 0x1885 PUSH2 0x1903 JUMP JUMPDEST PUSH1 0x0 PUSH20 0xFFFFFFFFFFFFFFFFFFFFFFFFFFFFFFFFFFFFFFFF AND DUP2 PUSH20 0xFFFFFFFFFFFFFFFFFFFFFFFFFFFFFFFFFFFFFFFF AND SUB PUSH2 0x18F4 JUMPI PUSH1 0x40 MLOAD PUSH32 0x8C379A000000000000000000000000000000000000000000000000000000000 DUP2 MSTORE PUSH1 0x4 ADD PUSH2 0x18EB SWAP1 PUSH2 0x28BF JUMP JUMPDEST PUSH1 0x40 MLOAD DUP1 SWAP2 SUB SWAP1 REVERT JUMPDEST PUSH2 0x18FD DUP2 PUSH2 0x1A3C JUMP JUMPDEST POP JUMP JUMPDEST POP JUMP JUMPDEST PUSH2 0x190B PUSH2 0x1BAD JUMP JUMPDEST PUSH20 0xFFFFFFFFFFFFFFFFFFFFFFFFFFFFFFFFFFFFFFFF AND PUSH2 0x1929 PUSH2 0xF0F JUMP JUMPDEST PUSH20 0xFFFFFFFFFFFFFFFFFFFFFFFFFFFFFFFFFFFFFFFF AND EQ PUSH2 0x197F JUMPI PUSH1 0x40 MLOAD PUSH32 0x8C379A000000000000000000000000000000000000000000000000000000000 DUP2 MSTORE PUSH1 0x4 ADD PUSH2 0x1976 SWAP1 PUSH2 0x292B JUMP JUMPDEST PUSH1 0x40 MLOAD DUP1 SWAP2 SUB SWAP1 REVERT JUMPDEST JUMP JUMPDEST PUSH2 0x1989 PUSH2 0x1BB5 JUMP JUMPDEST PUSH1 0x0 PUSH1 0x2 PUSH1 0x0 PUSH2 0x100 EXP DUP2 SLOAD DUP2 PUSH1 0xFF MUL NOT AND SWAP1 DUP4 ISZERO ISZERO MUL OR SWAP1 SSTORE POP PUSH32 0x5DB9EE0A495BF2E6FF9C91A7834C1BA4FDD244A5E8AA4E537BD38AEAE4B073AA PUSH2 0x19CD PUSH2 0x1BAD JUMP JUMPDEST PUSH1 0x40 MLOAD PUSH2 0x19DA SWAP2 SWAP1 PUSH2 0x1DEF JUMP JUMPDEST PUSH1 0x40 MLOAD DUP1 SWAP2 SUB SWAP1 LOG1 JUMP JUMPDEST PUSH1 0x2 PUSH1 0x1 SLOAD SUB PUSH2 0x1A29 JUMPI PUSH1 0x40 MLOAD PUSH32 0x8C379A000000000000000000000000000000000000000000000000000000000 DUP2 MSTORE PUSH1 0x4 ADD PUSH2 0x1A20 SWAP1 PUSH2 0x2997 JUMP JUMPDEST PUSH1 0x40 MLOAD DUP1 SWAP2 SUB SWAP1 REVERT JUMPDEST PUSH1 0x2 PUSH1 0x1 DUP2 SWAP1 SSTORE POP JUMP JUMPDEST PUSH1 0x1 DUP1 DUP2 SWAP1 SSTORE POP JUMP JUMPDEST PUSH1 0x0 DUP1 PUSH1 0x0 SWAP1 SLOAD SWAP1 PUSH2 0x100 EXP SWAP1 DIV PUSH20 0xFFFFFFFFFFFFFFFFFFFFFFFFFFFFFFFFFFFFFFFF AND SWAP1 POP DUP2 PUSH1 0x0 DUP1 PUSH2 0x100 EXP DUP2 SLOAD DUP2 PUSH20 0xFFFFFFFFFFFFFFFFFFFFFFFFFFFFFFFFFFFFFFFF MUL NOT AND SWAP1 DUP4 PUSH20 0xFFFFFFFFFFFFFFFFFFFFFFFFFFFFFFFFFFFFFFFF AND MUL OR SWAP1 SSTORE POP DUP2 PUSH20 0xFFFFFFFFFFFFFFFFFFFFFFFFFFFFFFFFFFFFFFFF AND DUP2 PUSH20 0xFFFFFFFFFFFFFFFFFFFFFFFFFFFFFFFFFFFFFFFF AND PUSH32 0x8BE0079C531659141344CD1FD0A4F28419497F9722A3DAAFE3B4186F6B6457E0 PUSH1 0x40 MLOAD PUSH1 0x40 MLOAD DUP1 SWAP2 SUB SWAP1 LOG3 POP POP JUMP JUMPDEST PUSH2 0x1B08 PUSH2 0x1B63 JUMP JUMPDEST PUSH1 0x1 PUSH1 0x2 PUSH1 0x0 PUSH2 0x100 EXP DUP2 SLOAD DUP2 PUSH1 0xFF MUL NOT AND SWAP1 DUP4 ISZERO ISZERO MUL OR SWAP1 SSTORE POP PUSH32 0x62E78CEA01BEE320CD4E420270B5EA74000D11B0C9F74754EBDBFC544B05A258 PUSH2 0x1B4C PUSH2 0x1BAD JUMP JUMPDEST PUSH1 0x40 MLOAD PUSH2 0x1B59 SWAP2 SWAP1 PUSH2 0x1DEF JUMP JUMPDEST PUSH1 0x40 MLOAD DUP1 SWAP2 SUB SWAP1 LOG1 JUMP JUMPDEST PUSH2 0x1B6B PUSH2 0x591 JUMP JUMPDEST ISZERO PUSH2 0x1BAB JUMPI PUSH1 0x40 MLOAD PUSH32 0x8C379A000000000000000000000000000000000000000000000000000000000 DUP2 MSTORE PUSH1 0x4 ADD PUSH2 0x1BA2 SWAP1 PUSH2 0x2A03 JUMP JUMPDEST PUSH1 0x40 MLOAD DUP1 SWAP2 SUB SWAP1 REVERT JUMPDEST JUMP JUMPDEST PUSH1 0x0 CALLER SWAP1 POP SWAP1 JUMP JUMPDEST PUSH2 0x1BBD PUSH2 0x591 JUMP JUMPDEST PUSH2 0x1BFC JUMPI PUSH1 0x40 MLOAD PUSH32 0x8C379A000000000000000000000000000000000000000000000000000000000 DUP2 MSTORE PUSH1 0x4 ADD PUSH2 0x1BF3 SWAP1 PUSH2 0x2A6F JUMP JUMPDEST PUSH1 0x40 MLOAD DUP1 SWAP2 SUB SWAP1 REVERT JUMPDEST JUMP JUMPDEST PUSH1 0x0 PUSH1 0x40 MLOAD SWAP1 POP SWAP1 JUMP JUMPDEST PUSH1 0x0 DUP1 REVERT JUMPDEST PUSH1 0x0 DUP1 REVERT JUMPDEST PUSH1 0x0 PUSH20 0xFFFFFFFFFFFFFFFFFFFFFFFFFFFFFFFFFFFFFFFF DUP3 AND SWAP1 POP SWAP2 SWAP1 POP JUMP JUMPDEST PUSH1 0x0 PUSH2 0x1C3D DUP3 PUSH2 0x1C12 JUMP JUMPDEST SWAP1 POP SWAP2 SWAP1 POP JUMP JUMPDEST PUSH2 0x1C4D DUP2 PUSH2 0x1C32 JUMP JUMPDEST DUP2 EQ PUSH2 0x1C58 JUMPI PUSH1 0x0 DUP1 REVERT JUMPDEST POP JUMP JUMPDEST PUSH1 0x0 DUP2 CALLDATALOAD SWAP1 POP PUSH2 0x1C6A DUP2 PUSH2 0x1C44 JUMP JUMPDEST SWAP3 SWAP2 POP POP JUMP JUMPDEST PUSH1 0x0 PUSH1 0x20 DUP3 DUP5 SUB SLT ISZERO PUSH2 0x1C86 JUMPI PUSH2 0x1C85 PUSH2 0x1C08 JUMP JUMPDEST JUMPDEST PUSH1 0x0 PUSH2 0x1C94 DUP5 DUP3 DUP6 ADD PUSH2 0x1C5B JUMP JUMPDEST SWAP2 POP POP SWAP3 SWAP2 POP POP JUMP JUMPDEST PUSH1 0x0 DUP2 SWAP1 POP SWAP2 SWAP1 POP JUMP JUMPDEST PUSH2 0x1CB0 DUP2 PUSH2 0x1C9D JUMP JUMPDEST DUP3 MSTORE POP POP JUMP JUMPDEST PUSH1 0x0 PUSH1 0x20 DUP3 ADD SWAP1 POP PUSH2 0x1CCB PUSH1 0x0 DUP4 ADD DUP5 PUSH2 0x1CA7 JUMP JUMPDEST SWAP3 SWAP2 POP POP JUMP JUMPDEST PUSH1 0x0 DUP2 SWAP1 POP SWAP2 SWAP1 POP JUMP JUMPDEST PUSH1 0x0 PUSH2 0x1CF6 PUSH2 0x1CF1 PUSH2 0x1CEC DUP5 PUSH2 0x1C12 JUMP JUMPDEST PUSH2 0x1CD1 JUMP JUMPDEST PUSH2 0x1C12 JUMP JUMPDEST SWAP1 POP SWAP2 SWAP1 POP JUMP JUMPDEST PUSH1 0x0 PUSH2 0x1D08 DUP3 PUSH2 0x1CDB JUMP JUMPDEST SWAP1 POP SWAP2 SWAP1 POP JUMP JUMPDEST PUSH1 0x0 PUSH2 0x1D1A DUP3 PUSH2 0x1CFD JUMP JUMPDEST SWAP1 POP SWAP2 SWAP1 POP JUMP JUMPDEST PUSH2 0x1D2A DUP2 PUSH2 0x1D0F JUMP JUMPDEST DUP3 MSTORE POP POP JUMP JUMPDEST PUSH1 0x0 PUSH1 0x20 DUP3 ADD SWAP1 POP PUSH2 0x1D45 PUSH1 0x0 DUP4 ADD DUP5 PUSH2 0x1D21 JUMP JUMPDEST SWAP3 SWAP2 POP POP JUMP JUMPDEST PUSH1 0x0 PUSH2 0x1D56 DUP3 PUSH2 0x1CFD JUMP JUMPDEST SWAP1 POP SWAP2 SWAP1 POP JUMP JUMPDEST PUSH2 0x1D66 DUP2 PUSH2 0x1D4B JUMP JUMPDEST DUP3 MSTORE POP POP JUMP JUMPDEST PUSH1 0x0 PUSH1 0x20 DUP3 ADD SWAP1 POP PUSH2 0x1D81 PUSH1 0x0 DUP4 ADD DUP5 PUSH2 0x1D5D JUMP JUMPDEST SWAP3 SWAP2 POP POP JUMP JUMPDEST PUSH2 0x1D90 DUP2 PUSH2 0x1C9D JUMP JUMPDEST DUP2 EQ PUSH2 0x1D9B JUMPI PUSH1 0x0 DUP1 REVERT JUMPDEST POP JUMP JUMPDEST PUSH1 0x0 DUP2 CALLDATALOAD SWAP1 POP PUSH2 0x1DAD DUP2 PUSH2 0x1D87 JUMP JUMPDEST SWAP3 SWAP2 POP POP JUMP JUMPDEST PUSH1 0x0 PUSH1 0x20 DUP3 DUP5 SUB SLT ISZERO PUSH2 0x1DC9 JUMPI PUSH2 0x1DC8 PUSH2 0x1C08 JUMP JUMPDEST JUMPDEST PUSH1 0x0 PUSH2 0x1DD7 DUP5 DUP3 DUP6 ADD PUSH2 0x1D9E JUMP JUMPDEST SWAP2 POP POP SWAP3 SWAP2 POP POP JUMP JUMPDEST PUSH2 0x1DE9 DUP2 PUSH2 0x1C32 JUMP JUMPDEST DUP3 MSTORE POP POP JUMP JUMPDEST PUSH1 0x0 PUSH1 0x20 DUP3 ADD SWAP1 POP PUSH2 0x1E04 PUSH1 0x0 DUP4 ADD DUP5 PUSH2 0x1DE0 JUMP JUMPDEST SWAP3 SWAP2 POP POP JUMP JUMPDEST PUSH1 0x0 DUP2 ISZERO ISZERO SWAP1 POP SWAP2 SWAP1 POP JUMP JUMPDEST PUSH2 0x1E1F DUP2 PUSH2 0x1E0A JUMP JUMPDEST DUP3 MSTORE POP POP JUMP JUMPDEST PUSH1 0x0 PUSH1 0x20 DUP3 ADD SWAP1 POP PUSH2 0x1E3A PUSH1 0x0 DUP4 ADD DUP5 PUSH2 0x1E16 JUMP JUMPDEST SWAP3 SWAP2 POP POP JUMP JUMPDEST PUSH1 0x0 DUP2 MLOAD SWAP1 POP SWAP2 SWAP1 POP JUMP JUMPDEST PUSH1 0x0 DUP3 DUP3 MSTORE PUSH1 0x20 DUP3 ADD SWAP1 POP SWAP3 SWAP2 POP POP JUMP JUMPDEST PUSH1 0x0 DUP2 SWAP1 POP PUSH1 0x20 DUP3 ADD SWAP1 POP SWAP2 SWAP1 POP JUMP JUMPDEST PUSH2 0x1E75 DUP2 PUSH2 0x1C32 JUMP JUMPDEST DUP3 MSTORE POP POP JUMP JUMPDEST PUSH1 0x0 PUSH2 0x1E87 DUP4 DUP4 PUSH2 0x1E6C JUMP JUMPDEST PUSH1 0x20 DUP4 ADD SWAP1 POP SWAP3 SWAP2 POP POP JUMP JUMPDEST PUSH1 0x0 PUSH1 0x20 DUP3 ADD SWAP1 POP SWAP2 SWAP1 POP JUMP JUMPDEST PUSH1 0x0 PUSH2 0x1EAB DUP3 PUSH2 0x1E40 JUMP JUMPDEST PUSH2 0x1EB5 DUP2 DUP6 PUSH2 0x1E4B JUMP JUMPDEST SWAP4 POP PUSH2 0x1EC0 DUP4 PUSH2 0x1E5C JUMP JUMPDEST DUP1 PUSH1 0x0 JUMPDEST DUP4 DUP2 LT ISZERO PUSH2 0x1EF1 JUMPI DUP2 MLOAD PUSH2 0x1ED8 DUP9 DUP3 PUSH2 0x1E7B JUMP JUMPDEST SWAP8 POP PUSH2 0x1EE3 DUP4 PUSH2 0x1E93 JUMP JUMPDEST SWAP3 POP POP PUSH1 0x1 DUP2 ADD SWAP1 POP PUSH2 0x1EC4 JUMP JUMPDEST POP DUP6 SWAP4 POP POP POP POP SWAP3 SWAP2 POP POP JUMP JUMPDEST PUSH1 0x0 PUSH1 0x20 DUP3 ADD SWAP1 POP DUP2 DUP2 SUB PUSH1 0x0 DUP4 ADD MSTORE PUSH2 0x1F18 DUP2 DUP5 PUSH2 0x1EA0 JUMP JUMPDEST SWAP1 POP SWAP3 SWAP2 POP POP JUMP JUMPDEST PUSH1 0x0 PUSH2 0x1F2B DUP3 PUSH2 0x1CFD JUMP JUMPDEST SWAP1 POP SWAP2 SWAP1 POP JUMP JUMPDEST PUSH2 0x1F3B DUP2 PUSH2 0x1F20 JUMP JUMPDEST DUP3 MSTORE POP POP JUMP JUMPDEST PUSH1 0x0 PUSH1 0x20 DUP3 ADD SWAP1 POP PUSH2 0x1F56 PUSH1 0x0 DUP4 ADD DUP5 PUSH2 0x1F32 JUMP JUMPDEST SWAP3 SWAP2 POP POP JUMP JUMPDEST PUSH1 0x0 PUSH2 0x1F67 DUP3 PUSH2 0x1CFD JUMP JUMPDEST SWAP1 POP SWAP2 SWAP1 POP JUMP JUMPDEST PUSH2 0x1F77 DUP2 PUSH2 0x1F5C JUMP JUMPDEST DUP3 MSTORE POP POP JUMP JUMPDEST PUSH1 0x0 PUSH1 0x20 DUP3 ADD SWAP1 POP PUSH2 0x1F92 PUSH1 0x0 DUP4 ADD DUP5 PUSH2 0x1F6E JUMP JUMPDEST SWAP3 SWAP2 POP POP JUMP JUMPDEST PUSH1 0x0 DUP3 DUP3 MSTORE PUSH1 0x20 DUP3 ADD SWAP1 POP SWAP3 SWAP2 POP POP JUMP JUMPDEST PUSH32 0x416D6F756E74206D7573742062652067726561746572207468616E2030000000 PUSH1 0x0 DUP3 ADD MSTORE POP JUMP JUMPDEST PUSH1 0x0 PUSH2 0x1FDF PUSH1 0x1D DUP4 PUSH2 0x1F98 JUMP JUMPDEST SWAP2 POP PUSH2 0x1FEA DUP3 PUSH2 0x1FA9 JUMP JUMPDEST PUSH1 0x20 DUP3 ADD SWAP1 POP SWAP2 SWAP1 POP JUMP JUMPDEST PUSH1 0x0 PUSH1 0x20 DUP3 ADD SWAP1 POP DUP2 DUP2 SUB PUSH1 0x0 DUP4 ADD MSTORE PUSH2 0x200E DUP2 PUSH2 0x1FD2 JUMP JUMPDEST SWAP1 POP SWAP2 SWAP1 POP JUMP JUMPDEST PUSH1 0x0 PUSH1 0x40 DUP3 ADD SWAP1 POP PUSH2 0x202A PUSH1 0x0 DUP4 ADD DUP6 PUSH2 0x1DE0 JUMP JUMPDEST PUSH2 0x2037 PUSH1 0x20 DUP4 ADD DUP5 PUSH2 0x1CA7 JUMP JUMPDEST SWAP4 SWAP3 POP POP POP JUMP JUMPDEST PUSH2 0x2047 DUP2 PUSH2 0x1E0A JUMP JUMPDEST DUP2 EQ PUSH2 0x2052 JUMPI PUSH1 0x0 DUP1 REVERT JUMPDEST POP JUMP JUMPDEST PUSH1 0x0 DUP2 MLOAD SWAP1 POP PUSH2 0x2064 DUP2 PUSH2 0x203E JUMP JUMPDEST SWAP3 SWAP2 POP POP JUMP JUMPDEST PUSH1 0x0 PUSH1 0x20 DUP3 DUP5 SUB SLT ISZERO PUSH2 0x2080 JUMPI PUSH2 0x207F PUSH2 0x1C08 JUMP JUMPDEST JUMPDEST PUSH1 0x0 PUSH2 0x208E DUP5 DUP3 DUP6 ADD PUSH2 0x2055 JUMP JUMPDEST SWAP2 POP POP SWAP3 SWAP2 POP POP JUMP JUMPDEST PUSH32 0x417070726F76616C206661696C65640000000000000000000000000000000000 PUSH1 0x0 DUP3 ADD MSTORE POP JUMP JUMPDEST PUSH1 0x0 PUSH2 0x20CD PUSH1 0xF DUP4 PUSH2 0x1F98 JUMP JUMPDEST SWAP2 POP PUSH2 0x20D8 DUP3 PUSH2 0x2097 JUMP JUMPDEST PUSH1 0x20 DUP3 ADD SWAP1 POP SWAP2 SWAP1 POP JUMP JUMPDEST PUSH1 0x0 PUSH1 0x20 DUP3 ADD SWAP1 POP DUP2 DUP2 SUB PUSH1 0x0 DUP4 ADD MSTORE PUSH2 0x20FC DUP2 PUSH2 0x20C0 JUMP JUMPDEST SWAP1 POP SWAP2 SWAP1 POP JUMP JUMPDEST PUSH1 0x0 DUP2 SWAP1 POP SWAP2 SWAP1 POP JUMP JUMPDEST PUSH1 0x0 PUSH2 0xFFFF DUP3 AND SWAP1 POP SWAP2 SWAP1 POP JUMP JUMPDEST PUSH1 0x0 PUSH2 0x2136 PUSH2 0x2131 PUSH2 0x212C DUP5 PUSH2 0x2103 JUMP JUMPDEST PUSH2 0x1CD1 JUMP JUMPDEST PUSH2 0x210D JUMP JUMPDEST SWAP1 POP SWAP2 SWAP1 POP JUMP JUMPDEST PUSH2 0x2146 DUP2 PUSH2 0x211B JUMP JUMPDEST DUP3 MSTORE POP POP JUMP JUMPDEST PUSH1 0x0 PUSH1 0x80 DUP3 ADD SWAP1 POP PUSH2 0x2161 PUSH1 0x0 DUP4 ADD DUP8 PUSH2 0x1DE0 JUMP JUMPDEST PUSH2 0x216E PUSH1 0x20 DUP4 ADD DUP7 PUSH2 0x1CA7 JUMP JUMPDEST PUSH2 0x217B PUSH1 0x40 DUP4 ADD DUP6 PUSH2 0x1DE0 JUMP JUMPDEST PUSH2 0x2188 PUSH1 0x60 DUP4 ADD DUP5 PUSH2 0x213D JUMP JUMPDEST SWAP6 SWAP5 POP POP POP POP POP JUMP JUMPDEST PUSH1 0x0 DUP2 MLOAD SWAP1 POP PUSH2 0x21A0 DUP2 PUSH2 0x1D87 JUMP JUMPDEST SWAP3 SWAP2 POP POP JUMP JUMPDEST PUSH1 0x0 PUSH1 0x20 DUP3 DUP5 SUB SLT ISZERO PUSH2 0x21BC JUMPI PUSH2 0x21BB PUSH2 0x1C08 JUMP JUMPDEST JUMPDEST PUSH1 0x0 PUSH2 0x21CA DUP5 DUP3 DUP6 ADD PUSH2 0x2191 JUMP JUMPDEST SWAP2 POP POP SWAP3 SWAP2 POP POP JUMP JUMPDEST PUSH32 0x4E6F2062616C616E636520746F20646973747269627574650000000000000000 PUSH1 0x0 DUP3 ADD MSTORE POP JUMP JUMPDEST PUSH1 0x0 PUSH2 0x2209 PUSH1 0x18 DUP4 PUSH2 0x1F98 JUMP JUMPDEST SWAP2 POP PUSH2 0x2214 DUP3 PUSH2 0x21D3 JUMP JUMPDEST PUSH1 0x20 DUP3 ADD SWAP1 POP SWAP2 SWAP1 POP JUMP JUMPDEST PUSH1 0x0 PUSH1 0x20 DUP3 ADD SWAP1 POP DUP2 DUP2 SUB PUSH1 0x0 DUP4 ADD MSTORE PUSH2 0x2238 DUP2 PUSH2 0x21FC JUMP JUMPDEST SWAP1 POP SWAP2 SWAP1 POP JUMP JUMPDEST PUSH1 0x0 DUP2 SLOAD SWAP1 POP SWAP2 SWAP1 POP JUMP JUMPDEST PUSH1 0x0 DUP2 SWAP1 POP DUP2 PUSH1 0x0 MSTORE PUSH1 0x20 PUSH1 0x0 KECCAK256 SWAP1 POP SWAP2 SWAP1 POP JUMP JUMPDEST PUSH1 0x0 DUP2 PUSH1 0x0 SHR SWAP1 POP SWAP2 SWAP1 POP JUMP JUMPDEST PUSH1 0x0 PUSH20 0xFFFFFFFFFFFFFFFFFFFFFFFFFFFFFFFFFFFFFFFF DUP3 AND SWAP1 POP SWAP2 SWAP1 POP JUMP JUMPDEST PUSH1 0x0 PUSH2 0x229F PUSH2 0x229A DUP4 PUSH2 0x225F JUMP JUMPDEST PUSH2 0x226C JUMP JUMPDEST SWAP1 POP SWAP2 SWAP1 POP JUMP JUMPDEST PUSH1 0x0 PUSH2 0x22B2 DUP3 SLOAD PUSH2 0x228C JUMP JUMPDEST SWAP1 POP SWAP2 SWAP1 POP JUMP JUMPDEST PUSH1 0x0 PUSH1 0x1 DUP3 ADD SWAP1 POP SWAP2 SWAP1 POP JUMP JUMPDEST PUSH1 0x0 PUSH2 0x22D1 DUP3 PUSH2 0x223F JUMP JUMPDEST PUSH2 0x22DB DUP2 DUP6 PUSH2 0x1E4B JUMP JUMPDEST SWAP4 POP PUSH2 0x22E6 DUP4 PUSH2 0x224A JUMP JUMPDEST DUP1 PUSH1 0x0 JUMPDEST DUP4 DUP2 LT ISZERO PUSH2 0x231E JUMPI PUSH2 0x22FB DUP3 PUSH2 0x22A6 JUMP JUMPDEST PUSH2 0x2305 DUP9 DUP3 PUSH2 0x1E7B JUMP JUMPDEST SWAP8 POP PUSH2 0x2310 DUP4 PUSH2 0x22B9 JUMP JUMPDEST SWAP3 POP POP PUSH1 0x1 DUP2 ADD SWAP1 POP PUSH2 0x22EA JUMP JUMPDEST POP DUP6 SWAP4 POP POP POP POP SWAP3 SWAP2 POP POP JUMP JUMPDEST PUSH1 0x0 PUSH1 0x40 DUP3 ADD SWAP1 POP PUSH2 0x2340 PUSH1 0x0 DUP4 ADD DUP6 PUSH2 0x1CA7 JUMP JUMPDEST DUP2 DUP2 SUB PUSH1 0x20 DUP4 ADD MSTORE PUSH2 0x2352 DUP2 DUP5 PUSH2 0x22C6 JUMP JUMPDEST SWAP1 POP SWAP4 SWAP3 POP POP POP JUMP JUMPDEST PUSH1 0x0 DUP1 REVERT JUMPDEST PUSH1 0x0 PUSH1 0x1F NOT PUSH1 0x1F DUP4 ADD AND SWAP1 POP SWAP2 SWAP1 POP JUMP JUMPDEST PUSH32 0x4E487B7100000000000000000000000000000000000000000000000000000000 PUSH1 0x0 MSTORE PUSH1 0x41 PUSH1 0x4 MSTORE PUSH1 0x24 PUSH1 0x0 REVERT JUMPDEST PUSH2 0x23A9 DUP3 PUSH2 0x2360 JUMP JUMPDEST DUP2 ADD DUP2 DUP2 LT PUSH8 0xFFFFFFFFFFFFFFFF DUP3 GT OR ISZERO PUSH2 0x23C8 JUMPI PUSH2 0x23C7 PUSH2 0x2371 JUMP JUMPDEST JUMPDEST DUP1 PUSH1 0x40 MSTORE POP POP POP JUMP JUMPDEST PUSH1 0x0 PUSH2 0x23DB PUSH2 0x1BFE JUMP JUMPDEST SWAP1 POP PUSH2 0x23E7 DUP3 DUP3 PUSH2 0x23A0 JUMP JUMPDEST SWAP2 SWAP1 POP JUMP JUMPDEST PUSH1 0x0 PUSH8 0xFFFFFFFFFFFFFFFF DUP3 GT ISZERO PUSH2 0x2407 JUMPI PUSH2 0x2406 PUSH2 0x2371 JUMP JUMPDEST JUMPDEST PUSH1 0x20 DUP3 MUL SWAP1 POP PUSH1 0x20 DUP2 ADD SWAP1 POP SWAP2 SWAP1 POP JUMP JUMPDEST PUSH1 0x0 DUP1 REVERT JUMPDEST PUSH1 0x0 DUP2 MLOAD SWAP1 POP PUSH2 0x242C DUP2 PUSH2 0x1C44 JUMP JUMPDEST SWAP3 SWAP2 POP POP JUMP JUMPDEST PUSH1 0x0 PUSH2 0x2445 PUSH2 0x2440 DUP5 PUSH2 0x23EC JUMP JUMPDEST PUSH2 0x23D1 JUMP JUMPDEST SWAP1 POP DUP1 DUP4 DUP3 MSTORE PUSH1 0x20 DUP3 ADD SWAP1 POP PUSH1 0x20 DUP5 MUL DUP4 ADD DUP6 DUP2 GT ISZERO PUSH2 0x2468 JUMPI PUSH2 0x2467 PUSH2 0x2418 JUMP JUMPDEST JUMPDEST DUP4 JUMPDEST DUP2 DUP2 LT ISZERO PUSH2 0x2491 JUMPI DUP1 PUSH2 0x247D DUP9 DUP3 PUSH2 0x241D JUMP JUMPDEST DUP5 MSTORE PUSH1 0x20 DUP5 ADD SWAP4 POP POP PUSH1 0x20 DUP2 ADD SWAP1 POP PUSH2 0x246A JUMP JUMPDEST POP POP POP SWAP4 SWAP3 POP POP POP JUMP JUMPDEST PUSH1 0x0 DUP3 PUSH1 0x1F DUP4 ADD SLT PUSH2 0x24B0 JUMPI PUSH2 0x24AF PUSH2 0x235B JUMP JUMPDEST JUMPDEST DUP2 MLOAD PUSH2 0x24C0 DUP5 DUP3 PUSH1 0x20 DUP7 ADD PUSH2 0x2432 JUMP JUMPDEST SWAP2 POP POP SWAP3 SWAP2 POP POP JUMP JUMPDEST PUSH1 0x0 PUSH8 0xFFFFFFFFFFFFFFFF DUP3 GT ISZERO PUSH2 0x24E4 JUMPI PUSH2 0x24E3 PUSH2 0x2371 JUMP JUMPDEST JUMPDEST PUSH1 0x20 DUP3 MUL SWAP1 POP PUSH1 0x20 DUP2 ADD SWAP1 POP SWAP2 SWAP1 POP JUMP JUMPDEST PUSH1 0x0 PUSH2 0x2508 PUSH2 0x2503 DUP5 PUSH2 0x24C9 JUMP JUMPDEST PUSH2 0x23D1 JUMP JUMPDEST SWAP1 POP DUP1 DUP4 DUP3 MSTORE PUSH1 0x20 DUP3 ADD SWAP1 POP PUSH1 0x20 DUP5 MUL DUP4 ADD DUP6 DUP2 GT ISZERO PUSH2 0x252B JUMPI PUSH2 0x252A PUSH2 0x2418 JUMP JUMPDEST JUMPDEST DUP4 JUMPDEST DUP2 DUP2 LT ISZERO PUSH2 0x2554 JUMPI DUP1 PUSH2 0x2540 DUP9 DUP3 PUSH2 0x2191 JUMP JUMPDEST DUP5 MSTORE PUSH1 0x20 DUP5 ADD SWAP4 POP POP PUSH1 0x20 DUP2 ADD SWAP1 POP PUSH2 0x252D JUMP JUMPDEST POP POP POP SWAP4 SWAP3 POP POP POP JUMP JUMPDEST PUSH1 0x0 DUP3 PUSH1 0x1F DUP4 ADD SLT PUSH2 0x2573 JUMPI PUSH2 0x2572 PUSH2 0x235B JUMP JUMPDEST JUMPDEST DUP2 MLOAD PUSH2 0x2583 DUP5 DUP3 PUSH1 0x20 DUP7 ADD PUSH2 0x24F5 JUMP JUMPDEST SWAP2 POP POP SWAP3 SWAP2 POP POP JUMP JUMPDEST PUSH1 0x0 DUP1 PUSH1 0x40 DUP4 DUP6 SUB SLT ISZERO PUSH2 0x25A3 JUMPI PUSH2 0x25A2 PUSH2 0x1C08 JUMP JUMPDEST JUMPDEST PUSH1 0x0 DUP4 ADD MLOAD PUSH8 0xFFFFFFFFFFFFFFFF DUP2 GT ISZERO PUSH2 0x25C1 JUMPI PUSH2 0x25C0 PUSH2 0x1C0D JUMP JUMPDEST JUMPDEST PUSH2 0x25CD DUP6 DUP3 DUP7 ADD PUSH2 0x249B JUMP JUMPDEST SWAP3 POP POP PUSH1 0x20 DUP4 ADD MLOAD PUSH8 0xFFFFFFFFFFFFFFFF DUP2 GT ISZERO PUSH2 0x25EE JUMPI PUSH2 0x25ED PUSH2 0x1C0D JUMP JUMPDEST JUMPDEST PUSH2 0x25FA DUP6 DUP3 DUP7 ADD PUSH2 0x255E JUMP JUMPDEST SWAP2 POP POP SWAP3 POP SWAP3 SWAP1 POP JUMP JUMPDEST PUSH32 0x4E487B7100000000000000000000000000000000000000000000000000000000 PUSH1 0x0 MSTORE PUSH1 0x32 PUSH1 0x4 MSTORE PUSH1 0x24 PUSH1 0x0 REVERT JUMPDEST PUSH32 0x5472616E73666572206661696C65640000000000000000000000000000000000 PUSH1 0x0 DUP3 ADD MSTORE POP JUMP JUMPDEST PUSH1 0x0 PUSH2 0x2669 PUSH1 0xF DUP4 PUSH2 0x1F98 JUMP JUMPDEST SWAP2 POP PUSH2 0x2674 DUP3 PUSH2 0x2633 JUMP JUMPDEST PUSH1 0x20 DUP3 ADD SWAP1 POP SWAP2 SWAP1 POP JUMP JUMPDEST PUSH1 0x0 PUSH1 0x20 DUP3 ADD SWAP1 POP DUP2 DUP2 SUB PUSH1 0x0 DUP4 ADD MSTORE PUSH2 0x2698 DUP2 PUSH2 0x265C JUMP JUMPDEST SWAP1 POP SWAP2 SWAP1 POP JUMP JUMPDEST PUSH32 0x4E487B7100000000000000000000000000000000000000000000000000000000 PUSH1 0x0 MSTORE PUSH1 0x11 PUSH1 0x4 MSTORE PUSH1 0x24 PUSH1 0x0 REVERT JUMPDEST PUSH1 0x0 PUSH2 0x26D9 DUP3 PUSH2 0x1C9D JUMP JUMPDEST SWAP2 POP PUSH2 0x26E4 DUP4 PUSH2 0x1C9D JUMP JUMPDEST SWAP3 POP DUP3 DUP3 ADD SWAP1 POP DUP1 DUP3 GT ISZERO PUSH2 0x26FC JUMPI PUSH2 0x26FB PUSH2 0x269F JUMP JUMPDEST JUMPDEST SWAP3 SWAP2 POP POP JUMP JUMPDEST PUSH1 0x0 PUSH1 0x40 DUP3 ADD SWAP1 POP PUSH2 0x2717 PUSH1 0x0 DUP4 ADD DUP6 PUSH2 0x1CA7 JUMP JUMPDEST PUSH2 0x2724 PUSH1 0x20 DUP4 ADD DUP5 PUSH2 0x1CA7 JUMP JUMPDEST SWAP4 SWAP3 POP POP POP JUMP JUMPDEST PUSH1 0x0 PUSH2 0x2736 DUP3 PUSH2 0x1C9D JUMP JUMPDEST SWAP2 POP PUSH32 0xFFFFFFFFFFFFFFFFFFFFFFFFFFFFFFFFFFFFFFFFFFFFFFFFFFFFFFFFFFFFFFFF DUP3 SUB PUSH2 0x2768 JUMPI PUSH2 0x2767 PUSH2 0x269F JUMP JUMPDEST JUMPDEST PUSH1 0x1 DUP3 ADD SWAP1 POP SWAP2 SWAP1 POP JUMP JUMPDEST PUSH1 0x0 PUSH1 0x60 DUP3 ADD SWAP1 POP PUSH2 0x2788 PUSH1 0x0 DUP4 ADD DUP7 PUSH2 0x1DE0 JUMP JUMPDEST PUSH2 0x2795 PUSH1 0x20 DUP4 ADD DUP6 PUSH2 0x1CA7 JUMP JUMPDEST PUSH2 0x27A2 PUSH1 0x40 DUP4 ADD DUP5 PUSH2 0x1DE0 JUMP JUMPDEST SWAP5 SWAP4 POP POP POP POP JUMP JUMPDEST PUSH32 0x5769746864726177616C206661696C6564000000000000000000000000000000 PUSH1 0x0 DUP3 ADD MSTORE POP JUMP JUMPDEST PUSH1 0x0 PUSH2 0x27E0 PUSH1 0x11 DUP4 PUSH2 0x1F98 JUMP JUMPDEST SWAP2 POP PUSH2 0x27EB DUP3 PUSH2 0x27AA JUMP JUMPDEST PUSH1 0x20 DUP3 ADD SWAP1 POP SWAP2 SWAP1 POP JUMP JUMPDEST PUSH1 0x0 PUSH1 0x20 DUP3 ADD SWAP1 POP DUP2 DUP2 SUB PUSH1 0x0 DUP4 ADD MSTORE PUSH2 0x280F DUP2 PUSH2 0x27D3 JUMP JUMPDEST SWAP1 POP SWAP2 SWAP1 POP JUMP JUMPDEST PUSH1 0x0 PUSH1 0x60 DUP3 ADD SWAP1 POP PUSH2 0x282B PUSH1 0x0 DUP4 ADD DUP7 PUSH2 0x1DE0 JUMP JUMPDEST PUSH2 0x2838 PUSH1 0x20 DUP4 ADD DUP6 PUSH2 0x1DE0 JUMP JUMPDEST PUSH2 0x2845 PUSH1 0x40 DUP4 ADD DUP5 PUSH2 0x1CA7 JUMP JUMPDEST SWAP5 SWAP4 POP POP POP POP JUMP JUMPDEST PUSH32 0x4F776E61626C653A206E6577206F776E657220697320746865207A65726F2061 PUSH1 0x0 DUP3 ADD MSTORE PUSH32 0x6464726573730000000000000000000000000000000000000000000000000000 PUSH1 0x20 DUP3 ADD MSTORE POP JUMP JUMPDEST PUSH1 0x0 PUSH2 0x28A9 PUSH1 0x26 DUP4 PUSH2 0x1F98 JUMP JUMPDEST SWAP2 POP PUSH2 0x28B4 DUP3 PUSH2 0x284D JUMP JUMPDEST PUSH1 0x40 DUP3 ADD SWAP1 POP SWAP2 SWAP1 POP JUMP JUMPDEST PUSH1 0x0 PUSH1 0x20 DUP3 ADD SWAP1 POP DUP2 DUP2 SUB PUSH1 0x0 DUP4 ADD MSTORE PUSH2 0x28D8 DUP2 PUSH2 0x289C JUMP JUMPDEST SWAP1 POP SWAP2 SWAP1 POP JUMP JUMPDEST PUSH32 0x4F776E61626C653A2063616C6C6572206973206E6F7420746865206F776E6572 PUSH1 0x0 DUP3 ADD MSTORE POP JUMP JUMPDEST PUSH1 0x0 PUSH2 0x2915 PUSH1 0x20 DUP4 PUSH2 0x1F98 JUMP JUMPDEST SWAP2 POP PUSH2 0x2920 DUP3 PUSH2 0x28DF JUMP JUMPDEST PUSH1 0x20 DUP3 ADD SWAP1 POP SWAP2 SWAP1 POP JUMP JUMPDEST PUSH1 0x0 PUSH1 0x20 DUP3 ADD SWAP1 POP DUP2 DUP2 SUB PUSH1 0x0 DUP4 ADD MSTORE PUSH2 0x2944 DUP2 PUSH2 0x2908 JUMP JUMPDEST SWAP1 POP SWAP2 SWAP1 POP JUMP JUMPDEST PUSH32 0x5265656E7472616E637947756172643A207265656E7472616E742063616C6C00 PUSH1 0x0 DUP3 ADD MSTORE POP JUMP JUMPDEST PUSH1 0x0 PUSH2 0x2981 PUSH1 0x1F DUP4 PUSH2 0x1F98 JUMP JUMPDEST SWAP2 POP PUSH2 0x298C DUP3 PUSH2 0x294B JUMP JUMPDEST PUSH1 0x20 DUP3 ADD SWAP1 POP SWAP2 SWAP1 POP JUMP JUMPDEST PUSH1 0x0 PUSH1 0x20 DUP3 ADD SWAP1 POP DUP2 DUP2 SUB PUSH1 0x0 DUP4 ADD MSTORE PUSH2 0x29B0 DUP2 PUSH2 0x2974 JUMP JUMPDEST SWAP1 POP SWAP2 SWAP1 POP JUMP JUMPDEST PUSH32 0x5061757361626C653A2070617573656400000000000000000000000000000000 PUSH1 0x0 DUP3 ADD MSTORE POP JUMP JUMPDEST PUSH1 0x0 PUSH2 0x29ED PUSH1 0x10 DUP4 PUSH2 0x1F98 JUMP JUMPDEST SWAP2 POP PUSH2 0x29F8 DUP3 PUSH2 0x29B7 JUMP JUMPDEST PUSH1 0x20 DUP3 ADD SWAP1 POP SWAP2 SWAP1 POP JUMP JUMPDEST PUSH1 0x0 PUSH1 0x20 DUP3 ADD SWAP1 POP DUP2 DUP2 SUB PUSH1 0x0 DUP4 ADD MSTORE PUSH2 0x2A1C DUP2 PUSH2 0x29E0 JUMP JUMPDEST SWAP1 POP SWAP2 SWAP1 POP JUMP JUMPDEST PUSH32 0x5061757361626C653A206E6F7420706175736564000000000000000000000000 PUSH1 0x0 DUP3 ADD MSTORE POP JUMP JUMPDEST PUSH1 0x0 PUSH2 0x2A59 PUSH1 0x14 DUP4 PUSH2 0x1F98 JUMP JUMPDEST SWAP2 POP PUSH2 0x2A64 DUP3 PUSH2 0x2A23 JUMP JUMPDEST PUSH1 0x20 DUP3 ADD SWAP1 POP SWAP2 SWAP1 POP JUMP JUMPDEST PUSH1 0x0 PUSH1 0x20 DUP3 ADD SWAP1 POP DUP2 DUP2 SUB PUSH1 0x0 DUP4 ADD MSTORE PUSH2 0x2A88 DUP2 PUSH2 0x2A4C JUMP JUMPDEST SWAP1 POP SWAP2 SWAP1 POP JUMP INVALID LOG2 PUSH5 0x6970667358 0x22 SLT KECCAK256 0xC0 0x5F 0xAC DUP9 0xC5 CODESIZE GASPRICE JUMP PUSH2 0x72A7 PUSH4 0xAD8C1200 PUSH32 0x5431FD279B47A89BB4F5F0AA1FCA9664736F6C63430008130033000000000000 "},"methodIdentifiers":{"aavePool()":"a03e4bc3","depositToAave(uint256)":"68fd2d80","distributeYield()":"8a570a12","distributionLogic()":"05a50ce3","donate(uint256)":"f14faf6f","donationsByUser(address)":"bbeaeadd","donors(uint256)":"4abfa163","getDonorCount()":"69bc2f1e","getDonors()":"96f300d4","getUserDonation(address)":"1faaa315","gnosisSafe()":"a84173ae","lastDonationTime(address)":"008d14b6","owner()":"8da5cb5b","pause()":"8456cb59","paused()":"5c975abb","renounceOwnership()":"715018a6","totalDonations()":"de2ed893","totalYieldGenerated()":"8c825056","transferOwnership(address)":"f2fde38b","unpause()":"3f4ba83a","usdc()":"3e413bee","withdrawYield(uint256)":"ab31978f","yieldDistributedToChurch()":"ba5f19fd"}}}}}