{"contracts/mocks/MockAave.sol":{"MockAave":{"abi":[{"anonymous":false,"inputs":[{"indexed":true,"internalType":"address","name":"asset","type":"address"},{"indexed":false,"internalType":"uint256","name":"amount","type":"uint256"},{"indexed":true,"internalType":"address","name":"onBehalfOf","type":"address"}],"name":"Deposit","type":"event"},{"anonymous":false,"inputs":[{"indexed":true,"internalType":"address","name":"asset","type":"address"},{"indexed":false,"internalType":"uint256","name":"amount","type":"uint256"},{"indexed":true,"internalType":"address","name":"to","type":"address"}],"name":"Withdraw","type":"event"},{"inputs":[{"internalType":"address","name":"","type":"address"},{"internalType":"address","name":"","type":"address"}],"name":"balances","outputs":[{"internalType":"uint256","name":"","type":"uint256"}],"stateMutability":"view","type":"function"},{"inputs":[{"internalType":"address","name":"asset","type":"address"},{"internalType":"uint256","name":"amount","type":"uint256"},{"internalType":"address","name":"onBehalfOf","type":"address"},{"internalType":"uint16","name":"referralCode","type":"uint16"}],"name":"deposit","outputs":[],"stateMutability":"nonpayable","type":"function"},{"inputs":[{"internalType":"address","name":"user","type":"address"}],"name":"getUserAccountData","outputs":[{"internalType":"uint256","name":"totalCollateralBase","type":"uint256"},{"internalType":"uint256","name":"totalDebtBase","type":"uint256"},{"internalType":"uint256","name":"availableBorrowsBase","type":"uint256"},{"internalType":"uint256","name":"currentLiquidationThreshold","type":"uint256"},{"internalType":"uint256","name":"ltv","type":"uint256"},{"internalType":"uint256","name":"healthFactor","type":"uint256"}],"stateMutability":"view","type":"function"},{"inputs":[{"internalType":"address","name":"asset","type":"address"},{"internalType":"uint256","name":"amount","type":"uint256"},{"internalType":"address","name":"to","type":"address"}],"name":"withdraw","outputs":[{"internalType":"uint256","name":"","type":"uint256"}],"stateMutability":"nonpayable","type":"function"}],"evm":{"bytecode":{"linkReferences":{},"object":"608060405234801561001057600080fd5b5061094b806100206000396000f3fe608060405234801561001057600080fd5b506004361061004c5760003560e01c806369328dec14610051578063bf92857c14610081578063c23f001f146100b6578063e8eda9df146100e6575b600080fd5b61006b60048036038101906100669190610615565b610102565b6040516100789190610677565b60405180910390f35b61009b60048036038101906100969190610692565b61038b565b6040516100ad969594939291906106bf565b60405180910390f35b6100d060048036038101906100cb9190610720565b610407565b6040516100dd9190610677565b60405180910390f35b61010060048036038101906100fb919061079a565b61042c565b005b600061011867155b30eef5351b0460c01b610579565b61012c6715c172f8782a207b60c01b610579565b61014067bdff814d99b01c0660c01b610579565b61015467dfdaeccc7773dfb760c01b610579565b826000803373ffffffffffffffffffffffffffffffffffffffff1673ffffffffffffffffffffffffffffffffffffffff16815260200190815260200160002060008673ffffffffffffffffffffffffffffffffffffffff1673ffffffffffffffffffffffffffffffffffffffff168152602001908152602001600020541015610212576040517f08c379a00000000000000000000000000000000000000000000000000000000081526004016102099061085e565b60405180910390fd5b61022667329dfc6fd9c7984b60c01b610579565b61023a675bb724d35d5bb60960c01b610579565b826000803373ffffffffffffffffffffffffffffffffffffffff1673ffffffffffffffffffffffffffffffffffffffff16815260200190815260200160002060008673ffffffffffffffffffffffffffffffffffffffff1673ffffffffffffffffffffffffffffffffffffffff16815260200190815260200160002060008282546102c591906108ad565b925050819055506102e0679b7073dad6556ef860c01b610579565b6102f467156658b592175ffe60c01b610579565b8173ffffffffffffffffffffffffffffffffffffffff168473ffffffffffffffffffffffffffffffffffffffff167f56c54ba9bd38d8fd62012e42c7ee564519b09763c426d331b3661b537ead19b2856040516103519190610677565b60405180910390a361036d67d0e18076f4ff1c8360c01b610579565b6103816730c1a58c5cf528cb60c01b610579565b8290509392505050565b6000806000806000806103a867801ed76cb6ee529c60c01b610579565b6103bc67397c2750a0d0728560c01b610579565b6103d06768f30b2ca36a309c60c01b610579565b683635c9adc5dea000006000681b1ae4d6e2ef500000605080670de0b6b3a764000095509550955095509550955091939550919395565b6000602052816000526040600020602052806000526040600020600091509150505481565b610440673df108394ee53ab760c01b610579565b610454676edf190f5d29883160c01b610579565b826000808473ffffffffffffffffffffffffffffffffffffffff1673ffffffffffffffffffffffffffffffffffffffff16815260200190815260200160002060008673ffffffffffffffffffffffffffffffffffffffff1673ffffffffffffffffffffffffffffffffffffffff16815260200190815260200160002060008282546104df91906108e1565b925050819055506104fa6749cd1659bcae426260c01b610579565b61050e676841da79af8c733560c01b610579565b8173ffffffffffffffffffffffffffffffffffffffff168473ffffffffffffffffffffffffffffffffffffffff167fe31c7b8d08ee7db0afa68782e1028ef92305caeea8626633ad44d413e30f6b2f8560405161056b9190610677565b60405180910390a350505050565b50565b600080fd5b600073ffffffffffffffffffffffffffffffffffffffff82169050919050565b60006105ac82610581565b9050919050565b6105bc816105a1565b81146105c757600080fd5b50565b6000813590506105d9816105b3565b92915050565b6000819050919050565b6105f2816105df565b81146105fd57600080fd5b50565b60008135905061060f816105e9565b92915050565b60008060006060848603121561062e5761062d61057c565b5b600061063c868287016105ca565b935050602061064d86828701610600565b925050604061065e868287016105ca565b9150509250925092565b610671816105df565b82525050565b600060208201905061068c6000830184610668565b92915050565b6000602082840312156106a8576106a761057c565b5b60006106b6848285016105ca565b91505092915050565b600060c0820190506106d46000830189610668565b6106e16020830188610668565b6106ee6040830187610668565b6106fb6060830186610668565b6107086080830185610668565b61071560a0830184610668565b979650505050505050565b600080604083850312156107375761073661057c565b5b6000610745858286016105ca565b9250506020610756858286016105ca565b9150509250929050565b600061ffff82169050919050565b61077781610760565b811461078257600080fd5b50565b6000813590506107948161076e565b92915050565b600080600080608085870312156107b4576107b361057c565b5b60006107c2878288016105ca565b94505060206107d387828801610600565b93505060406107e4878288016105ca565b92505060606107f587828801610785565b91505092959194509250565b600082825260208201905092915050565b7f496e73756666696369656e742062616c616e6365000000000000000000000000600082015250565b6000610848601483610801565b915061085382610812565b602082019050919050565b600060208201905081810360008301526108778161083b565b9050919050565b7f4e487b7100000000000000000000000000000000000000000000000000000000600052601160045260246000fd5b60006108b8826105df565b91506108c3836105df565b92508282039050818111156108db576108da61087e565b5b92915050565b60006108ec826105df565b91506108f7836105df565b925082820190508082111561090f5761090e61087e565b5b9291505056fea2646970667358221220ab5fcd537a94ba67e54eef3fd38f87b64292979766035998862e99bf8d832fae64736f6c63430008130033","opcodes":"PUSH1 0x80 PUSH1 0x40 MSTORE CALLVALUE DUP1 ISZERO PUSH2 0x10 JUMPI PUSH1 0x0 DUP1 REVERT JUMPDEST POP PUSH2 0x94B DUP1 PUSH2 0x20 PUSH1 0x0 CODECOPY PUSH1 0x0 RETURN INVALID PUSH1 0x80 PUSH1 0x40 MSTORE CALLVALUE DUP1 ISZERO PUSH2 0x10 JUMPI PUSH1 0x0 DUP1 REVERT JUMPDEST POP PUSH1 0x4 CALLDATASIZE LT PUSH2 0x4C JUMPI PUSH1 0x0 CALLDATALOAD PUSH1 0xE0 SHR DUP1 PUSH4 0x69328DEC EQ PUSH2 0x51 JUMPI DUP1 PUSH4 0xBF92857C EQ PUSH2 0x81 JUMPI DUP1 PUSH4 0xC23F001F EQ PUSH2 0xB6 JUMPI DUP1 PUSH4 0xE8EDA9DF EQ PUSH2 0xE6 JUMPI JUMPDEST PUSH1 0x0 DUP1 REVERT JUMPDEST PUSH2 0x6B PUSH1 0x4 DUP1 CALLDATASIZE SUB DUP2 ADD SWAP1 PUSH2 0x66 SWAP2 SWAP1 PUSH2 0x615 JUMP JUMPDEST PUSH2 0x102 JUMP JUMPDEST PUSH1 0x40 MLOAD PUSH2 0x78 SWAP2 SWAP1 PUSH2 0x677 JUMP JUMPDEST PUSH1 0x40 MLOAD DUP1 SWAP2 SUB SWAP1 RETURN JUMPDEST PUSH2 0x9B PUSH1 0x4 DUP1 CALLDATASIZE SUB DUP2 ADD SWAP1 PUSH2 0x96 SWAP2 SWAP1 PUSH2 0x692 JUMP JUMPDEST PUSH2 0x38B JUMP JUMPDEST PUSH1 0x40 MLOAD PUSH2 0xAD SWAP7 SWAP6 SWAP5 SWAP4 SWAP3 SWAP2 SWAP1 PUSH2 0x6BF JUMP JUMPDEST PUSH1 0x40 MLOAD DUP1 SWAP2 SUB SWAP1 RETURN JUMPDEST PUSH2 0xD0 PUSH1 0x4 DUP1 CALLDATASIZE SUB DUP2 ADD SWAP1 PUSH2 0xCB SWAP2 SWAP1 PUSH2 0x720 JUMP JUMPDEST PUSH2 0x407 JUMP JUMPDEST PUSH1 0x40 MLOAD PUSH2 0xDD SWAP2 SWAP1 PUSH2 0x677 JUMP JUMPDEST PUSH1 0x40 MLOAD DUP1 SWAP2 SUB SWAP1 RETURN JUMPDEST PUSH2 0x100 PUSH1 0x4 DUP1 CALLDATASIZE SUB DUP2 ADD SWAP1 PUSH2 0xFB SWAP2 SWAP1 PUSH2 0x79A JUMP JUMPDEST PUSH2 0x42C JUMP JUMPDEST STOP JUMPDEST PUSH1 0x0 PUSH2 0x118 PUSH8 0x155B30EEF5351B04 PUSH1 0xC0 SHL PUSH2 0x579 JUMP JUMPDEST PUSH2 0x12C PUSH8 0x15C172F8782A207B PUSH1 0xC0 SHL PUSH2 0x579 JUMP JUMPDEST PUSH2 0x140 PUSH8 0xBDFF814D99B01C06 PUSH1 0xC0 SHL PUSH2 0x579 JUMP JUMPDEST PUSH2 0x154 PUSH8 0xDFDAECCC7773DFB7 PUSH1 0xC0 SHL PUSH2 0x579 JUMP JUMPDEST DUP3 PUSH1 0x0 DUP1 CALLER PUSH20 0xFFFFFFFFFFFFFFFFFFFFFFFFFFFFFFFFFFFFFFFF AND PUSH20 0xFFFFFFFFFFFFFFFFFFFFFFFFFFFFFFFFFFFFFFFF AND DUP2 MSTORE PUSH1 0x20 ADD SWAP1 DUP2 MSTORE PUSH1 0x20 ADD PUSH1 0x0 KECCAK256 PUSH1 0x0 DUP7 PUSH20 0xFFFFFFFFFFFFFFFFFFFFFFFFFFFFFFFFFFFFFFFF AND PUSH20 0xFFFFFFFFFFFFFFFFFFFFFFFFFFFFFFFFFFFFFFFF AND DUP2 MSTORE PUSH1 0x20 ADD SWAP1 DUP2 MSTORE PUSH1 0x20 ADD PUSH1 0x0 KECCAK256 SLOAD LT ISZERO PUSH2 0x212 JUMPI PUSH1 0x40 MLOAD PUSH32 0x8C379A000000000000000000000000000000000000000000000000000000000 DUP2 MSTORE PUSH1 0x4 ADD PUSH2 0x209 SWAP1 PUSH2 0x85E JUMP JUMPDEST PUSH1 0x40 MLOAD DUP1 SWAP2 SUB SWAP1 REVERT JUMPDEST PUSH2 0x226 PUSH8 0x329DFC6FD9C7984B PUSH1 0xC0 SHL PUSH2 0x579 JUMP JUMPDEST PUSH2 0x23A PUSH8 0x5BB724D35D5BB609 PUSH1 0xC0 SHL PUSH2 0x579 JUMP JUMPDEST DUP3 PUSH1 0x0 DUP1 CALLER PUSH20 0xFFFFFFFFFFFFFFFFFFFFFFFFFFFFFFFFFFFFFFFF AND PUSH20 0xFFFFFFFFFFFFFFFFFFFFFFFFFFFFFFFFFFFFFFFF AND DUP2 MSTORE PUSH1 0x20 ADD SWAP1 DUP2 MSTORE PUSH1 0x20 ADD PUSH1 0x0 KECCAK256 PUSH1 0x0 DUP7 PUSH20 0xFFFFFFFFFFFFFFFFFFFFFFFFFFFFFFFFFFFFFFFF AND PUSH20 0xFFFFFFFFFFFFFFFFFFFFFFFFFFFFFFFFFFFFFFFF AND DUP2 MSTORE PUSH1 0x20 ADD SWAP1 DUP2 MSTORE PUSH1 0x20 ADD PUSH1 0x0 KECCAK256 PUSH1 0x0 DUP3 DUP3 SLOAD PUSH2 0x2C5 SWAP2 SWAP1 PUSH2 0x8AD JUMP JUMPDEST SWAP3 POP POP DUP2 SWAP1 SSTORE POP PUSH2 0x2E0 PUSH8 0x9B7073DAD6556EF8 PUSH1 0xC0 SHL PUSH2 0x579 JUMP JUMPDEST PUSH2 0x2F4 PUSH8 0x156658B592175FFE PUSH1 0xC0 SHL PUSH2 0x579 JUMP JUMPDEST DUP2 PUSH20 0xFFFFFFFFFFFFFFFFFFFFFFFFFFFFFFFFFFFFFFFF AND DUP5 PUSH20 0xFFFFFFFFFFFFFFFFFFFFFFFFFFFFFFFFFFFFFFFF AND PUSH32 0x56C54BA9BD38D8FD62012E42C7EE564519B09763C426D331B3661B537EAD19B2 DUP6 PUSH1 0x40 MLOAD PUSH2 0x351 SWAP2 SWAP1 PUSH2 0x677 JUMP JUMPDEST PUSH1 0x40 MLOAD DUP1 SWAP2 SUB SWAP1 LOG3 PUSH2 0x36D PUSH8 0xD0E18076F4FF1C83 PUSH1 0xC0 SHL PUSH2 0x579 JUMP JUMPDEST PUSH2 0x381 PUSH8 0x30C1A58C5CF528CB PUSH1 0xC0 SHL PUSH2 0x579 JUMP JUMPDEST DUP3 SWAP1 POP SWAP4 SWAP3 POP POP POP JUMP JUMPDEST PUSH1 0x0 DUP1 PUSH1 0x0 DUP1 PUSH1 0x0 DUP1 PUSH2 0x3A8 PUSH8 0x801ED76CB6EE529C PUSH1 0xC0 SHL PUSH2 0x579 JUMP JUMPDEST PUSH2 0x3BC PUSH8 0x397C2750A0D07285 PUSH1 0xC0 SHL PUSH2 0x579 JUMP JUMPDEST PUSH2 0x3D0 PUSH8 0x68F30B2CA36A309C PUSH1 0xC0 SHL PUSH2 0x579 JUMP JUMPDEST PUSH9 0x3635C9ADC5DEA00000 PUSH1 0x0 PUSH9 0x1B1AE4D6E2EF500000 PUSH1 0x50 DUP1 PUSH8 0xDE0B6B3A7640000 SWAP6 POP SWAP6 POP SWAP6 POP SWAP6 POP SWAP6 POP SWAP6 POP SWAP2 SWAP4 SWAP6 POP SWAP2 SWAP4 SWAP6 JUMP JUMPDEST PUSH1 0x0 PUSH1 0x20 MSTORE DUP2 PUSH1 0x0 MSTORE PUSH1 0x40 PUSH1 0x0 KECCAK256 PUSH1 0x20 MSTORE DUP1 PUSH1 0x0 MSTORE PUSH1 0x40 PUSH1 0x0 KECCAK256 PUSH1 0x0 SWAP2 POP SWAP2 POP POP SLOAD DUP2 JUMP JUMPDEST PUSH2 0x440 PUSH8 0x3DF108394EE53AB7 PUSH1 0xC0 SHL PUSH2 0x579 JUMP JUMPDEST PUSH2 0x454 PUSH8 0x6EDF190F5D298831 PUSH1 0xC0 SHL PUSH2 0x579 JUMP JUMPDEST DUP3 PUSH1 0x0 DUP1 DUP5 PUSH20 0xFFFFFFFFFFFFFFFFFFFFFFFFFFFFFFFFFFFFFFFF AND PUSH20 0xFFFFFFFFFFFFFFFFFFFFFFFFFFFFFFFFFFFFFFFF AND DUP2 MSTORE PUSH1 0x20 ADD SWAP1 DUP2 MSTORE PUSH1 0x20 ADD PUSH1 0x0 KECCAK256 PUSH1 0x0 DUP7 PUSH20 0xFFFFFFFFFFFFFFFFFFFFFFFFFFFFFFFFFFFFFFFF AND PUSH20 0xFFFFFFFFFFFFFFFFFFFFFFFFFFFFFFFFFFFFFFFF AND DUP2 MSTORE PUSH1 0x20 ADD SWAP1 DUP2 MSTORE PUSH1 0x20 ADD PUSH1 0x0 KECCAK256 PUSH1 0x0 DUP3 DUP3 SLOAD PUSH2 0x4DF SWAP2 SWAP1 PUSH2 0x8E1 JUMP JUMPDEST SWAP3 POP POP DUP2 SWAP1 SSTORE POP PUSH2 0x4FA PUSH8 0x49CD1659BCAE4262 PUSH1 0xC0 SHL PUSH2 0x579 JUMP JUMPDEST PUSH2 0x50E PUSH8 0x6841DA79AF8C7335 PUSH1 0xC0 SHL PUSH2 0x579 JUMP JUMPDEST DUP2 PUSH20 0xFFFFFFFFFFFFFFFFFFFFFFFFFFFFFFFFFFFFFFFF AND DUP5 PUSH20 0xFFFFFFFFFFFFFFFFFFFFFFFFFFFFFFFFFFFFFFFF AND PUSH32 0xE31C7B8D08EE7DB0AFA68782E1028EF92305CAEEA8626633AD44D413E30F6B2F DUP6 PUSH1 0x40 MLOAD PUSH2 0x56B SWAP2 SWAP1 PUSH2 0x677 JUMP JUMPDEST PUSH1 0x40 MLOAD DUP1 SWAP2 SUB SWAP1 LOG3 POP POP POP POP JUMP JUMPDEST POP JUMP JUMPDEST PUSH1 0x0 DUP1 REVERT JUMPDEST PUSH1 0x0 PUSH20 0xFFFFFFFFFFFFFFFFFFFFFFFFFFFFFFFFFFFFFFFF DUP3 AND SWAP1 POP SWAP2 SWAP1 POP JUMP JUMPDEST PUSH1 0x0 PUSH2 0x5AC DUP3 PUSH2 0x581 JUMP JUMPDEST SWAP1 POP SWAP2 SWAP1 POP JUMP JUMPDEST PUSH2 0x5BC DUP2 PUSH2 0x5A1 JUMP JUMPDEST DUP2 EQ PUSH2 0x5C7 JUMPI PUSH1 0x0 DUP1 REVERT JUMPDEST POP JUMP JUMPDEST PUSH1 0x0 DUP2 CALLDATALOAD SWAP1 POP PUSH2 0x5D9 DUP2 PUSH2 0x5B3 JUMP JUMPDEST SWAP3 SWAP2 POP POP JUMP JUMPDEST PUSH1 0x0 DUP2 SWAP1 POP SWAP2 SWAP1 POP JUMP JUMPDEST PUSH2 0x5F2 DUP2 PUSH2 0x5DF JUMP JUMPDEST DUP2 EQ PUSH2 0x5FD JUMPI PUSH1 0x0 DUP1 REVERT JUMPDEST POP JUMP JUMPDEST PUSH1 0x0 DUP2 CALLDATALOAD SWAP1 POP PUSH2 0x60F DUP2 PUSH2 0x5E9 JUMP JUMPDEST SWAP3 SWAP2 POP POP JUMP JUMPDEST PUSH1 0x0 DUP1 PUSH1 0x0 PUSH1 0x60 DUP5 DUP7 SUB SLT ISZERO PUSH2 0x62E JUMPI PUSH2 0x62D PUSH2 0x57C JUMP JUMPDEST JUMPDEST PUSH1 0x0 PUSH2 0x63C DUP7 DUP3 DUP8 ADD PUSH2 0x5CA JUMP JUMPDEST SWAP4 POP POP PUSH1 0x20 PUSH2 0x64D DUP7 DUP3 DUP8 ADD PUSH2 0x600 JUMP JUMPDEST SWAP3 POP POP PUSH1 0x40 PUSH2 0x65E DUP7 DUP3 DUP8 ADD PUSH2 0x5CA JUMP JUMPDEST SWAP2 POP POP SWAP3 POP SWAP3 POP SWAP3 JUMP JUMPDEST PUSH2 0x671 DUP2 PUSH2 0x5DF JUMP JUMPDEST DUP3 MSTORE POP POP JUMP JUMPDEST PUSH1 0x0 PUSH1 0x20 DUP3 ADD SWAP1 POP PUSH2 0x68C PUSH1 0x0 DUP4 ADD DUP5 PUSH2 0x668 JUMP JUMPDEST SWAP3 SWAP2 POP POP JUMP JUMPDEST PUSH1 0x0 PUSH1 0x20 DUP3 DUP5 SUB SLT ISZERO PUSH2 0x6A8 JUMPI PUSH2 0x6A7 PUSH2 0x57C JUMP JUMPDEST JUMPDEST PUSH1 0x0 PUSH2 0x6B6 DUP5 DUP3 DUP6 ADD PUSH2 0x5CA JUMP JUMPDEST SWAP2 POP POP SWAP3 SWAP2 POP POP JUMP JUMPDEST PUSH1 0x0 PUSH1 0xC0 DUP3 ADD SWAP1 POP PUSH2 0x6D4 PUSH1 0x0 DUP4 ADD DUP10 PUSH2 0x668 JUMP JUMPDEST PUSH2 0x6E1 PUSH1 0x20 DUP4 ADD DUP9 PUSH2 0x668 JUMP JUMPDEST PUSH2 0x6EE PUSH1 0x40 DUP4 ADD DUP8 PUSH2 0x668 JUMP JUMPDEST PUSH2 0x6FB PUSH1 0x60 DUP4 ADD DUP7 PUSH2 0x668 JUMP JUMPDEST PUSH2 0x708 PUSH1 0x80 DUP4 ADD DUP6 PUSH2 0x668 JUMP JUMPDEST PUSH2 0x715 PUSH1 0xA0 DUP4 ADD DUP5 PUSH2 0x668 JUMP JUMPDEST SWAP8 SWAP7 POP POP POP POP POP POP POP JUMP JUMPDEST PUSH1 0x0 DUP1 PUSH1 0x40 DUP4 DUP6 SUB SLT ISZERO PUSH2 0x737 JUMPI PUSH2 0x736 PUSH2 0x57C JUMP JUMPDEST JUMPDEST PUSH1 0x0 PUSH2 0x745 DUP6 DUP3 DUP7 ADD PUSH2 0x5CA JUMP JUMPDEST SWAP3 POP POP PUSH1 0x20 PUSH2 0x756 DUP6 DUP3 DUP7 ADD PUSH2 0x5CA JUMP JUMPDEST SWAP2 POP POP SWAP3 POP SWAP3 SWAP1 POP JUMP JUMPDEST PUSH1 0x0 PUSH2 0xFFFF DUP3 AND SWAP1 POP SWAP2 SWAP1 POP JUMP JUMPDEST PUSH2 0x777 DUP2 PUSH2 0x760 JUMP JUMPDEST DUP2 EQ PUSH2 0x782 JUMPI PUSH1 0x0 DUP1 REVERT JUMPDEST POP JUMP JUMPDEST PUSH1 0x0 DUP2 CALLDATALOAD SWAP1 POP PUSH2 0x794 DUP2 PUSH2 0x76E JUMP JUMPDEST SWAP3 SWAP2 POP POP JUMP JUMPDEST PUSH1 0x0 DUP1 PUSH1 0x0 DUP1 PUSH1 0x80 DUP6 DUP8 SUB SLT ISZERO PUSH2 0x7B4 JUMPI PUSH2 0x7B3 PUSH2 0x57C JUMP JUMPDEST JUMPDEST PUSH1 0x0 PUSH2 0x7C2 DUP8 DUP3 DUP9 ADD PUSH2 0x5CA JUMP JUMPDEST SWAP5 POP POP PUSH1 0x20 PUSH2 0x7D3 DUP8 DUP3 DUP9 ADD PUSH2 0x600 JUMP JUMPDEST SWAP4 POP POP PUSH1 0x40 PUSH2 0x7E4 DUP8 DUP3 DUP9 ADD PUSH2 0x5CA JUMP JUMPDEST SWAP3 POP POP PUSH1 0x60 PUSH2 0x7F5 DUP8 DUP3 DUP9 ADD PUSH2 0x785 JUMP JUMPDEST SWAP2 POP POP SWAP3 SWAP6 SWAP2 SWAP5 POP SWAP3 POP JUMP JUMPDEST PUSH1 0x0 DUP3 DUP3 MSTORE PUSH1 0x20 DUP3 ADD SWAP1 POP SWAP3 SWAP2 POP POP JUMP JUMPDEST PUSH32 0x496E73756666696369656E742062616C616E6365000000000000000000000000 PUSH1 0x0 DUP3 ADD MSTORE POP JUMP JUMPDEST PUSH1 0x0 PUSH2 0x848 PUSH1 0x14 DUP4 PUSH2 0x801 JUMP JUMPDEST SWAP2 POP PUSH2 0x853 DUP3 PUSH2 0x812 JUMP JUMPDEST PUSH1 0x20 DUP3 ADD SWAP1 POP SWAP2 SWAP1 POP JUMP JUMPDEST PUSH1 0x0 PUSH1 0x20 DUP3 ADD SWAP1 POP DUP2 DUP2 SUB PUSH1 0x0 DUP4 ADD MSTORE PUSH2 0x877 DUP2 PUSH2 0x83B JUMP JUMPDEST SWAP1 POP SWAP2 SWAP1 POP JUMP JUMPDEST PUSH32 0x4E487B7100000000000000000000000000000000000000000000000000000000 PUSH1 0x0 MSTORE PUSH1 0x11 PUSH1 0x4 MSTORE PUSH1 0x24 PUSH1 0x0 REVERT JUMPDEST PUSH1 0x0 PUSH2 0x8B8 DUP3 PUSH2 0x5DF JUMP JUMPDEST SWAP2 POP PUSH2 0x8C3 DUP4 PUSH2 0x5DF JUMP JUMPDEST SWAP3 POP DUP3 DUP3 SUB SWAP1 POP DUP2 DUP2 GT ISZERO PUSH2 0x8DB JUMPI PUSH2 0x8DA PUSH2 0x87E JUMP JUMPDEST JUMPDEST SWAP3 SWAP2 POP POP JUMP JUMPDEST PUSH1 0x0 PUSH2 0x8EC DUP3 PUSH2 0x5DF JUMP JUMPDEST SWAP2 POP PUSH2 0x8F7 DUP4 PUSH2 0x5DF JUMP JUMPDEST SWAP3 POP DUP3 DUP3 ADD SWAP1 POP DUP1 DUP3 GT ISZERO PUSH2 0x90F JUMPI PUSH2 0x90E PUSH2 0x87E JUMP JUMPDEST JUMPDEST SWAP3 SWAP2 POP POP JUMP INVALID LOG2 PUSH5 0x6970667358 0x22 SLT KECCAK256 0xAB 0x5F 0xCD MSTORE8 PUSH27 0x94BA67E54EEF3FD38F87B64292979766035998862E99BF8D832FAE PUSH5 0x736F6C6343 STOP ADDMOD SGT STOP CALLER "},"methodIdentifiers":{"balances(address,address)":"c23f001f","deposit(address,uint256,address,uint16)":"e8eda9df","getUserAccountData(address)":"bf92857c","withdraw(address,uint256,address)":"69328dec"}}}}}