{"contracts/DistributionLogic.sol":{"DistributionLogic":{"abi":[{"inputs":[],"stateMutability":"nonpayable","type":"constructor"},{"anonymous":false,"inputs":[{"indexed":false,"internalType":"uint256","name":"church","type":"uint256"},{"indexed":false,"internalType":"uint256","name":"donors","type":"uint256"},{"indexed":false,"internalType":"uint256","name":"reserve","type":"uint256"}],"name":"DistributionConfigUpdated","type":"event"},{"inputs":[],"name":"MIN_DONATION","outputs":[{"internalType":"uint256","name":"","type":"uint256"}],"stateMutability":"view","type":"function"},{"inputs":[],"name":"PRECISION","outputs":[{"internalType":"uint256","name":"","type":"uint256"}],"stateMutability":"view","type":"function"},{"inputs":[{"internalType":"uint256","name":"totalAmount","type":"uint256"},{"internalType":"address[]","name":"donors","type":"address[]"}],"name":"calculateDistribution","outputs":[{"internalType":"address[]","name":"recipients","type":"address[]"},{"internalType":"uint256[]","name":"amounts","type":"uint256[]"}],"stateMutability":"view","type":"function"},{"inputs":[{"internalType":"uint256","name":"amount","type":"uint256"},{"internalType":"uint256","name":"percentage","type":"uint256"}],"name":"calculatePercentage","outputs":[{"internalType":"uint256","name":"","type":"uint256"}],"stateMutability":"pure","type":"function"},{"inputs":[],"name":"churchPercentage","outputs":[{"internalType":"uint256","name":"","type":"uint256"}],"stateMutability":"view","type":"function"},{"inputs":[],"name":"donorRewardPercentage","outputs":[{"internalType":"uint256","name":"","type":"uint256"}],"stateMutability":"view","type":"function"},{"inputs":[],"name":"owner","outputs":[{"internalType":"address","name":"","type":"address"}],"stateMutability":"view","type":"function"},{"inputs":[],"name":"reservePercentage","outputs":[{"internalType":"uint256","name":"","type":"uint256"}],"stateMutability":"view","type":"function"},{"inputs":[{"internalType":"uint256","name":"_church","type":"uint256"},{"internalType":"uint256","name":"_donors","type":"uint256"},{"internalType":"uint256","name":"_reserve","type":"uint256"}],"name":"setDistributionPercentages","outputs":[],"stateMutability":"nonpayable","type":"function"}],"evm":{"bytecode":{"linkReferences":{},"object":"6080604052603c600055601e600155600a60025534801561001f57600080fd5b5061003a6736bf19eb234d5a6b60c01b61009960201b60201c565b61005366a170c95234f40760c01b61009960201b60201c565b33600360006101000a81548173ffffffffffffffffffffffffffffffffffffffff021916908373ffffffffffffffffffffffffffffffffffffffff16021790555061009c565b50565b610fbb806100ab6000396000f3fe608060405234801561001057600080fd5b50600436106100935760003560e01c80639328aea5116100665780639328aea514610133578063aaf5eb6814610151578063db45810e1461016f578063f700c8291461018d578063fbe2e557146101ab57610093565b80632133e3b914610098578063353cf1fb146100c857806384ff1d3e146100e45780638da5cb5b14610115575b600080fd5b6100b260048036038101906100ad91906108d0565b6101c9565b6040516100bf919061091f565b60405180910390f35b6100e260048036038101906100dd919061093a565b610227565b005b6100fe60048036038101906100f991906109f2565b61047d565b60405161010c929190610c00565b60405180910390f35b61011d610842565b60405161012a9190610c46565b60405180910390f35b61013b610868565b604051610148919061091f565b60405180910390f35b61015961086e565b604051610166919061091f565b60405180910390f35b61017761087a565b604051610184919061091f565b60405180910390f35b610195610881565b6040516101a2919061091f565b60405180910390f35b6101b3610887565b6040516101c0919061091f565b60405180910390f35b60006101df6715426abf0d4a947c60c01b61088d565b6101f3672558dd7dccce165c60c01b61088d565b610207679a497c49e6ba3cce60c01b61088d565b606482846102159190610c90565b61021f9190610d01565b905092915050565b61023b67cb3545efd6857cf060c01b61088d565b61024f67d94627aa038d4ce660c01b61088d565b61026367d35e92fec21e6b5360c01b61088d565b6102776757913829423a86fb60c01b61088d565b600360009054906101000a900473ffffffffffffffffffffffffffffffffffffffff1673ffffffffffffffffffffffffffffffffffffffff163373ffffffffffffffffffffffffffffffffffffffff1614610307576040517f08c379a00000000000000000000000000000000000000000000000000000000081526004016102fe90610d8f565b60405180910390fd5b61031b67b8658b4335628cdb60c01b61088d565b61032f67fe126afac9a96b2360c01b61088d565b6103436739f91dc0f9e58dfe60c01b61088d565b61035767eed61bc40b33b74b60c01b61088d565b60648183856103669190610daf565b6103709190610daf565b146103b0576040517f08c379a00000000000000000000000000000000000000000000000000000000081526004016103a790610e2f565b60405180910390fd5b6103c467c650fb7efabe1afd60c01b61088d565b6103d8678caf720cb189e8dd60c01b61088d565b826000819055506103f367f92fc40a1d48856c60c01b61088d565b8160018190555061040e67c945d05e81ef35bd60c01b61088d565b806002819055506104296767a0ec7d06d8434060c01b61088d565b61043d6741ee73038c7c422460c01b61088d565b7f1d163f48d073c4134cd7aae0987c704ed03803df2a44843466bbc4357d0290bc83838360405161047093929190610e4f565b60405180910390a1505050565b60608061049366e2d16978cd3ee760c01b61088d565b6104a76745858ce2fbb8a45060c01b61088d565b6104bb675a3724161ca81d5760c01b61088d565b60006064600054876104cd9190610c90565b6104d79190610d01565b90506104ed67105b827bf1c1c5cb60c01b61088d565b6105016763c4bc7a3bcf3d9c60c01b61088d565b60006064600154886105139190610c90565b61051d9190610d01565b9050610533671dd648076a967e8860c01b61088d565b6001868690506105439190610daf565b67ffffffffffffffff81111561055c5761055b610e86565b5b60405190808252806020026020018201604052801561058a5781602001602082028036833780820191505090505b5093506105a167d635956e9e25662160c01b61088d565b6001868690506105b19190610daf565b67ffffffffffffffff8111156105ca576105c9610e86565b5b6040519080825280602002602001820160405280156105f85781602001602082028036833780820191505090505b50925061060f67d08c04c7c038274460c01b61088d565b600360009054906101000a900473ffffffffffffffffffffffffffffffffffffffff168460008151811061064657610645610eb5565b5b602002602001019073ffffffffffffffffffffffffffffffffffffffff16908173ffffffffffffffffffffffffffffffffffffffff16815250506106946778b13d34424c375360c01b61088d565b81836000815181106106a9576106a8610eb5565b5b6020026020010181815250506106c96713b7243885bfd7e360c01b61088d565b6106dd67c9f1e2197256728160c01b61088d565b600086869050826106ee9190610d01565b9050610704671d7cfdef2e693ff060c01b61088d565b610718670bfa8f456cfc15c860c01b61088d565b60005b8787905081101561080e5761073a6739753440d579de1360c01b61088d565b87878281811061074d5761074c610eb5565b5b90506020020160208101906107629190610f10565b866001836107709190610daf565b8151811061078157610780610eb5565b5b602002602001019073ffffffffffffffffffffffffffffffffffffffff16908173ffffffffffffffffffffffffffffffffffffffff16815250506107cf67068f5e2b99b2ab4060c01b61088d565b81856001836107de9190610daf565b815181106107ef576107ee610eb5565b5b602002602001018181525050808061080690610f3d565b91505061071b565b50610823670931e694378b4baf60c01b61088d565b610837676c79d349765e897960c01b61088d565b505050935093915050565b600360009054906101000a900473ffffffffffffffffffffffffffffffffffffffff1681565b60015481565b670de0b6b3a764000081565b620f424081565b60025481565b60005481565b50565b600080fd5b600080fd5b6000819050919050565b6108ad8161089a565b81146108b857600080fd5b50565b6000813590506108ca816108a4565b92915050565b600080604083850312156108e7576108e6610890565b5b60006108f5858286016108bb565b9250506020610906858286016108bb565b9150509250929050565b6109198161089a565b82525050565b60006020820190506109346000830184610910565b92915050565b60008060006060848603121561095357610952610890565b5b6000610961868287016108bb565b9350506020610972868287016108bb565b9250506040610983868287016108bb565b9150509250925092565b600080fd5b600080fd5b600080fd5b60008083601f8401126109b2576109b161098d565b5b8235905067ffffffffffffffff8111156109cf576109ce610992565b5b6020830191508360208202830111156109eb576109ea610997565b5b9250929050565b600080600060408486031215610a0b57610a0a610890565b5b6000610a19868287016108bb565b935050602084013567ffffffffffffffff811115610a3a57610a39610895565b5b610a468682870161099c565b92509250509250925092565b600081519050919050565b600082825260208201905092915050565b6000819050602082019050919050565b600073ffffffffffffffffffffffffffffffffffffffff82169050919050565b6000610aa982610a7e565b9050919050565b610ab981610a9e565b82525050565b6000610acb8383610ab0565b60208301905092915050565b6000602082019050919050565b6000610aef82610a52565b610af98185610a5d565b9350610b0483610a6e565b8060005b83811015610b35578151610b1c8882610abf565b9750610b2783610ad7565b925050600181019050610b08565b5085935050505092915050565b600081519050919050565b600082825260208201905092915050565b6000819050602082019050919050565b610b778161089a565b82525050565b6000610b898383610b6e565b60208301905092915050565b6000602082019050919050565b6000610bad82610b42565b610bb78185610b4d565b9350610bc283610b5e565b8060005b83811015610bf3578151610bda8882610b7d565b9750610be583610b95565b925050600181019050610bc6565b5085935050505092915050565b60006040820190508181036000830152610c1a8185610ae4565b90508181036020830152610c2e8184610ba2565b90509392505050565b610c4081610a9e565b82525050565b6000602082019050610c5b6000830184610c37565b92915050565b7f4e487b7100000000000000000000000000000000000000000000000000000000600052601160045260246000fd5b6000610c9b8261089a565b9150610ca68361089a565b9250828202610cb48161089a565b91508282048414831517610ccb57610cca610c61565b5b5092915050565b7f4e487b7100000000000000000000000000000000000000000000000000000000600052601260045260246000fd5b6000610d0c8261089a565b9150610d178361089a565b925082610d2757610d26610cd2565b5b828204905092915050565b600082825260208201905092915050565b7f4f6e6c79206f776e657200000000000000000000000000000000000000000000600082015250565b6000610d79600a83610d32565b9150610d8482610d43565b602082019050919050565b60006020820190508181036000830152610da881610d6c565b9050919050565b6000610dba8261089a565b9150610dc58361089a565b9250828201905080821115610ddd57610ddc610c61565b5b92915050565b7f50657263656e7461676573206d7573742073756d20746f203130300000000000600082015250565b6000610e19601b83610d32565b9150610e2482610de3565b602082019050919050565b60006020820190508181036000830152610e4881610e0c565b9050919050565b6000606082019050610e646000830186610910565b610e716020830185610910565b610e7e6040830184610910565b949350505050565b7f4e487b7100000000000000000000000000000000000000000000000000000000600052604160045260246000fd5b7f4e487b7100000000000000000000000000000000000000000000000000000000600052603260045260246000fd5b610eed81610a9e565b8114610ef857600080fd5b50565b600081359050610f0a81610ee4565b92915050565b600060208284031215610f2657610f25610890565b5b6000610f3484828501610efb565b91505092915050565b6000610f488261089a565b91507fffffffffffffffffffffffffffffffffffffffffffffffffffffffffffffffff8203610f7a57610f79610c61565b5b60018201905091905056fea26469706673582212201f4d55e726a409650b329759d20f8ebee7b2496c47f457b10d276d5718b3922564736f6c63430008130033","opcodes":"PUSH1 0x80 PUSH1 0x40 MSTORE PUSH1 0x3C PUSH1 0x0 SSTORE PUSH1 0x1E PUSH1 0x1 SSTORE PUSH1 0xA PUSH1 0x2 SSTORE CALLVALUE DUP1 ISZERO PUSH2 0x1F JUMPI PUSH1 0x0 DUP1 REVERT JUMPDEST POP PUSH2 0x3A PUSH8 0x36BF19EB234D5A6B PUSH1 0xC0 SHL PUSH2 0x99 PUSH1 0x20 SHL PUSH1 0x20 SHR JUMP JUMPDEST PUSH2 0x53 PUSH7 0xA170C95234F407 PUSH1 0xC0 SHL PUSH2 0x99 PUSH1 0x20 SHL PUSH1 0x20 SHR JUMP JUMPDEST CALLER PUSH1 0x3 PUSH1 0x0 PUSH2 0x100 EXP DUP2 SLOAD DUP2 PUSH20 0xFFFFFFFFFFFFFFFFFFFFFFFFFFFFFFFFFFFFFFFF MUL NOT AND SWAP1 DUP4 PUSH20 0xFFFFFFFFFFFFFFFFFFFFFFFFFFFFFFFFFFFFFFFF AND MUL OR SWAP1 SSTORE POP PUSH2 0x9C JUMP JUMPDEST POP JUMP JUMPDEST PUSH2 0xFBB DUP1 PUSH2 0xAB PUSH1 0x0 CODECOPY PUSH1 0x0 RETURN INVALID PUSH1 0x80 PUSH1 0x40 MSTORE CALLVALUE DUP1 ISZERO PUSH2 0x10 JUMPI PUSH1 0x0 DUP1 REVERT JUMPDEST POP PUSH1 0x4 CALLDATASIZE LT PUSH2 0x93 JUMPI PUSH1 0x0 CALLDATALOAD PUSH1 0xE0 SHR DUP1 PUSH4 0x9328AEA5 GT PUSH2 0x66 JUMPI DUP1 PUSH4 0x9328AEA5 EQ PUSH2 0x133 JUMPI DUP1 PUSH4 0xAAF5EB68 EQ PUSH2 0x151 JUMPI DUP1 PUSH4 0xDB45810E EQ PUSH2 0x16F JUMPI DUP1 PUSH4 0xF700C829 EQ PUSH2 0x18D JUMPI DUP1 PUSH4 0xFBE2E557 EQ PUSH2 0x1AB JUMPI PUSH2 0x93 JUMP JUMPDEST DUP1 PUSH4 0x2133E3B9 EQ PUSH2 0x98 JUMPI DUP1 PUSH4 0x353CF1FB EQ PUSH2 0xC8 JUMPI DUP1 PUSH4 0x84FF1D3E EQ PUSH2 0xE4 JUMPI DUP1 PUSH4 0x8DA5CB5B EQ PUSH2 0x115 JUMPI JUMPDEST PUSH1 0x0 DUP1 REVERT JUMPDEST PUSH2 0xB2 PUSH1 0x4 DUP1 CALLDATASIZE SUB DUP2 ADD SWAP1 PUSH2 0xAD SWAP2 SWAP1 PUSH2 0x8D0 JUMP JUMPDEST PUSH2 0x1C9 JUMP JUMPDEST PUSH1 0x40 MLOAD PUSH2 0xBF SWAP2 SWAP1 PUSH2 0x91F JUMP JUMPDEST PUSH1 0x40 MLOAD DUP1 SWAP2 SUB SWAP1 RETURN JUMPDEST PUSH2 0xE2 PUSH1 0x4 DUP1 CALLDATASIZE SUB DUP2 ADD SWAP1 PUSH2 0xDD SWAP2 SWAP1 PUSH2 0x93A JUMP JUMPDEST PUSH2 0x227 JUMP JUMPDEST STOP JUMPDEST PUSH2 0xFE PUSH1 0x4 DUP1 CALLDATASIZE SUB DUP2 ADD SWAP1 PUSH2 0xF9 SWAP2 SWAP1 PUSH2 0x9F2 JUMP JUMPDEST PUSH2 0x47D JUMP JUMPDEST PUSH1 0x40 MLOAD PUSH2 0x10C SWAP3 SWAP2 SWAP1 PUSH2 0xC00 JUMP JUMPDEST PUSH1 0x40 MLOAD DUP1 SWAP2 SUB SWAP1 RETURN JUMPDEST PUSH2 0x11D PUSH2 0x842 JUMP JUMPDEST PUSH1 0x40 MLOAD PUSH2 0x12A SWAP2 SWAP1 PUSH2 0xC46 JUMP JUMPDEST PUSH1 0x40 MLOAD DUP1 SWAP2 SUB SWAP1 RETURN JUMPDEST PUSH2 0x13B PUSH2 0x868 JUMP JUMPDEST PUSH1 0x40 MLOAD PUSH2 0x148 SWAP2 SWAP1 PUSH2 0x91F JUMP JUMPDEST PUSH1 0x40 MLOAD DUP1 SWAP2 SUB SWAP1 RETURN JUMPDEST PUSH2 0x159 PUSH2 0x86E JUMP JUMPDEST PUSH1 0x40 MLOAD PUSH2 0x166 SWAP2 SWAP1 PUSH2 0x91F JUMP JUMPDEST PUSH1 0x40 MLOAD DUP1 SWAP2 SUB SWAP1 RETURN JUMPDEST PUSH2 0x177 PUSH2 0x87A JUMP JUMPDEST PUSH1 0x40 MLOAD PUSH2 0x184 SWAP2 SWAP1 PUSH2 0x91F JUMP JUMPDEST PUSH1 0x40 MLOAD DUP1 SWAP2 SUB SWAP1 RETURN JUMPDEST PUSH2 0x195 PUSH2 0x881 JUMP JUMPDEST PUSH1 0x40 MLOAD PUSH2 0x1A2 SWAP2 SWAP1 PUSH2 0x91F JUMP JUMPDEST PUSH1 0x40 MLOAD DUP1 SWAP2 SUB SWAP1 RETURN JUMPDEST PUSH2 0x1B3 PUSH2 0x887 JUMP JUMPDEST PUSH1 0x40 MLOAD PUSH2 0x1C0 SWAP2 SWAP1 PUSH2 0x91F JUMP JUMPDEST PUSH1 0x40 MLOAD DUP1 SWAP2 SUB SWAP1 RETURN JUMPDEST PUSH1 0x0 PUSH2 0x1DF PUSH8 0x15426ABF0D4A947C PUSH1 0xC0 SHL PUSH2 0x88D JUMP JUMPDEST PUSH2 0x1F3 PUSH8 0x2558DD7DCCCE165C PUSH1 0xC0 SHL PUSH2 0x88D JUMP JUMPDEST PUSH2 0x207 PUSH8 0x9A497C49E6BA3CCE PUSH1 0xC0 SHL PUSH2 0x88D JUMP JUMPDEST PUSH1 0x64 DUP3 DUP5 PUSH2 0x215 SWAP2 SWAP1 PUSH2 0xC90 JUMP JUMPDEST PUSH2 0x21F SWAP2 SWAP1 PUSH2 0xD01 JUMP JUMPDEST SWAP1 POP SWAP3 SWAP2 POP POP JUMP JUMPDEST PUSH2 0x23B PUSH8 0xCB3545EFD6857CF0 PUSH1 0xC0 SHL PUSH2 0x88D JUMP JUMPDEST PUSH2 0x24F PUSH8 0xD94627AA038D4CE6 PUSH1 0xC0 SHL PUSH2 0x88D JUMP JUMPDEST PUSH2 0x263 PUSH8 0xD35E92FEC21E6B53 PUSH1 0xC0 SHL PUSH2 0x88D JUMP JUMPDEST PUSH2 0x277 PUSH8 0x57913829423A86FB PUSH1 0xC0 SHL PUSH2 0x88D JUMP JUMPDEST PUSH1 0x3 PUSH1 0x0 SWAP1 SLOAD SWAP1 PUSH2 0x100 EXP SWAP1 DIV PUSH20 0xFFFFFFFFFFFFFFFFFFFFFFFFFFFFFFFFFFFFFFFF AND PUSH20 0xFFFFFFFFFFFFFFFFFFFFFFFFFFFFFFFFFFFFFFFF AND CALLER PUSH20 0xFFFFFFFFFFFFFFFFFFFFFFFFFFFFFFFFFFFFFFFF AND EQ PUSH2 0x307 JUMPI PUSH1 0x40 MLOAD PUSH32 0x8C379A000000000000000000000000000000000000000000000000000000000 DUP2 MSTORE PUSH1 0x4 ADD PUSH2 0x2FE SWAP1 PUSH2 0xD8F JUMP JUMPDEST PUSH1 0x40 MLOAD DUP1 SWAP2 SUB SWAP1 REVERT JUMPDEST PUSH2 0x31B PUSH8 0xB8658B4335628CDB PUSH1 0xC0 SHL PUSH2 0x88D JUMP JUMPDEST PUSH2 0x32F PUSH8 0xFE126AFAC9A96B23 PUSH1 0xC0 SHL PUSH2 0x88D JUMP JUMPDEST PUSH2 0x343 PUSH8 0x39F91DC0F9E58DFE PUSH1 0xC0 SHL PUSH2 0x88D JUMP JUMPDEST PUSH2 0x357 PUSH8 0xEED61BC40B33B74B PUSH1 0xC0 SHL PUSH2 0x88D JUMP JUMPDEST PUSH1 0x64 DUP2 DUP4 DUP6 PUSH2 0x366 SWAP2 SWAP1 PUSH2 0xDAF JUMP JUMPDEST PUSH2 0x370 SWAP2 SWAP1 PUSH2 0xDAF JUMP JUMPDEST EQ PUSH2 0x3B0 JUMPI PUSH1 0x40 MLOAD PUSH32 0x8C379A000000000000000000000000000000000000000000000000000000000 DUP2 MSTORE PUSH1 0x4 ADD PUSH2 0x3A7 SWAP1 PUSH2 0xE2F JUMP JUMPDEST PUSH1 0x40 MLOAD DUP1 SWAP2 SUB SWAP1 REVERT JUMPDEST PUSH2 0x3C4 PUSH8 0xC650FB7EFABE1AFD PUSH1 0xC0 SHL PUSH2 0x88D JUMP JUMPDEST PUSH2 0x3D8 PUSH8 0x8CAF720CB189E8DD PUSH1 0xC0 SHL PUSH2 0x88D JUMP JUMPDEST DUP3 PUSH1 0x0 DUP2 SWAP1 SSTORE POP PUSH2 0x3F3 PUSH8 0xF92FC40A1D48856C PUSH1 0xC0 SHL PUSH2 0x88D JUMP JUMPDEST DUP2 PUSH1 0x1 DUP2 SWAP1 SSTORE POP PUSH2 0x40E PUSH8 0xC945D05E81EF35BD PUSH1 0xC0 SHL PUSH2 0x88D JUMP JUMPDEST DUP1 PUSH1 0x2 DUP2 SWAP1 SSTORE POP PUSH2 0x429 PUSH8 0x67A0EC7D06D84340 PUSH1 0xC0 SHL PUSH2 0x88D JUMP JUMPDEST PUSH2 0x43D PUSH8 0x41EE73038C7C4224 PUSH1 0xC0 SHL PUSH2 0x88D JUMP JUMPDEST PUSH32 0x1D163F48D073C4134CD7AAE0987C704ED03803DF2A44843466BBC4357D0290BC DUP4 DUP4 DUP4 PUSH1 0x40 MLOAD PUSH2 0x470 SWAP4 SWAP3 SWAP2 SWAP1 PUSH2 0xE4F JUMP JUMPDEST PUSH1 0x40 MLOAD DUP1 SWAP2 SUB SWAP1 LOG1 POP POP POP JUMP JUMPDEST PUSH1 0x60 DUP1 PUSH2 0x493 PUSH7 0xE2D16978CD3EE7 PUSH1 0xC0 SHL PUSH2 0x88D JUMP JUMPDEST PUSH2 0x4A7 PUSH8 0x45858CE2FBB8A450 PUSH1 0xC0 SHL PUSH2 0x88D JUMP JUMPDEST PUSH2 0x4BB PUSH8 0x5A3724161CA81D57 PUSH1 0xC0 SHL PUSH2 0x88D JUMP JUMPDEST PUSH1 0x0 PUSH1 0x64 PUSH1 0x0 SLOAD DUP8 PUSH2 0x4CD SWAP2 SWAP1 PUSH2 0xC90 JUMP JUMPDEST PUSH2 0x4D7 SWAP2 SWAP1 PUSH2 0xD01 JUMP JUMPDEST SWAP1 POP PUSH2 0x4ED PUSH8 0x105B827BF1C1C5CB PUSH1 0xC0 SHL PUSH2 0x88D JUMP JUMPDEST PUSH2 0x501 PUSH8 0x63C4BC7A3BCF3D9C PUSH1 0xC0 SHL PUSH2 0x88D JUMP JUMPDEST PUSH1 0x0 PUSH1 0x64 PUSH1 0x1 SLOAD DUP9 PUSH2 0x513 SWAP2 SWAP1 PUSH2 0xC90 JUMP JUMPDEST PUSH2 0x51D SWAP2 SWAP1 PUSH2 0xD01 JUMP JUMPDEST SWAP1 POP PUSH2 0x533 PUSH8 0x1DD648076A967E88 PUSH1 0xC0 SHL PUSH2 0x88D JUMP JUMPDEST PUSH1 0x1 DUP7 DUP7 SWAP1 POP PUSH2 0x543 SWAP2 SWAP1 PUSH2 0xDAF JUMP JUMPDEST PUSH8 0xFFFFFFFFFFFFFFFF DUP2 GT ISZERO PUSH2 0x55C JUMPI PUSH2 0x55B PUSH2 0xE86 JUMP JUMPDEST JUMPDEST PUSH1 0x40 MLOAD SWAP1 DUP1 DUP3 MSTORE DUP1 PUSH1 0x20 MUL PUSH1 0x20 ADD DUP3 ADD PUSH1 0x40 MSTORE DUP1 ISZERO PUSH2 0x58A JUMPI DUP2 PUSH1 0x20 ADD PUSH1 0x20 DUP3 MUL DUP1 CALLDATASIZE DUP4 CALLDATACOPY DUP1 DUP3 ADD SWAP2 POP POP SWAP1 POP JUMPDEST POP SWAP4 POP PUSH2 0x5A1 PUSH8 0xD635956E9E256621 PUSH1 0xC0 SHL PUSH2 0x88D JUMP JUMPDEST PUSH1 0x1 DUP7 DUP7 SWAP1 POP PUSH2 0x5B1 SWAP2 SWAP1 PUSH2 0xDAF JUMP JUMPDEST PUSH8 0xFFFFFFFFFFFFFFFF DUP2 GT ISZERO PUSH2 0x5CA JUMPI PUSH2 0x5C9 PUSH2 0xE86 JUMP JUMPDEST JUMPDEST PUSH1 0x40 MLOAD SWAP1 DUP1 DUP3 MSTORE DUP1 PUSH1 0x20 MUL PUSH1 0x20 ADD DUP3 ADD PUSH1 0x40 MSTORE DUP1 ISZERO PUSH2 0x5F8 JUMPI DUP2 PUSH1 0x20 ADD PUSH1 0x20 DUP3 MUL DUP1 CALLDATASIZE DUP4 CALLDATACOPY DUP1 DUP3 ADD SWAP2 POP POP SWAP1 POP JUMPDEST POP SWAP3 POP PUSH2 0x60F PUSH8 0xD08C04C7C0382744 PUSH1 0xC0 SHL PUSH2 0x88D JUMP JUMPDEST PUSH1 0x3 PUSH1 0x0 SWAP1 SLOAD SWAP1 PUSH2 0x100 EXP SWAP1 DIV PUSH20 0xFFFFFFFFFFFFFFFFFFFFFFFFFFFFFFFFFFFFFFFF AND DUP5 PUSH1 0x0 DUP2 MLOAD DUP2 LT PUSH2 0x646 JUMPI PUSH2 0x645 PUSH2 0xEB5 JUMP JUMPDEST JUMPDEST PUSH1 0x20 MUL PUSH1 0x20 ADD ADD SWAP1 PUSH20 0xFFFFFFFFFFFFFFFFFFFFFFFFFFFFFFFFFFFFFFFF AND SWAP1 DUP2 PUSH20 0xFFFFFFFFFFFFFFFFFFFFFFFFFFFFFFFFFFFFFFFF AND DUP2 MSTORE POP POP PUSH2 0x694 PUSH8 0x78B13D34424C3753 PUSH1 0xC0 SHL PUSH2 0x88D JUMP JUMPDEST DUP2 DUP4 PUSH1 0x0 DUP2 MLOAD DUP2 LT PUSH2 0x6A9 JUMPI PUSH2 0x6A8 PUSH2 0xEB5 JUMP JUMPDEST JUMPDEST PUSH1 0x20 MUL PUSH1 0x20 ADD ADD DUP2 DUP2 MSTORE POP POP PUSH2 0x6C9 PUSH8 0x13B7243885BFD7E3 PUSH1 0xC0 SHL PUSH2 0x88D JUMP JUMPDEST PUSH2 0x6DD PUSH8 0xC9F1E21972567281 PUSH1 0xC0 SHL PUSH2 0x88D JUMP JUMPDEST PUSH1 0x0 DUP7 DUP7 SWAP1 POP DUP3 PUSH2 0x6EE SWAP2 SWAP1 PUSH2 0xD01 JUMP JUMPDEST SWAP1 POP PUSH2 0x704 PUSH8 0x1D7CFDEF2E693FF0 PUSH1 0xC0 SHL PUSH2 0x88D JUMP JUMPDEST PUSH2 0x718 PUSH8 0xBFA8F456CFC15C8 PUSH1 0xC0 SHL PUSH2 0x88D JUMP JUMPDEST PUSH1 0x0 JUMPDEST DUP8 DUP8 SWAP1 POP DUP2 LT ISZERO PUSH2 0x80E JUMPI PUSH2 0x73A PUSH8 0x39753440D579DE13 PUSH1 0xC0 SHL PUSH2 0x88D JUMP JUMPDEST DUP8 DUP8 DUP3 DUP2 DUP2 LT PUSH2 0x74D JUMPI PUSH2 0x74C PUSH2 0xEB5 JUMP JUMPDEST JUMPDEST SWAP1 POP PUSH1 0x20 MUL ADD PUSH1 0x20 DUP2 ADD SWAP1 PUSH2 0x762 SWAP2 SWAP1 PUSH2 0xF10 JUMP JUMPDEST DUP7 PUSH1 0x1 DUP4 PUSH2 0x770 SWAP2 SWAP1 PUSH2 0xDAF JUMP JUMPDEST DUP2 MLOAD DUP2 LT PUSH2 0x781 JUMPI PUSH2 0x780 PUSH2 0xEB5 JUMP JUMPDEST JUMPDEST PUSH1 0x20 MUL PUSH1 0x20 ADD ADD SWAP1 PUSH20 0xFFFFFFFFFFFFFFFFFFFFFFFFFFFFFFFFFFFFFFFF AND SWAP1 DUP2 PUSH20 0xFFFFFFFFFFFFFFFFFFFFFFFFFFFFFFFFFFFFFFFF AND DUP2 MSTORE POP POP PUSH2 0x7CF PUSH8 0x68F5E2B99B2AB40 PUSH1 0xC0 SHL PUSH2 0x88D JUMP JUMPDEST DUP2 DUP6 PUSH1 0x1 DUP4 PUSH2 0x7DE SWAP2 SWAP1 PUSH2 0xDAF JUMP JUMPDEST DUP2 MLOAD DUP2 LT PUSH2 0x7EF JUMPI PUSH2 0x7EE PUSH2 0xEB5 JUMP JUMPDEST JUMPDEST PUSH1 0x20 MUL PUSH1 0x20 ADD ADD DUP2 DUP2 MSTORE POP POP DUP1 DUP1 PUSH2 0x806 SWAP1 PUSH2 0xF3D JUMP JUMPDEST SWAP2 POP POP PUSH2 0x71B JUMP JUMPDEST POP PUSH2 0x823 PUSH8 0x931E694378B4BAF PUSH1 0xC0 SHL PUSH2 0x88D JUMP JUMPDEST PUSH2 0x837 PUSH8 0x6C79D349765E8979 PUSH1 0xC0 SHL PUSH2 0x88D JUMP JUMPDEST POP POP POP SWAP4 POP SWAP4 SWAP2 POP POP JUMP JUMPDEST PUSH1 0x3 PUSH1 0x0 SWAP1 SLOAD SWAP1 PUSH2 0x100 EXP SWAP1 DIV PUSH20 0xFFFFFFFFFFFFFFFFFFFFFFFFFFFFFFFFFFFFFFFF AND DUP2 JUMP JUMPDEST PUSH1 0x1 SLOAD DUP2 JUMP JUMPDEST PUSH8 0xDE0B6B3A7640000 DUP2 JUMP JUMPDEST PUSH3 0xF4240 DUP2 JUMP JUMPDEST PUSH1 0x2 SLOAD DUP2 JUMP JUMPDEST PUSH1 0x0 SLOAD DUP2 JUMP JUMPDEST POP JUMP JUMPDEST PUSH1 0x0 DUP1 REVERT JUMPDEST PUSH1 0x0 DUP1 REVERT JUMPDEST PUSH1 0x0 DUP2 SWAP1 POP SWAP2 SWAP1 POP JUMP JUMPDEST PUSH2 0x8AD DUP2 PUSH2 0x89A JUMP JUMPDEST DUP2 EQ PUSH2 0x8B8 JUMPI PUSH1 0x0 DUP1 REVERT JUMPDEST POP JUMP JUMPDEST PUSH1 0x0 DUP2 CALLDATALOAD SWAP1 POP PUSH2 0x8CA DUP2 PUSH2 0x8A4 JUMP JUMPDEST SWAP3 SWAP2 POP POP JUMP JUMPDEST PUSH1 0x0 DUP1 PUSH1 0x40 DUP4 DUP6 SUB SLT ISZERO PUSH2 0x8E7 JUMPI PUSH2 0x8E6 PUSH2 0x890 JUMP JUMPDEST JUMPDEST PUSH1 0x0 PUSH2 0x8F5 DUP6 DUP3 DUP7 ADD PUSH2 0x8BB JUMP JUMPDEST SWAP3 POP POP PUSH1 0x20 PUSH2 0x906 DUP6 DUP3 DUP7 ADD PUSH2 0x8BB JUMP JUMPDEST SWAP2 POP POP SWAP3 POP SWAP3 SWAP1 POP JUMP JUMPDEST PUSH2 0x919 DUP2 PUSH2 0x89A JUMP JUMPDEST DUP3 MSTORE POP POP JUMP JUMPDEST PUSH1 0x0 PUSH1 0x20 DUP3 ADD SWAP1 POP PUSH2 0x934 PUSH1 0x0 DUP4 ADD DUP5 PUSH2 0x910 JUMP JUMPDEST SWAP3 SWAP2 POP POP JUMP JUMPDEST PUSH1 0x0 DUP1 PUSH1 0x0 PUSH1 0x60 DUP5 DUP7 SUB SLT ISZERO PUSH2 0x953 JUMPI PUSH2 0x952 PUSH2 0x890 JUMP JUMPDEST JUMPDEST PUSH1 0x0 PUSH2 0x961 DUP7 DUP3 DUP8 ADD PUSH2 0x8BB JUMP JUMPDEST SWAP4 POP POP PUSH1 0x20 PUSH2 0x972 DUP7 DUP3 DUP8 ADD PUSH2 0x8BB JUMP JUMPDEST SWAP3 POP POP PUSH1 0x40 PUSH2 0x983 DUP7 DUP3 DUP8 ADD PUSH2 0x8BB JUMP JUMPDEST SWAP2 POP POP SWAP3 POP SWAP3 POP SWAP3 JUMP JUMPDEST PUSH1 0x0 DUP1 REVERT JUMPDEST PUSH1 0x0 DUP1 REVERT JUMPDEST PUSH1 0x0 DUP1 REVERT JUMPDEST PUSH1 0x0 DUP1 DUP4 PUSH1 0x1F DUP5 ADD SLT PUSH2 0x9B2 JUMPI PUSH2 0x9B1 PUSH2 0x98D JUMP JUMPDEST JUMPDEST DUP3 CALLDATALOAD SWAP1 POP PUSH8 0xFFFFFFFFFFFFFFFF DUP2 GT ISZERO PUSH2 0x9CF JUMPI PUSH2 0x9CE PUSH2 0x992 JUMP JUMPDEST JUMPDEST PUSH1 0x20 DUP4 ADD SWAP2 POP DUP4 PUSH1 0x20 DUP3 MUL DUP4 ADD GT ISZERO PUSH2 0x9EB JUMPI PUSH2 0x9EA PUSH2 0x997 JUMP JUMPDEST JUMPDEST SWAP3 POP SWAP3 SWAP1 POP JUMP JUMPDEST PUSH1 0x0 DUP1 PUSH1 0x0 PUSH1 0x40 DUP5 DUP7 SUB SLT ISZERO PUSH2 0xA0B JUMPI PUSH2 0xA0A PUSH2 0x890 JUMP JUMPDEST JUMPDEST PUSH1 0x0 PUSH2 0xA19 DUP7 DUP3 DUP8 ADD PUSH2 0x8BB JUMP JUMPDEST SWAP4 POP POP PUSH1 0x20 DUP5 ADD CALLDATALOAD PUSH8 0xFFFFFFFFFFFFFFFF DUP2 GT ISZERO PUSH2 0xA3A JUMPI PUSH2 0xA39 PUSH2 0x895 JUMP JUMPDEST JUMPDEST PUSH2 0xA46 DUP7 DUP3 DUP8 ADD PUSH2 0x99C JUMP JUMPDEST SWAP3 POP SWAP3 POP POP SWAP3 POP SWAP3 POP SWAP3 JUMP JUMPDEST PUSH1 0x0 DUP2 MLOAD SWAP1 POP SWAP2 SWAP1 POP JUMP JUMPDEST PUSH1 0x0 DUP3 DUP3 MSTORE PUSH1 0x20 DUP3 ADD SWAP1 POP SWAP3 SWAP2 POP POP JUMP JUMPDEST PUSH1 0x0 DUP2 SWAP1 POP PUSH1 0x20 DUP3 ADD SWAP1 POP SWAP2 SWAP1 POP JUMP JUMPDEST PUSH1 0x0 PUSH20 0xFFFFFFFFFFFFFFFFFFFFFFFFFFFFFFFFFFFFFFFF DUP3 AND SWAP1 POP SWAP2 SWAP1 POP JUMP JUMPDEST PUSH1 0x0 PUSH2 0xAA9 DUP3 PUSH2 0xA7E JUMP JUMPDEST SWAP1 POP SWAP2 SWAP1 POP JUMP JUMPDEST PUSH2 0xAB9 DUP2 PUSH2 0xA9E JUMP JUMPDEST DUP3 MSTORE POP POP JUMP JUMPDEST PUSH1 0x0 PUSH2 0xACB DUP4 DUP4 PUSH2 0xAB0 JUMP JUMPDEST PUSH1 0x20 DUP4 ADD SWAP1 POP SWAP3 SWAP2 POP POP JUMP JUMPDEST PUSH1 0x0 PUSH1 0x20 DUP3 ADD SWAP1 POP SWAP2 SWAP1 POP JUMP JUMPDEST PUSH1 0x0 PUSH2 0xAEF DUP3 PUSH2 0xA52 JUMP JUMPDEST PUSH2 0xAF9 DUP2 DUP6 PUSH2 0xA5D JUMP JUMPDEST SWAP4 POP PUSH2 0xB04 DUP4 PUSH2 0xA6E JUMP JUMPDEST DUP1 PUSH1 0x0 JUMPDEST DUP4 DUP2 LT ISZERO PUSH2 0xB35 JUMPI DUP2 MLOAD PUSH2 0xB1C DUP9 DUP3 PUSH2 0xABF JUMP JUMPDEST SWAP8 POP PUSH2 0xB27 DUP4 PUSH2 0xAD7 JUMP JUMPDEST SWAP3 POP POP PUSH1 0x1 DUP2 ADD SWAP1 POP PUSH2 0xB08 JUMP JUMPDEST POP DUP6 SWAP4 POP POP POP POP SWAP3 SWAP2 POP POP JUMP JUMPDEST PUSH1 0x0 DUP2 MLOAD SWAP1 POP SWAP2 SWAP1 POP JUMP JUMPDEST PUSH1 0x0 DUP3 DUP3 MSTORE PUSH1 0x20 DUP3 ADD SWAP1 POP SWAP3 SWAP2 POP POP JUMP JUMPDEST PUSH1 0x0 DUP2 SWAP1 POP PUSH1 0x20 DUP3 ADD SWAP1 POP SWAP2 SWAP1 POP JUMP JUMPDEST PUSH2 0xB77 DUP2 PUSH2 0x89A JUMP JUMPDEST DUP3 MSTORE POP POP JUMP JUMPDEST PUSH1 0x0 PUSH2 0xB89 DUP4 DUP4 PUSH2 0xB6E JUMP JUMPDEST PUSH1 0x20 DUP4 ADD SWAP1 POP SWAP3 SWAP2 POP POP JUMP JUMPDEST PUSH1 0x0 PUSH1 0x20 DUP3 ADD SWAP1 POP SWAP2 SWAP1 POP JUMP JUMPDEST PUSH1 0x0 PUSH2 0xBAD DUP3 PUSH2 0xB42 JUMP JUMPDEST PUSH2 0xBB7 DUP2 DUP6 PUSH2 0xB4D JUMP JUMPDEST SWAP4 POP PUSH2 0xBC2 DUP4 PUSH2 0xB5E JUMP JUMPDEST DUP1 PUSH1 0x0 JUMPDEST DUP4 DUP2 LT ISZERO PUSH2 0xBF3 JUMPI DUP2 MLOAD PUSH2 0xBDA DUP9 DUP3 PUSH2 0xB7D JUMP JUMPDEST SWAP8 POP PUSH2 0xBE5 DUP4 PUSH2 0xB95 JUMP JUMPDEST SWAP3 POP POP PUSH1 0x1 DUP2 ADD SWAP1 POP PUSH2 0xBC6 JUMP JUMPDEST POP DUP6 SWAP4 POP POP POP POP SWAP3 SWAP2 POP POP JUMP JUMPDEST PUSH1 0x0 PUSH1 0x40 DUP3 ADD SWAP1 POP DUP2 DUP2 SUB PUSH1 0x0 DUP4 ADD MSTORE PUSH2 0xC1A DUP2 DUP6 PUSH2 0xAE4 JUMP JUMPDEST SWAP1 POP DUP2 DUP2 SUB PUSH1 0x20 DUP4 ADD MSTORE PUSH2 0xC2E DUP2 DUP5 PUSH2 0xBA2 JUMP JUMPDEST SWAP1 POP SWAP4 SWAP3 POP POP POP JUMP JUMPDEST PUSH2 0xC40 DUP2 PUSH2 0xA9E JUMP JUMPDEST DUP3 MSTORE POP POP JUMP JUMPDEST PUSH1 0x0 PUSH1 0x20 DUP3 ADD SWAP1 POP PUSH2 0xC5B PUSH1 0x0 DUP4 ADD DUP5 PUSH2 0xC37 JUMP JUMPDEST SWAP3 SWAP2 POP POP JUMP JUMPDEST PUSH32 0x4E487B7100000000000000000000000000000000000000000000000000000000 PUSH1 0x0 MSTORE PUSH1 0x11 PUSH1 0x4 MSTORE PUSH1 0x24 PUSH1 0x0 REVERT JUMPDEST PUSH1 0x0 PUSH2 0xC9B DUP3 PUSH2 0x89A JUMP JUMPDEST SWAP2 POP PUSH2 0xCA6 DUP4 PUSH2 0x89A JUMP JUMPDEST SWAP3 POP DUP3 DUP3 MUL PUSH2 0xCB4 DUP2 PUSH2 0x89A JUMP JUMPDEST SWAP2 POP DUP3 DUP3 DIV DUP5 EQ DUP4 ISZERO OR PUSH2 0xCCB JUMPI PUSH2 0xCCA PUSH2 0xC61 JUMP JUMPDEST JUMPDEST POP SWAP3 SWAP2 POP POP JUMP JUMPDEST PUSH32 0x4E487B7100000000000000000000000000000000000000000000000000000000 PUSH1 0x0 MSTORE PUSH1 0x12 PUSH1 0x4 MSTORE PUSH1 0x24 PUSH1 0x0 REVERT JUMPDEST PUSH1 0x0 PUSH2 0xD0C DUP3 PUSH2 0x89A JUMP JUMPDEST SWAP2 POP PUSH2 0xD17 DUP4 PUSH2 0x89A JUMP JUMPDEST SWAP3 POP DUP3 PUSH2 0xD27 JUMPI PUSH2 0xD26 PUSH2 0xCD2 JUMP JUMPDEST JUMPDEST DUP3 DUP3 DIV SWAP1 POP SWAP3 SWAP2 POP POP JUMP JUMPDEST PUSH1 0x0 DUP3 DUP3 MSTORE PUSH1 0x20 DUP3 ADD SWAP1 POP SWAP3 SWAP2 POP POP JUMP JUMPDEST PUSH32 0x4F6E6C79206F776E657200000000000000000000000000000000000000000000 PUSH1 0x0 DUP3 ADD MSTORE POP JUMP JUMPDEST PUSH1 0x0 PUSH2 0xD79 PUSH1 0xA DUP4 PUSH2 0xD32 JUMP JUMPDEST SWAP2 POP PUSH2 0xD84 DUP3 PUSH2 0xD43 JUMP JUMPDEST PUSH1 0x20 DUP3 ADD SWAP1 POP SWAP2 SWAP1 POP JUMP JUMPDEST PUSH1 0x0 PUSH1 0x20 DUP3 ADD SWAP1 POP DUP2 DUP2 SUB PUSH1 0x0 DUP4 ADD MSTORE PUSH2 0xDA8 DUP2 PUSH2 0xD6C JUMP JUMPDEST SWAP1 POP SWAP2 SWAP1 POP JUMP JUMPDEST PUSH1 0x0 PUSH2 0xDBA DUP3 PUSH2 0x89A JUMP JUMPDEST SWAP2 POP PUSH2 0xDC5 DUP4 PUSH2 0x89A JUMP JUMPDEST SWAP3 POP DUP3 DUP3 ADD SWAP1 POP DUP1 DUP3 GT ISZERO PUSH2 0xDDD JUMPI PUSH2 0xDDC PUSH2 0xC61 JUMP JUMPDEST JUMPDEST SWAP3 SWAP2 POP POP JUMP JUMPDEST PUSH32 0x50657263656E7461676573206D7573742073756D20746F203130300000000000 PUSH1 0x0 DUP3 ADD MSTORE POP JUMP JUMPDEST PUSH1 0x0 PUSH2 0xE19 PUSH1 0x1B DUP4 PUSH2 0xD32 JUMP JUMPDEST SWAP2 POP PUSH2 0xE24 DUP3 PUSH2 0xDE3 JUMP JUMPDEST PUSH1 0x20 DUP3 ADD SWAP1 POP SWAP2 SWAP1 POP JUMP JUMPDEST PUSH1 0x0 PUSH1 0x20 DUP3 ADD SWAP1 POP DUP2 DUP2 SUB PUSH1 0x0 DUP4 ADD MSTORE PUSH2 0xE48 DUP2 PUSH2 0xE0C JUMP JUMPDEST SWAP1 POP SWAP2 SWAP1 POP JUMP JUMPDEST PUSH1 0x0 PUSH1 0x60 DUP3 ADD SWAP1 POP PUSH2 0xE64 PUSH1 0x0 DUP4 ADD DUP7 PUSH2 0x910 JUMP JUMPDEST PUSH2 0xE71 PUSH1 0x20 DUP4 ADD DUP6 PUSH2 0x910 JUMP JUMPDEST PUSH2 0xE7E PUSH1 0x40 DUP4 ADD DUP5 PUSH2 0x910 JUMP JUMPDEST SWAP5 SWAP4 POP POP POP POP JUMP JUMPDEST PUSH32 0x4E487B7100000000000000000000000000000000000000000000000000000000 PUSH1 0x0 MSTORE PUSH1 0x41 PUSH1 0x4 MSTORE PUSH1 0x24 PUSH1 0x0 REVERT JUMPDEST PUSH32 0x4E487B7100000000000000000000000000000000000000000000000000000000 PUSH1 0x0 MSTORE PUSH1 0x32 PUSH1 0x4 MSTORE PUSH1 0x24 PUSH1 0x0 REVERT JUMPDEST PUSH2 0xEED DUP2 PUSH2 0xA9E JUMP JUMPDEST DUP2 EQ PUSH2 0xEF8 JUMPI PUSH1 0x0 DUP1 REVERT JUMPDEST POP JUMP JUMPDEST PUSH1 0x0 DUP2 CALLDATALOAD SWAP1 POP PUSH2 0xF0A DUP2 PUSH2 0xEE4 JUMP JUMPDEST SWAP3 SWAP2 POP POP JUMP JUMPDEST PUSH1 0x0 PUSH1 0x20 DUP3 DUP5 SUB SLT ISZERO PUSH2 0xF26 JUMPI PUSH2 0xF25 PUSH2 0x890 JUMP JUMPDEST JUMPDEST PUSH1 0x0 PUSH2 0xF34 DUP5 DUP3 DUP6 ADD PUSH2 0xEFB JUMP JUMPDEST SWAP2 POP POP SWAP3 SWAP2 POP POP JUMP JUMPDEST PUSH1 0x0 PUSH2 0xF48 DUP3 PUSH2 0x89A JUMP JUMPDEST SWAP2 POP PUSH32 0xFFFFFFFFFFFFFFFFFFFFFFFFFFFFFFFFFFFFFFFFFFFFFFFFFFFFFFFFFFFFFFFF DUP3 SUB PUSH2 0xF7A JUMPI PUSH2 0xF79 PUSH2 0xC61 JUMP JUMPDEST JUMPDEST PUSH1 0x1 DUP3 ADD SWAP1 POP SWAP2 SWAP1 POP JUMP INVALID LOG2 PUSH5 0x6970667358 0x22 SLT KECCAK256 0x1F 0x4D SSTORE 0xE7 0x26 LOG4 MULMOD PUSH6 0xB329759D20F DUP15 0xBE 0xE7 0xB2 0x49 PUSH13 0x47F457B10D276D5718B3922564 PUSH20 0x6F6C634300081300330000000000000000000000 "},"methodIdentifiers":{"MIN_DONATION()":"db45810e","PRECISION()":"aaf5eb68","calculateDistribution(uint256,address[])":"84ff1d3e","calculatePercentage(uint256,uint256)":"2133e3b9","churchPercentage()":"fbe2e557","donorRewardPercentage()":"9328aea5","owner()":"8da5cb5b","reservePercentage()":"f700c829","setDistributionPercentages(uint256,uint256,uint256)":"353cf1fb"}}}}}